{
  "_format": "hh-sol-artifact-1",
  "contractName": "Asset",
  "sourceName": "contracts/Asset.sol",
  "abi": [
    {
      "anonymous": false,
      "inputs": [
        {
          "indexed": true,
          "internalType": "address",
          "name": "owner",
          "type": "address"
        },
        {
          "indexed": true,
          "internalType": "address",
          "name": "spender",
          "type": "address"
        },
        {
          "indexed": false,
          "internalType": "uint256",
          "name": "value",
          "type": "uint256"
        }
      ],
      "name": "Approval",
      "type": "event"
    },
    {
      "anonymous": false,
      "inputs": [
        {
          "indexed": false,
          "internalType": "uint8",
          "name": "version",
          "type": "uint8"
        }
      ],
      "name": "Initialized",
      "type": "event"
    },
    {
      "anonymous": false,
      "inputs": [
        {
          "indexed": true,
          "internalType": "bytes32",
          "name": "role",
          "type": "bytes32"
        },
        {
          "indexed": true,
          "internalType": "bytes32",
          "name": "previousAdminRole",
          "type": "bytes32"
        },
        {
          "indexed": true,
          "internalType": "bytes32",
          "name": "newAdminRole",
          "type": "bytes32"
        }
      ],
      "name": "RoleAdminChanged",
      "type": "event"
    },
    {
      "anonymous": false,
      "inputs": [
        {
          "indexed": true,
          "internalType": "bytes32",
          "name": "role",
          "type": "bytes32"
        },
        {
          "indexed": true,
          "internalType": "address",
          "name": "account",
          "type": "address"
        },
        {
          "indexed": true,
          "internalType": "address",
          "name": "sender",
          "type": "address"
        }
      ],
      "name": "RoleGranted",
      "type": "event"
    },
    {
      "anonymous": false,
      "inputs": [
        {
          "indexed": true,
          "internalType": "bytes32",
          "name": "role",
          "type": "bytes32"
        },
        {
          "indexed": true,
          "internalType": "address",
          "name": "account",
          "type": "address"
        },
        {
          "indexed": true,
          "internalType": "address",
          "name": "sender",
          "type": "address"
        }
      ],
      "name": "RoleRevoked",
      "type": "event"
    },
    {
      "anonymous": false,
      "inputs": [
        {
          "indexed": true,
          "internalType": "address",
          "name": "from",
          "type": "address"
        },
        {
          "indexed": true,
          "internalType": "address",
          "name": "to",
          "type": "address"
        },
        {
          "indexed": false,
          "internalType": "uint256",
          "name": "value",
          "type": "uint256"
        }
      ],
      "name": "Transfer",
      "type": "event"
    },
    {
      "inputs": [],
      "name": "DEFAULT_ADMIN_ROLE",
      "outputs": [
        {
          "internalType": "bytes32",
          "name": "",
          "type": "bytes32"
        }
      ],
      "stateMutability": "view",
      "type": "function"
    },
    {
      "inputs": [],
      "name": "MINTER_ROLE",
      "outputs": [
        {
          "internalType": "bytes32",
          "name": "",
          "type": "bytes32"
        }
      ],
      "stateMutability": "view",
      "type": "function"
    },
    {
      "inputs": [
        {
          "internalType": "address",
          "name": "owner",
          "type": "address"
        },
        {
          "internalType": "address",
          "name": "spender",
          "type": "address"
        }
      ],
      "name": "allowance",
      "outputs": [
        {
          "internalType": "uint256",
          "name": "",
          "type": "uint256"
        }
      ],
      "stateMutability": "view",
      "type": "function"
    },
    {
      "inputs": [
        {
          "internalType": "address",
          "name": "spender",
          "type": "address"
        },
        {
          "internalType": "uint256",
          "name": "amount",
          "type": "uint256"
        }
      ],
      "name": "approve",
      "outputs": [
        {
          "internalType": "bool",
          "name": "",
          "type": "bool"
        }
      ],
      "stateMutability": "nonpayable",
      "type": "function"
    },
    {
      "inputs": [
        {
          "internalType": "address",
          "name": "account",
          "type": "address"
        }
      ],
      "name": "balanceOf",
      "outputs": [
        {
          "internalType": "uint256",
          "name": "",
          "type": "uint256"
        }
      ],
      "stateMutability": "view",
      "type": "function"
    },
    {
      "inputs": [],
      "name": "decimals",
      "outputs": [
        {
          "internalType": "uint8",
          "name": "",
          "type": "uint8"
        }
      ],
      "stateMutability": "view",
      "type": "function"
    },
    {
      "inputs": [
        {
          "internalType": "address",
          "name": "spender",
          "type": "address"
        },
        {
          "internalType": "uint256",
          "name": "subtractedValue",
          "type": "uint256"
        }
      ],
      "name": "decreaseAllowance",
      "outputs": [
        {
          "internalType": "bool",
          "name": "",
          "type": "bool"
        }
      ],
      "stateMutability": "nonpayable",
      "type": "function"
    },
    {
      "inputs": [
        {
          "internalType": "bytes32",
          "name": "role",
          "type": "bytes32"
        }
      ],
      "name": "getRoleAdmin",
      "outputs": [
        {
          "internalType": "bytes32",
          "name": "",
          "type": "bytes32"
        }
      ],
      "stateMutability": "view",
      "type": "function"
    },
    {
      "inputs": [
        {
          "internalType": "bytes32",
          "name": "role",
          "type": "bytes32"
        },
        {
          "internalType": "address",
          "name": "account",
          "type": "address"
        }
      ],
      "name": "grantRole",
      "outputs": [],
      "stateMutability": "nonpayable",
      "type": "function"
    },
    {
      "inputs": [
        {
          "internalType": "bytes32",
          "name": "role",
          "type": "bytes32"
        },
        {
          "internalType": "address",
          "name": "account",
          "type": "address"
        }
      ],
      "name": "hasRole",
      "outputs": [
        {
          "internalType": "bool",
          "name": "",
          "type": "bool"
        }
      ],
      "stateMutability": "view",
      "type": "function"
    },
    {
      "inputs": [
        {
          "internalType": "address",
          "name": "spender",
          "type": "address"
        },
        {
          "internalType": "uint256",
          "name": "addedValue",
          "type": "uint256"
        }
      ],
      "name": "increaseAllowance",
      "outputs": [
        {
          "internalType": "bool",
          "name": "",
          "type": "bool"
        }
      ],
      "stateMutability": "nonpayable",
      "type": "function"
    },
    {
      "inputs": [
        {
          "internalType": "string",
          "name": "_name",
          "type": "string"
        },
        {
          "internalType": "string",
          "name": "_symbol",
          "type": "string"
        }
      ],
      "name": "initialize",
      "outputs": [],
      "stateMutability": "nonpayable",
      "type": "function"
    },
    {
      "inputs": [
        {
          "internalType": "address",
          "name": "to",
          "type": "address"
        },
        {
          "internalType": "uint256",
          "name": "amount",
          "type": "uint256"
        }
      ],
      "name": "mint",
      "outputs": [],
      "stateMutability": "nonpayable",
      "type": "function"
    },
    {
      "inputs": [],
      "name": "name",
      "outputs": [
        {
          "internalType": "string",
          "name": "",
          "type": "string"
        }
      ],
      "stateMutability": "view",
      "type": "function"
    },
    {
      "inputs": [
        {
          "internalType": "bytes32",
          "name": "role",
          "type": "bytes32"
        },
        {
          "internalType": "address",
          "name": "account",
          "type": "address"
        }
      ],
      "name": "renounceRole",
      "outputs": [],
      "stateMutability": "nonpayable",
      "type": "function"
    },
    {
      "inputs": [
        {
          "internalType": "bytes32",
          "name": "role",
          "type": "bytes32"
        },
        {
          "internalType": "address",
          "name": "account",
          "type": "address"
        }
      ],
      "name": "revokeRole",
      "outputs": [],
      "stateMutability": "nonpayable",
      "type": "function"
    },
    {
      "inputs": [
        {
          "internalType": "bytes4",
          "name": "interfaceId",
          "type": "bytes4"
        }
      ],
      "name": "supportsInterface",
      "outputs": [
        {
          "internalType": "bool",
          "name": "",
          "type": "bool"
        }
      ],
      "stateMutability": "view",
      "type": "function"
    },
    {
      "inputs": [],
      "name": "symbol",
      "outputs": [
        {
          "internalType": "string",
          "name": "",
          "type": "string"
        }
      ],
      "stateMutability": "view",
      "type": "function"
    },
    {
      "inputs": [],
      "name": "totalSupply",
      "outputs": [
        {
          "internalType": "uint256",
          "name": "",
          "type": "uint256"
        }
      ],
      "stateMutability": "view",
      "type": "function"
    },
    {
      "inputs": [
        {
          "internalType": "address",
          "name": "to",
          "type": "address"
        },
        {
          "internalType": "uint256",
          "name": "amount",
          "type": "uint256"
        }
      ],
      "name": "transfer",
      "outputs": [
        {
          "internalType": "bool",
          "name": "",
          "type": "bool"
        }
      ],
      "stateMutability": "nonpayable",
      "type": "function"
    },
    {
      "inputs": [
        {
          "internalType": "address",
          "name": "from",
          "type": "address"
        },
        {
          "internalType": "address",
          "name": "to",
          "type": "address"
        },
        {
          "internalType": "uint256",
          "name": "amount",
          "type": "uint256"
        }
      ],
      "name": "transferFrom",
      "outputs": [
        {
          "internalType": "bool",
          "name": "",
          "type": "bool"
        }
      ],
      "stateMutability": "nonpayable",
      "type": "function"
    }
  ],
  "bytecode": "0x608060405234801561001057600080fd5b5061145a806100206000396000f3fe608060405234801561001057600080fd5b50600436106101375760003560e01c806340c10f19116100b8578063a217fddf1161007c578063a217fddf14610288578063a457c2d714610290578063a9059cbb146102a3578063d5391393146102b6578063d547741f146102dd578063dd62ed3e146102f057600080fd5b806340c10f191461021e5780634cd88b761461023157806370a082311461024457806391d148541461026d57806395d89b411461028057600080fd5b8063248a9ca3116100ff578063248a9ca3146101b15780632f2ff15d146101d4578063313ce567146101e957806336568abe146101f8578063395093511461020b57600080fd5b806301ffc9a71461013c57806306fdde0314610164578063095ea7b31461017957806318160ddd1461018c57806323b872dd1461019e575b600080fd5b61014f61014a366004610f1b565b610303565b60405190151581526020015b60405180910390f35b61016c61033a565b60405161015b9190610f69565b61014f610187366004610fb8565b6103cc565b6035545b60405190815260200161015b565b61014f6101ac366004610fe2565b6103e4565b6101906101bf36600461101e565b60009081526097602052604090206001015490565b6101e76101e2366004611037565b610408565b005b6040516006815260200161015b565b6101e7610206366004611037565b610432565b61014f610219366004610fb8565b6104b5565b6101e761022c366004610fb8565b6104d7565b6101e761023f366004611106565b61050b565b61019061025236600461116a565b6001600160a01b031660009081526033602052604090205490565b61014f61027b366004611037565b61065c565b61016c610687565b610190600081565b61014f61029e366004610fb8565b610696565b61014f6102b1366004610fb8565b610711565b6101907f9f2df0fed2c77648de5860a4cc508cd0818c85b8b8a1ab4ceeef8d981c8956a681565b6101e76102eb366004611037565b61071f565b6101906102fe366004611185565b610744565b60006001600160e01b03198216637965db0b60e01b148061033457506301ffc9a760e01b6001600160e01b03198316145b92915050565b606060368054610349906111af565b80601f0160208091040260200160405190810160405280929190818152602001828054610375906111af565b80156103c25780601f10610397576101008083540402835291602001916103c2565b820191906000526020600020905b8154815290600101906020018083116103a557829003601f168201915b5050505050905090565b6000336103da81858561076f565b5060019392505050565b6000336103f2858285610893565b6103fd85858561090d565b506001949350505050565b60008281526097602052604090206001015461042381610ab8565b61042d8383610ac5565b505050565b6001600160a01b03811633146104a75760405162461bcd60e51b815260206004820152602f60248201527f416363657373436f6e74726f6c3a2063616e206f6e6c792072656e6f756e636560448201526e103937b632b9903337b91039b2b63360891b60648201526084015b60405180910390fd5b6104b18282610b4b565b5050565b6000336103da8185856104c88383610744565b6104d291906111ff565b61076f565b7f9f2df0fed2c77648de5860a4cc508cd0818c85b8b8a1ab4ceeef8d981c8956a661050181610ab8565b61042d8383610bb2565b600054610100900460ff161580801561052b5750600054600160ff909116105b806105455750303b158015610545575060005460ff166001145b6105a85760405162461bcd60e51b815260206004820152602e60248201527f496e697469616c697a61626c653a20636f6e747261637420697320616c72656160448201526d191e481a5b9a5d1a585b1a5e995960921b606482015260840161049e565b6000805460ff1916600117905580156105cb576000805461ff0019166101001790555b6105d3610c73565b6105dd8383610c9c565b6105e8600033610ac5565b6106127f9f2df0fed2c77648de5860a4cc508cd0818c85b8b8a1ab4ceeef8d981c8956a633610ac5565b801561042d576000805461ff0019169055604051600181527f7f26b83ff96e1f2b6a682f133852f6798a09c465da95921460cefb38474024989060200160405180910390a1505050565b60009182526097602090815260408084206001600160a01b0393909316845291905290205460ff1690565b606060378054610349906111af565b600033816106a48286610744565b9050838110156107045760405162461bcd60e51b815260206004820152602560248201527f45524332303a2064656372656173656420616c6c6f77616e63652062656c6f77604482015264207a65726f60d81b606482015260840161049e565b6103fd828686840361076f565b6000336103da81858561090d565b60008281526097602052604090206001015461073a81610ab8565b61042d8383610b4b565b6001600160a01b03918216600090815260346020908152604080832093909416825291909152205490565b6001600160a01b0383166107d15760405162461bcd60e51b8152602060048201526024808201527f45524332303a20617070726f76652066726f6d20746865207a65726f206164646044820152637265737360e01b606482015260840161049e565b6001600160a01b0382166108325760405162461bcd60e51b815260206004820152602260248201527f45524332303a20617070726f766520746f20746865207a65726f206164647265604482015261737360f01b606482015260840161049e565b6001600160a01b0383811660008181526034602090815260408083209487168084529482529182902085905590518481527f8c5be1e5ebec7d5bd14f71427d1e84f3dd0314c0f7b2291e5b200ac8c7c3b925910160405180910390a3505050565b600061089f8484610744565b9050600019811461090757818110156108fa5760405162461bcd60e51b815260206004820152601d60248201527f45524332303a20696e73756666696369656e7420616c6c6f77616e6365000000604482015260640161049e565b610907848484840361076f565b50505050565b6001600160a01b0383166109715760405162461bcd60e51b815260206004820152602560248201527f45524332303a207472616e736665722066726f6d20746865207a65726f206164604482015264647265737360d81b606482015260840161049e565b6001600160a01b0382166109d35760405162461bcd60e51b815260206004820152602360248201527f45524332303a207472616e7366657220746f20746865207a65726f206164647260448201526265737360e81b606482015260840161049e565b6001600160a01b03831660009081526033602052604090205481811015610a4b5760405162461bcd60e51b815260206004820152602660248201527f45524332303a207472616e7366657220616d6f756e7420657863656564732062604482015265616c616e636560d01b606482015260840161049e565b6001600160a01b0380851660008181526033602052604080822086860390559286168082529083902080548601905591517fddf252ad1be2c89b69c2b068fc378daa952ba7f163c4a11628f55a4df523b3ef90610aab9086815260200190565b60405180910390a3610907565b610ac28133610ccd565b50565b610acf828261065c565b6104b15760008281526097602090815260408083206001600160a01b03851684529091529020805460ff19166001179055610b073390565b6001600160a01b0316816001600160a01b0316837f2f8788117e7eff1d82e926ec794901d17c78024a50270940304540a733656f0d60405160405180910390a45050565b610b55828261065c565b156104b15760008281526097602090815260408083206001600160a01b0385168085529252808320805460ff1916905551339285917ff6391f5c32d9c69d2a47ea670b442974b53935d1edc7fd64eb21e047a839171b9190a45050565b6001600160a01b038216610c085760405162461bcd60e51b815260206004820152601f60248201527f45524332303a206d696e7420746f20746865207a65726f206164647265737300604482015260640161049e565b8060356000828254610c1a91906111ff565b90915550506001600160a01b0382166000818152603360209081526040808320805486019055518481527fddf252ad1be2c89b69c2b068fc378daa952ba7f163c4a11628f55a4df523b3ef910160405180910390a35050565b600054610100900460ff16610c9a5760405162461bcd60e51b815260040161049e90611212565b565b600054610100900460ff16610cc35760405162461bcd60e51b815260040161049e90611212565b6104b18282610d26565b610cd7828261065c565b6104b157610ce481610d66565b610cef836020610d78565b604051602001610d0092919061125d565b60408051601f198184030181529082905262461bcd60e51b825261049e91600401610f69565b600054610100900460ff16610d4d5760405162461bcd60e51b815260040161049e90611212565b6036610d598382611320565b50603761042d8282611320565b60606103346001600160a01b03831660145b60606000610d878360026113e0565b610d929060026111ff565b67ffffffffffffffff811115610daa57610daa611063565b6040519080825280601f01601f191660200182016040528015610dd4576020820181803683370190505b509050600360fc1b81600081518110610def57610def6113f7565b60200101906001600160f81b031916908160001a905350600f60fb1b81600181518110610e1e57610e1e6113f7565b60200101906001600160f81b031916908160001a9053506000610e428460026113e0565b610e4d9060016111ff565b90505b6001811115610ec5576f181899199a1a9b1b9c1cb0b131b232b360811b85600f1660108110610e8157610e816113f7565b1a60f81b828281518110610e9757610e976113f7565b60200101906001600160f81b031916908160001a90535060049490941c93610ebe8161140d565b9050610e50565b508315610f145760405162461bcd60e51b815260206004820181905260248201527f537472696e67733a20686578206c656e67746820696e73756666696369656e74604482015260640161049e565b9392505050565b600060208284031215610f2d57600080fd5b81356001600160e01b031981168114610f1457600080fd5b60005b83811015610f60578181015183820152602001610f48565b50506000910152565b6020815260008251806020840152610f88816040850160208701610f45565b601f01601f19169190910160400192915050565b80356001600160a01b0381168114610fb357600080fd5b919050565b60008060408385031215610fcb57600080fd5b610fd483610f9c565b946020939093013593505050565b600080600060608486031215610ff757600080fd5b61100084610f9c565b925061100e60208501610f9c565b9150604084013590509250925092565b60006020828403121561103057600080fd5b5035919050565b6000806040838503121561104a57600080fd5b8235915061105a60208401610f9c565b90509250929050565b634e487b7160e01b600052604160045260246000fd5b600082601f83011261108a57600080fd5b813567ffffffffffffffff808211156110a5576110a5611063565b604051601f8301601f19908116603f011681019082821181831017156110cd576110cd611063565b816040528381528660208588010111156110e657600080fd5b836020870160208301376000602085830101528094505050505092915050565b6000806040838503121561111957600080fd5b823567ffffffffffffffff8082111561113157600080fd5b61113d86838701611079565b9350602085013591508082111561115357600080fd5b5061116085828601611079565b9150509250929050565b60006020828403121561117c57600080fd5b610f1482610f9c565b6000806040838503121561119857600080fd5b6111a183610f9c565b915061105a60208401610f9c565b600181811c908216806111c357607f821691505b6020821081036111e357634e487b7160e01b600052602260045260246000fd5b50919050565b634e487b7160e01b600052601160045260246000fd5b80820180821115610334576103346111e9565b6020808252602b908201527f496e697469616c697a61626c653a20636f6e7472616374206973206e6f74206960408201526a6e697469616c697a696e6760a81b606082015260800190565b7f416363657373436f6e74726f6c3a206163636f756e7420000000000000000000815260008351611295816017850160208801610f45565b7001034b99036b4b9b9b4b733903937b6329607d1b60179184019182015283516112c6816028840160208801610f45565b01602801949350505050565b601f82111561042d57600081815260208120601f850160051c810160208610156112f95750805b601f850160051c820191505b8181101561131857828155600101611305565b505050505050565b815167ffffffffffffffff81111561133a5761133a611063565b61134e8161134884546111af565b846112d2565b602080601f831160018114611383576000841561136b5750858301515b600019600386901b1c1916600185901b178555611318565b600085815260208120601f198616915b828110156113b257888601518255948401946001909101908401611393565b50858210156113d05787850151600019600388901b60f8161c191681555b5050505050600190811b01905550565b8082028115828204841417610334576103346111e9565b634e487b7160e01b600052603260045260246000fd5b60008161141c5761141c6111e9565b50600019019056fea26469706673582212209544771991c97e1bd5311c1d839b2b1601ea625b994bfd3c22dd413ea145222364736f6c63430008120033",
  "linkReferences": {},
  "deployedLinkReferences": {}
}