{
  "_format": "hh-sol-artifact-1",
  "contractName": "DeployManager",
  "sourceName": "contracts/DeployManager.sol",
  "abi": [
    {
      "inputs": [
        {
          "internalType": "address",
          "name": "_erc4626LogicAddress",
          "type": "address"
        }
      ],
      "stateMutability": "nonpayable",
      "type": "constructor"
    },
    {
      "inputs": [
        {
          "internalType": "string",
          "name": "field",
          "type": "string"
        }
      ],
      "name": "ZeroAddressError",
      "type": "error"
    },
    {
      "anonymous": false,
      "inputs": [
        {
          "indexed": true,
          "internalType": "address",
          "name": "vaultContractAddress",
          "type": "address"
        }
      ],
      "name": "VaultContractDeployed",
      "type": "event"
    },
    {
      "inputs": [
        {
          "components": [
            {
              "internalType": "address",
              "name": "assetAddress",
              "type": "address"
            },
            {
              "internalType": "string",
              "name": "vaultName",
              "type": "string"
            },
            {
              "internalType": "string",
              "name": "vaultSymbol",
              "type": "string"
            },
            {
              "internalType": "address",
              "name": "adminAddress",
              "type": "address"
            }
          ],
          "internalType": "struct DeployVault",
          "name": "inputArgs",
          "type": "tuple"
        }
      ],
      "name": "deployVault",
      "outputs": [
        {
          "internalType": "address[1]",
          "name": "",
          "type": "address[1]"
        }
      ],
      "stateMutability": "nonpayable",
      "type": "function"
    }
  ],
  "bytecode": "0x60a060405234801561001057600080fd5b50604051610c93380380610c9383398101604081905261002f916100bb565b610074816040518060400160405280601481526020017f5f657263343632364c6f6769634164647265737300000000000000000000000081525061008560201b60201c565b6001600160a01b0316608052610139565b6001600160a01b0382166100b75780604051630367a94960e11b81526004016100ae91906100eb565b60405180910390fd5b5050565b6000602082840312156100cd57600080fd5b81516001600160a01b03811681146100e457600080fd5b9392505050565b600060208083528351808285015260005b81811015610118578581018301518582016040015282016100fc565b506000604082860101526040601f19601f8301168501019250505092915050565b608051610b3f61015460003960006101ab0152610b3f6000f3fe608060405234801561001057600080fd5b506004361061002b5760003560e01c80632e7f401d14610030575b600080fd5b61004361003e366004610233565b610059565b6040516100509190610275565b60405180910390f35b610061610208565b600061010c61007360208501856102b0565b61008060208601866102d9565b8080601f0160208091040260200160405190810160405280939291908181526020018383808284376000920191909152506100c29250505060408701876102d9565b8080601f0160208091040260200160405190810160405280939291908181526020018383808284376000920191909152506101079250505060808801606089016102b0565b610161565b6040519091506001600160a01b038216907fc5cefdba581a3febbd7f1cbeadcccb201baac6e87e746bbd33c1723bb0110bcd90600090a260408051602081019091526001600160a01b03909116815292915050565b6000808585858560405160240161017b949392919061036d565b60408051601f198184030181529181526020820180516001600160e01b031663613d25bb60e01b179052519091507f00000000000000000000000000000000000000000000000000000000000000009082906101d690610226565b6101e19291906103b6565b604051809103906000f0801580156101fd573d6000803e3d6000fd5b509695505050505050565b60405180602001604052806001906020820280368337509192915050565b610727806103e383390190565b60006020828403121561024557600080fd5b813567ffffffffffffffff81111561025c57600080fd5b82016080818503121561026e57600080fd5b9392505050565b602081810190828460005b60018110156102a65781516001600160a01b031683529183019190830190600101610280565b5050505092915050565b6000602082840312156102c257600080fd5b81356001600160a01b038116811461026e57600080fd5b6000808335601e198436030181126102f057600080fd5b83018035915067ffffffffffffffff82111561030b57600080fd5b60200191503681900382131561032057600080fd5b9250929050565b6000815180845260005b8181101561034d57602081850181015186830182015201610331565b506000602082860101526020601f19601f83011685010191505092915050565b600060018060a01b0380871683526080602084015261038f6080840187610327565b83810360408501526103a18187610327565b92505080841660608401525095945050505050565b6001600160a01b03831681526040602082018190526000906103da90830184610327565b94935050505056fe608060405260405161072738038061072783398101604081905261002291610319565b61002e82826000610035565b5050610436565b61003e8361006b565b60008251118061004b5750805b156100665761006483836100ab60201b6100291760201c565b505b505050565b610074816100d7565b6040516001600160a01b038216907fbc7cd75a20ee27fd9adebab32041f755214dbc6bffa90cc0225b39da2e5c2d3b90600090a250565b60606100d08383604051806060016040528060278152602001610700602791396101a9565b9392505050565b6100ea8161022260201b6100551760201c565b6101515760405162461bcd60e51b815260206004820152602d60248201527f455243313936373a206e657720696d706c656d656e746174696f6e206973206e60448201526c1bdd08184818dbdb9d1c9858dd609a1b60648201526084015b60405180910390fd5b806101887f360894a13ba1a3210667c828492db98dca3e2076cc3735a920a3ca505d382bbc60001b61023160201b6100641760201c565b80546001600160a01b0319166001600160a01b039290921691909117905550565b6060600080856001600160a01b0316856040516101c691906103e7565b600060405180830381855af49150503d8060008114610201576040519150601f19603f3d011682016040523d82523d6000602084013e610206565b606091505b50909250905061021886838387610234565b9695505050505050565b6001600160a01b03163b151590565b90565b606083156102a357825160000361029c576001600160a01b0385163b61029c5760405162461bcd60e51b815260206004820152601d60248201527f416464726573733a2063616c6c20746f206e6f6e2d636f6e74726163740000006044820152606401610148565b50816102ad565b6102ad83836102b5565b949350505050565b8151156102c55781518083602001fd5b8060405162461bcd60e51b81526004016101489190610403565b634e487b7160e01b600052604160045260246000fd5b60005b838110156103105781810151838201526020016102f8565b50506000910152565b6000806040838503121561032c57600080fd5b82516001600160a01b038116811461034357600080fd5b60208401519092506001600160401b038082111561036057600080fd5b818501915085601f83011261037457600080fd5b815181811115610386576103866102df565b604051601f8201601f19908116603f011681019083821181831017156103ae576103ae6102df565b816040528281528860208487010111156103c757600080fd5b6103d88360208301602088016102f5565b80955050505050509250929050565b600082516103f98184602087016102f5565b9190910192915050565b60208152600082518060208401526104228160408501602087016102f5565b601f01601f19169190910160400192915050565b6102bb806104456000396000f3fe60806040523661001357610011610017565b005b6100115b610027610022610067565b61009f565b565b606061004e838360405180606001604052806027815260200161025f602791396100c3565b9392505050565b6001600160a01b03163b151590565b90565b600061009a7f360894a13ba1a3210667c828492db98dca3e2076cc3735a920a3ca505d382bbc546001600160a01b031690565b905090565b3660008037600080366000845af43d6000803e8080156100be573d6000f35b3d6000fd5b6060600080856001600160a01b0316856040516100e0919061020f565b600060405180830381855af49150503d806000811461011b576040519150601f19603f3d011682016040523d82523d6000602084013e610120565b606091505b50915091506101318683838761013b565b9695505050505050565b606083156101af5782516000036101a8576001600160a01b0385163b6101a85760405162461bcd60e51b815260206004820152601d60248201527f416464726573733a2063616c6c20746f206e6f6e2d636f6e747261637400000060448201526064015b60405180910390fd5b50816101b9565b6101b983836101c1565b949350505050565b8151156101d15781518083602001fd5b8060405162461bcd60e51b815260040161019f919061022b565b60005b838110156102065781810151838201526020016101ee565b50506000910152565b600082516102218184602087016101eb565b9190910192915050565b602081526000825180602084015261024a8160408501602087016101eb565b601f01601f1916919091016040019291505056fe416464726573733a206c6f772d6c6576656c2064656c65676174652063616c6c206661696c6564a2646970667358221220eadb3f48a33ed3e9e66c6f7b465401411d1058c071ebc26992e468a5ebd3b1e064736f6c63430008120033416464726573733a206c6f772d6c6576656c2064656c65676174652063616c6c206661696c6564a26469706673582212203998350b2bfc39b5f6c729977461f81f4a5df85b5f9a9e769508d88d4058654764736f6c63430008120033",
  "linkReferences": {},
  "deployedLinkReferences": {}
}