{
  "_format": "hh-sol-artifact-1",
  "contractName": "Loan",
  "sourceName": "contracts/Loan.sol",
  "abi": [
    {
      "inputs": [],
      "stateMutability": "nonpayable",
      "type": "constructor"
    },
    {
      "anonymous": false,
      "inputs": [
        {
          "indexed": true,
          "internalType": "address",
          "name": "account",
          "type": "address"
        },
        {
          "indexed": true,
          "internalType": "address",
          "name": "operator",
          "type": "address"
        },
        {
          "indexed": false,
          "internalType": "bool",
          "name": "approved",
          "type": "bool"
        }
      ],
      "name": "ApprovalForAll",
      "type": "event"
    },
    {
      "anonymous": false,
      "inputs": [
        {
          "indexed": true,
          "internalType": "address",
          "name": "from",
          "type": "address"
        },
        {
          "indexed": false,
          "internalType": "uint256",
          "name": "tokenId",
          "type": "uint256"
        },
        {
          "indexed": false,
          "internalType": "uint256",
          "name": "amount",
          "type": "uint256"
        }
      ],
      "name": "Burn",
      "type": "event"
    },
    {
      "anonymous": false,
      "inputs": [
        {
          "indexed": false,
          "internalType": "uint8",
          "name": "version",
          "type": "uint8"
        }
      ],
      "name": "Initialized",
      "type": "event"
    },
    {
      "anonymous": false,
      "inputs": [
        {
          "indexed": true,
          "internalType": "uint256",
          "name": "id",
          "type": "uint256"
        },
        {
          "indexed": false,
          "internalType": "address",
          "name": "borrower",
          "type": "address"
        },
        {
          "indexed": false,
          "internalType": "address",
          "name": "originator",
          "type": "address"
        },
        {
          "indexed": false,
          "internalType": "address",
          "name": "fundPool",
          "type": "address"
        },
        {
          "indexed": false,
          "internalType": "uint256",
          "name": "interestRate",
          "type": "uint256"
        },
        {
          "indexed": false,
          "internalType": "uint256",
          "name": "principal",
          "type": "uint256"
        },
        {
          "indexed": false,
          "internalType": "uint256",
          "name": "startDate",
          "type": "uint256"
        },
        {
          "indexed": false,
          "internalType": "uint256",
          "name": "maturityDate",
          "type": "uint256"
        }
      ],
      "name": "LoanInitiated",
      "type": "event"
    },
    {
      "anonymous": false,
      "inputs": [
        {
          "indexed": true,
          "internalType": "address",
          "name": "to",
          "type": "address"
        },
        {
          "indexed": false,
          "internalType": "string",
          "name": "tokenName",
          "type": "string"
        },
        {
          "indexed": false,
          "internalType": "string",
          "name": "tokenSymbol",
          "type": "string"
        },
        {
          "indexed": false,
          "internalType": "string",
          "name": "uri",
          "type": "string"
        },
        {
          "indexed": false,
          "internalType": "uint256",
          "name": "tokenId",
          "type": "uint256"
        },
        {
          "indexed": false,
          "internalType": "uint256",
          "name": "amount",
          "type": "uint256"
        }
      ],
      "name": "Mint",
      "type": "event"
    },
    {
      "anonymous": false,
      "inputs": [
        {
          "indexed": true,
          "internalType": "bytes32",
          "name": "role",
          "type": "bytes32"
        },
        {
          "indexed": true,
          "internalType": "bytes32",
          "name": "previousAdminRole",
          "type": "bytes32"
        },
        {
          "indexed": true,
          "internalType": "bytes32",
          "name": "newAdminRole",
          "type": "bytes32"
        }
      ],
      "name": "RoleAdminChanged",
      "type": "event"
    },
    {
      "anonymous": false,
      "inputs": [
        {
          "indexed": true,
          "internalType": "bytes32",
          "name": "role",
          "type": "bytes32"
        },
        {
          "indexed": true,
          "internalType": "address",
          "name": "account",
          "type": "address"
        },
        {
          "indexed": true,
          "internalType": "address",
          "name": "sender",
          "type": "address"
        }
      ],
      "name": "RoleGranted",
      "type": "event"
    },
    {
      "anonymous": false,
      "inputs": [
        {
          "indexed": true,
          "internalType": "bytes32",
          "name": "role",
          "type": "bytes32"
        },
        {
          "indexed": true,
          "internalType": "address",
          "name": "account",
          "type": "address"
        },
        {
          "indexed": true,
          "internalType": "address",
          "name": "sender",
          "type": "address"
        }
      ],
      "name": "RoleRevoked",
      "type": "event"
    },
    {
      "anonymous": false,
      "inputs": [
        {
          "indexed": true,
          "internalType": "address",
          "name": "operator",
          "type": "address"
        },
        {
          "indexed": true,
          "internalType": "address",
          "name": "from",
          "type": "address"
        },
        {
          "indexed": true,
          "internalType": "address",
          "name": "to",
          "type": "address"
        },
        {
          "indexed": false,
          "internalType": "uint256[]",
          "name": "ids",
          "type": "uint256[]"
        },
        {
          "indexed": false,
          "internalType": "uint256[]",
          "name": "values",
          "type": "uint256[]"
        }
      ],
      "name": "TransferBatch",
      "type": "event"
    },
    {
      "anonymous": false,
      "inputs": [
        {
          "indexed": true,
          "internalType": "address",
          "name": "operator",
          "type": "address"
        },
        {
          "indexed": true,
          "internalType": "address",
          "name": "from",
          "type": "address"
        },
        {
          "indexed": true,
          "internalType": "address",
          "name": "to",
          "type": "address"
        },
        {
          "indexed": false,
          "internalType": "uint256",
          "name": "id",
          "type": "uint256"
        },
        {
          "indexed": false,
          "internalType": "uint256",
          "name": "value",
          "type": "uint256"
        }
      ],
      "name": "TransferSingle",
      "type": "event"
    },
    {
      "anonymous": false,
      "inputs": [
        {
          "indexed": false,
          "internalType": "string",
          "name": "value",
          "type": "string"
        },
        {
          "indexed": true,
          "internalType": "uint256",
          "name": "id",
          "type": "uint256"
        }
      ],
      "name": "URI",
      "type": "event"
    },
    {
      "inputs": [],
      "name": "BURNER_ROLE",
      "outputs": [
        {
          "internalType": "bytes32",
          "name": "",
          "type": "bytes32"
        }
      ],
      "stateMutability": "view",
      "type": "function"
    },
    {
      "inputs": [],
      "name": "DEFAULT_ADMIN_ROLE",
      "outputs": [
        {
          "internalType": "bytes32",
          "name": "",
          "type": "bytes32"
        }
      ],
      "stateMutability": "view",
      "type": "function"
    },
    {
      "inputs": [],
      "name": "MINTER_ROLE",
      "outputs": [
        {
          "internalType": "bytes32",
          "name": "",
          "type": "bytes32"
        }
      ],
      "stateMutability": "view",
      "type": "function"
    },
    {
      "inputs": [
        {
          "internalType": "address",
          "name": "account",
          "type": "address"
        },
        {
          "internalType": "uint256",
          "name": "id",
          "type": "uint256"
        }
      ],
      "name": "balanceOf",
      "outputs": [
        {
          "internalType": "uint256",
          "name": "",
          "type": "uint256"
        }
      ],
      "stateMutability": "view",
      "type": "function"
    },
    {
      "inputs": [
        {
          "internalType": "address[]",
          "name": "accounts",
          "type": "address[]"
        },
        {
          "internalType": "uint256[]",
          "name": "ids",
          "type": "uint256[]"
        }
      ],
      "name": "balanceOfBatch",
      "outputs": [
        {
          "internalType": "uint256[]",
          "name": "",
          "type": "uint256[]"
        }
      ],
      "stateMutability": "view",
      "type": "function"
    },
    {
      "inputs": [
        {
          "internalType": "uint256",
          "name": "tokenId",
          "type": "uint256"
        },
        {
          "internalType": "uint256",
          "name": "amount",
          "type": "uint256"
        },
        {
          "internalType": "address",
          "name": "originator",
          "type": "address"
        }
      ],
      "name": "burn",
      "outputs": [],
      "stateMutability": "nonpayable",
      "type": "function"
    },
    {
      "inputs": [
        {
          "internalType": "bytes32",
          "name": "role",
          "type": "bytes32"
        }
      ],
      "name": "getRoleAdmin",
      "outputs": [
        {
          "internalType": "bytes32",
          "name": "",
          "type": "bytes32"
        }
      ],
      "stateMutability": "view",
      "type": "function"
    },
    {
      "inputs": [
        {
          "internalType": "bytes32",
          "name": "role",
          "type": "bytes32"
        },
        {
          "internalType": "address",
          "name": "account",
          "type": "address"
        }
      ],
      "name": "grantRole",
      "outputs": [],
      "stateMutability": "nonpayable",
      "type": "function"
    },
    {
      "inputs": [
        {
          "internalType": "bytes32",
          "name": "role",
          "type": "bytes32"
        },
        {
          "internalType": "address",
          "name": "account",
          "type": "address"
        }
      ],
      "name": "hasRole",
      "outputs": [
        {
          "internalType": "bool",
          "name": "",
          "type": "bool"
        }
      ],
      "stateMutability": "view",
      "type": "function"
    },
    {
      "inputs": [
        {
          "internalType": "string",
          "name": "_name",
          "type": "string"
        },
        {
          "internalType": "string",
          "name": "_symbol",
          "type": "string"
        },
        {
          "internalType": "string",
          "name": "_baseUri",
          "type": "string"
        },
        {
          "internalType": "string",
          "name": "_metadataUri",
          "type": "string"
        },
        {
          "internalType": "address",
          "name": "admin",
          "type": "address"
        }
      ],
      "name": "initialize",
      "outputs": [],
      "stateMutability": "nonpayable",
      "type": "function"
    },
    {
      "inputs": [
        {
          "internalType": "address",
          "name": "account",
          "type": "address"
        },
        {
          "internalType": "address",
          "name": "operator",
          "type": "address"
        }
      ],
      "name": "isApprovedForAll",
      "outputs": [
        {
          "internalType": "bool",
          "name": "",
          "type": "bool"
        }
      ],
      "stateMutability": "view",
      "type": "function"
    },
    {
      "inputs": [],
      "name": "metaDataUri",
      "outputs": [
        {
          "internalType": "string",
          "name": "",
          "type": "string"
        }
      ],
      "stateMutability": "view",
      "type": "function"
    },
    {
      "inputs": [
        {
          "internalType": "address",
          "name": "to",
          "type": "address"
        },
        {
          "internalType": "uint256",
          "name": "amount",
          "type": "uint256"
        },
        {
          "internalType": "string",
          "name": "tokenUri",
          "type": "string"
        },
        {
          "internalType": "address",
          "name": "borrower",
          "type": "address"
        },
        {
          "internalType": "address",
          "name": "originator",
          "type": "address"
        },
        {
          "internalType": "address",
          "name": "fundPool",
          "type": "address"
        },
        {
          "internalType": "uint256",
          "name": "interestRate",
          "type": "uint256"
        },
        {
          "internalType": "uint256",
          "name": "principal",
          "type": "uint256"
        },
        {
          "internalType": "uint256",
          "name": "startDate",
          "type": "uint256"
        },
        {
          "internalType": "uint256",
          "name": "maturityDate",
          "type": "uint256"
        },
        {
          "internalType": "bytes",
          "name": "data",
          "type": "bytes"
        }
      ],
      "name": "mint",
      "outputs": [
        {
          "internalType": "uint256",
          "name": "",
          "type": "uint256"
        }
      ],
      "stateMutability": "nonpayable",
      "type": "function"
    },
    {
      "inputs": [
        {
          "internalType": "bytes32",
          "name": "role",
          "type": "bytes32"
        },
        {
          "internalType": "address",
          "name": "account",
          "type": "address"
        }
      ],
      "name": "renounceRole",
      "outputs": [],
      "stateMutability": "nonpayable",
      "type": "function"
    },
    {
      "inputs": [
        {
          "internalType": "bytes32",
          "name": "role",
          "type": "bytes32"
        },
        {
          "internalType": "address",
          "name": "account",
          "type": "address"
        }
      ],
      "name": "revokeRole",
      "outputs": [],
      "stateMutability": "nonpayable",
      "type": "function"
    },
    {
      "inputs": [
        {
          "internalType": "address",
          "name": "from",
          "type": "address"
        },
        {
          "internalType": "address",
          "name": "to",
          "type": "address"
        },
        {
          "internalType": "uint256[]",
          "name": "ids",
          "type": "uint256[]"
        },
        {
          "internalType": "uint256[]",
          "name": "amounts",
          "type": "uint256[]"
        },
        {
          "internalType": "bytes",
          "name": "data",
          "type": "bytes"
        }
      ],
      "name": "safeBatchTransferFrom",
      "outputs": [],
      "stateMutability": "nonpayable",
      "type": "function"
    },
    {
      "inputs": [
        {
          "internalType": "address",
          "name": "from",
          "type": "address"
        },
        {
          "internalType": "address",
          "name": "to",
          "type": "address"
        },
        {
          "internalType": "uint256",
          "name": "id",
          "type": "uint256"
        },
        {
          "internalType": "uint256",
          "name": "amount",
          "type": "uint256"
        },
        {
          "internalType": "bytes",
          "name": "data",
          "type": "bytes"
        }
      ],
      "name": "safeTransferFrom",
      "outputs": [],
      "stateMutability": "nonpayable",
      "type": "function"
    },
    {
      "inputs": [
        {
          "internalType": "address",
          "name": "operator",
          "type": "address"
        },
        {
          "internalType": "bool",
          "name": "approved",
          "type": "bool"
        }
      ],
      "name": "setApprovalForAll",
      "outputs": [],
      "stateMutability": "nonpayable",
      "type": "function"
    },
    {
      "inputs": [
        {
          "internalType": "bytes4",
          "name": "interfaceId",
          "type": "bytes4"
        }
      ],
      "name": "supportsInterface",
      "outputs": [
        {
          "internalType": "bool",
          "name": "",
          "type": "bool"
        }
      ],
      "stateMutability": "view",
      "type": "function"
    },
    {
      "inputs": [],
      "name": "tokenName",
      "outputs": [
        {
          "internalType": "string",
          "name": "",
          "type": "string"
        }
      ],
      "stateMutability": "view",
      "type": "function"
    },
    {
      "inputs": [],
      "name": "tokenSymbol",
      "outputs": [
        {
          "internalType": "string",
          "name": "",
          "type": "string"
        }
      ],
      "stateMutability": "view",
      "type": "function"
    },
    {
      "inputs": [
        {
          "internalType": "uint256",
          "name": "tokenId",
          "type": "uint256"
        }
      ],
      "name": "uri",
      "outputs": [
        {
          "internalType": "string",
          "name": "",
          "type": "string"
        }
      ],
      "stateMutability": "view",
      "type": "function"
    }
  ],
  "bytecode": "0x608080604052346100c2576000549060ff8260081c16610070575060ff80821603610035575b604051612e3a9081620000c88239f35b60ff90811916176000557f7f26b83ff96e1f2b6a682f133852f6798a09c465da95921460cefb3847402498602060405160ff8152a138610025565b62461bcd60e51b815260206004820152602760248201527f496e697469616c697a61626c653a20636f6e747261637420697320696e697469604482015266616c697a696e6760c81b6064820152608490fd5b600080fdfe6080604052600436101561001257600080fd5b60003560e01c8062fdd58e146121d457806301ffc9a71461214c5780630e89341c1461212d578063248a9ca3146120fe578063282c51f3146120c35780632e6400241461188a5780632eb2c2d61461157c5780632f2ff15d146114c957806336568abe146114375780634e1273f41461129957806363ca7cef146111cb5780636c02a931146111a7578063749388c414610e145780637b61c32014610de55780638c05ba21146105ec57806391d148541461059f578063a217fddf14610583578063a22cb4651461049f578063d539139314610464578063d547741f14610425578063e985e9c5146103cf5763f242432a1461010d57600080fd5b346103ca5760a03660031901126103ca57610126612203565b61012e61222f565b906064356044356084356001600160401b0381116103ca576101549036906004016122ff565b6001600160a01b039384169333851480156103a1575b6101739061281f565b8516610180811515612882565b61018983612a40565b5061019384612a40565b5082600052602095606587526040600020866000528752846040600020546101bd828210156128dc565b85600052606589526040600020886000528952036040600020558360005260658752604060002082600052875260406000206101fa86825461293b565b90558186604051868152878a8201527fc3d58168c5ae7397731d063d5bbf3d657854427343f4c083240f7aacaa2d0f6260403392a43b61023657005b61027a93600087946040519687958694859363f23a6e6160e01b9b8c865233600487015260248601526044850152606484015260a0608484015260a4830190612268565b03925af160009181610372575b506103475750506001906102996129b1565b6308c379a014610312575b506102ac575b005b60405162461bcd60e51b815260206004820152603460248201527f455243313135353a207472616e7366657220746f206e6f6e2d455243313135356044820152732932b1b2b4bb32b91034b6b83632b6b2b73a32b960611b6064820152608490fd5b0390fd5b61031a6129cf565b908161032657506102a4565b61030e60405192839262461bcd60e51b845260048401526024830190612268565b6001600160e01b0319161490506102aa575b60405162461bcd60e51b81528061030e60048201612968565b610393919250843d861161039a575b61038b81836122de565b810190612948565b9038610287565b503d610381565b5084600052606660205260406000203360005260205261017360ff60406000205416905061016a565b600080fd5b346103ca5760403660031901126103ca576103e8612203565b6103f061222f565b9060018060a01b03809116600052606660205260406000209116600052602052602060ff604060002054166040519015158152f35b346103ca5760403660031901126103ca576102aa60043561044461222f565b908060005260c960205261045f60016040600020015461254d565b612701565b346103ca5760003660031901126103ca5760206040517f9f2df0fed2c77648de5860a4cc508cd0818c85b8b8a1ab4ceeef8d981c8956a68152f35b346103ca5760403660031901126103ca576104b8612203565b602435908115158092036103ca576001600160a01b03169033821461052c57336000526066602052604060002082600052602052604060002060ff1981541660ff83161790556040519081527f17307eab39ab6107e8899845ad3d59bd9653f200f220920489ca2b5937696c3160203392a3005b60405162461bcd60e51b815260206004820152602960248201527f455243313135353a2073657474696e6720617070726f76616c20737461747573604482015268103337b91039b2b63360b91b6064820152608490fd5b346103ca5760003660031901126103ca57602060405160008152f35b346103ca5760403660031901126103ca576105b861222f565b60043560005260c960205260406000209060018060a01b0316600052602052602060ff604060002054166040519015158152f35b346103ca576101603660031901126103ca57610606612203565b6044356001600160401b0381116103ca576106259036906004016122ff565b606435916001600160a01b03831683036103ca57610641612219565b60a435939092906001600160a01b03851685036103ca57610144356001600160401b0381116103ca576106789036906004016122ff565b3360009081527f51111423f5e835a1e334a686a7d9f998a65310f720d529827b76c12f396de48260205260409020549094907f9f2df0fed2c77648de5860a4cc508cd0818c85b8b8a1ab4ceeef8d981c8956a69060ff1615610c3e575060008061072b6107396040516106ea816122a8565b601081526f131bd85b88135a5b9d0818d85b1b195960821b602082015260405192839163104c13eb60e21b6020840152602060248401526044830190612268565b03601f1981018352826122de565b6020815191016a636f6e736f6c652e6c6f675afa5060fb54956001870160fb55866000526098602052604060002084516001600160401b038111610c2857889561078383546123fe565b601f8111610beb575b50602090601f8311600114610b5757918060e09694927f5b88212480e6e6706f77ecd2a3c6789da386170c1dc9c176512bc3509f4b1ac5989694600092610b4c575b50508160011b916000199060031b1c19161790555b857f6bb7ff708619ba0610cba295a58592e0451dee2622938c8755667688daf3529b61082561081183612a65565b604051918291602083526020830190612268565b0390a28560005260ff60205260406000206bffffffffffffffffffffffff60a01b9060018060a01b0385168282541617905561010060205260406000209260018060a01b031692838282541617905561010160205260406000209060018060a01b0383169082541617905561010260205260c4358060406000205561010360205260e4359081604060002055610104806020523592836040600020556101056020526101243594856040600020556040519660018060a01b03168752602087015260018060a01b031660408601526060850152608084015260a083015260c0820152a261091183612a65565b9160018060a01b03821691827f114dad25cbfeaaaf3271eae94908324589f5e978c2ae29180df8476e4d5650106109736040519660a0885261096561095860a08a01612422565b89810360208b01526124c6565b9088820360408a0152612268565b9587606082015280602435978860808301520390a28215610afd5761099785612a40565b506109a184612a40565b5084600052606560205260406000208360005260205260406000206109c785825461293b565b90558260006040518781528660208201527fc3d58168c5ae7397731d063d5bbf3d657854427343f4c083240f7aacaa2d0f6260403392a43b610a0f575b602084604051908152f35b610a5560009260209260405194858094819363f23a6e6160e01b998a84523360048501528460248501528b6044850152606484015260a0608484015260a4830190612268565b03925af160009181610adc575b50610ac55750506001610a736129b1565b6308c379a014610a8e575b6102ac576020905b908280610a04565b610a966129cf565b80610aa15750610a7e565b60405162461bcd60e51b81526020600482015290819061030e906024830190612268565b6001600160e01b0319160361035957602090610a86565b610af691925060203d60201161039a5761038b81836122de565b9084610a62565b60405162461bcd60e51b815260206004820152602160248201527f455243313135353a206d696e7420746f20746865207a65726f206164647265736044820152607360f81b6064820152608490fd5b015190508c806107ce565b908360005260206000209160005b601f1985168110610bd057509260e09694926001927f5b88212480e6e6706f77ecd2a3c6789da386170c1dc9c176512bc3509f4b1ac599979583601f19811610610bb7575b505050811b0190556107e3565b015160001960f88460031b161c191690558c8080610baa565b8183015184558c995060019093019260209283019201610b65565b610c1890846000526020600020601f850160051c81019160208610610c1e575b601f0160051c0190612d6d565b8a61078c565b9091508190610c0b565b634e487b7160e01b600052604160045260246000fd5b610c4733612ca3565b60405191610c54836122c3565b6042835260208301906060368337835115610dcf57603082538351600190811015610dcf57607860218601536041905b808211610d75575050610d31576048610d0292610d119261030e9560405195869376020b1b1b2b9b9a1b7b73a3937b61d1030b1b1b7bab73a1604d1b6020860152610cd9815180926020603789019101612245565b8401917001034b99036b4b9b9b4b733903937b6329607d1b603784015251809386840190612245565b010360288101845201826122de565b60405162461bcd60e51b8152602060048201529182916024830190612268565b606460405162461bcd60e51b815260206004820152602060248201527f537472696e67733a20686578206c656e67746820696e73756666696369656e746044820152fd5b9091600f81166010811015610dcf576f181899199a1a9b1b9c1cb0b131b232b360811b901a610da48488612c92565b5360041c918015610db9576000190190610c84565b634e487b7160e01b600052601160045260246000fd5b634e487b7160e01b600052603260045260246000fd5b346103ca5760003660031901126103ca57610e1060405161081181610e09816124c6565b03826122de565b0390f35b346103ca5760603660031901126103ca576044356001600160a01b038116906004359060248035918490036103ca573360009081527fa27be7c14b1df545302532e79c789c68fb54e61e371dba3646b4727cbc3c0d1d60209081526040909120549091907f3c11d16cbaffd01df69ce1c404f6340ee057498f5f00246190ea54220576a8489060ff161561101757508415610fc857610eb284612a40565b50610ebc83612a40565b506000604051610ecb8161228d565b528360005260658252604060002085600052825260406000205490838210610f795750918391816040947f49995e5dd6158cf69ad3e9777c46755a1a826a446c6416992167462dad033b2a966000526065835285600020886000528352038460002055600086855185815284848201527fc3d58168c5ae7397731d063d5bbf3d657854427343f4c083240f7aacaa2d0f62873392a460008451610f6d8161228d565b528351928352820152a2005b826084916040519162461bcd60e51b83526004830152808201527f455243313135353a206275726e20616d6f756e7420657863656564732062616c604482015263616e636560e01b6064820152fd5b9060236084926040519262461bcd60e51b845260048401528201527f455243313135353a206275726e2066726f6d20746865207a65726f206164647260448201526265737360e81b6064820152fd5b829061102233612ca3565b9060405161102f816122c3565b604281528381019160603684378151156111925760308353815160019081101561117d57607860218401536041905b80821161110f5750506110cd57604861030e93610d02936110b19360405195869376020b1b1b2b9b9a1b7b73a3937b61d1030b1b1b7bab73a1604d1b8a860152610cd9815180928c603789019101612245565b60405193849362461bcd60e51b85526004850152830190612268565b606485856040519162461bcd60e51b83528160048401528201527f537472696e67733a20686578206c656e67746820696e73756666696369656e746044820152fd5b9091600f81166010811015611168576f181899199a1a9b1b9c1cb0b131b232b360811b901a61113e8486612c92565b5360041c91801561115357600019019061105e565b87634e487b7160e01b60005260116004526000fd5b88634e487b7160e01b60005260326004526000fd5b86634e487b7160e01b60005260326004526000fd5b85634e487b7160e01b60005260326004526000fd5b346103ca5760003660031901126103ca57610e1060405161081181610e0981612422565b346103ca5760003660031901126103ca57604051600060fe546111ed816123fe565b808452906001908181169081156112725750600114611217575b610e1084610811818603826122de565b60fe600090815292507f54075df80ec1ae6ac9100e1fd0ebf3246c17f5c933137af392011f4c5f61513a5b82841061125a57505050810160200161081182611207565b80546020858701810191909152909301928101611242565b60ff191660208087019190915292151560051b850190920192506108119150839050611207565b346103ca5760403660031901126103ca576004356001600160401b038082116103ca57366023830112156103ca578160040135906112d682612355565b926112e460405194856122de565b82845260209260248486019160051b830101913683116103ca57602401905b828210611418575050506024359081116103ca5761132590369060040161236c565b82518151036113c15782519261133a84612355565b9361134860405195866122de565b808552611357601f1991612355565b01368486013760005b81518110156113aa576113a5906113956001600160a01b03611382838661280b565b511661138e838761280b565b5190612777565b61139f828861280b565b526127fc565b611360565b505050610e106040519282849384528301906123ca565b60405162461bcd60e51b815260048101839052602960248201527f455243313135353a206163636f756e747320616e6420696473206c656e677468604482015268040dad2e6dac2e8c6d60bb1b6064820152608490fd5b81356001600160a01b03811681036103ca578152908401908401611303565b346103ca5760403660031901126103ca5761145061222f565b336001600160a01b0382160361146c576102aa90600435612701565b60405162461bcd60e51b815260206004820152602f60248201527f416363657373436f6e74726f6c3a2063616e206f6e6c792072656e6f756e636560448201526e103937b632b9903337b91039b2b63360891b6064820152608490fd5b346103ca5760403660031901126103ca576004356114e561222f565b8160005260c96020526114ff60016040600020015461254d565b8160005260c960205260406000209060018060a01b0316908160005260205260ff604060002054161561152e57005b8160005260c96020526040600020816000526020526040600020600160ff1982541617905533917f2f8788117e7eff1d82e926ec794901d17c78024a50270940304540a733656f0d600080a4005b346103ca5760031960a0368201126103ca57611596612203565b9061159f61222f565b906001600160401b03906044358281116103ca576115c190369060040161236c565b6064358381116103ca576115d990369060040161236c565b926084359081116103ca576115f29036906004016122ff565b6001600160a01b03958616959092903387148015611861575b6116149061281f565b825185510361180b5785169261162b841515612882565b60005b83518110156116c357806116456116be928661280b565b51611650828961280b565b519080600052606560209181835260406000208d6000528352838d6040600020549061167e838310156128dc565b83600052848652604060002090600052855203604060002055600052815260406000209088600052526116b7604060002091825461293b565b90556127fc565b61162e565b509094939291938287604051604081527f4a39dc06d4c0dbc64b70af90fd698a233a518aa5d07e595d983b8c0526c8f7fb611701604083018a6123ca565b9180830360208201528061171633948b6123ca565b0390a43b61172057005b60006020946117816117729761176294604051998a988997889663bc197c8160e01b9e8f89523360048a0152602489015260a0604489015260a48801906123ca565b90848783030160648801526123ca565b91848303016084850152612268565b03925af1600091816117eb575b506117c3575050600161179f6129b1565b6308c379a0146117b0575b6102ac57005b6117b86129cf565b80610aa157506117aa565b6001600160e01b031916146102aa5760405162461bcd60e51b81528061030e60048201612968565b61180491925060203d811161039a5761038b81836122de565b908361178e565b60405162461bcd60e51b815260206004820152602860248201527f455243313135353a2069647320616e6420616d6f756e7473206c656e677468206044820152670dad2e6dac2e8c6d60c31b6064820152608490fd5b5086600052606660205260406000203360005260205261161460ff60406000205416905061160b565b346103ca5760a03660031901126103ca576004356001600160401b0381116103ca576118ba9036906004016122ff565b6024356001600160401b0381116103ca576118d99036906004016122ff565b906044356001600160401b0381116103ca576118f99036906004016122ff565b906064356001600160401b0381116103ca576119199036906004016122ff565b92611922612219565b906000549260ff8460081c1615938480956120b6575b801561209f575b156120435760ff19811660011760005584612031575b508051906001600160401b038211610c2857819061197460fc546123fe565b601f8111611fe2575b50602090601f8311600114611f5c57600092611f51575b50508160011b916000199060031b1c19161760fc555b8051906001600160401b038211610c285781906119c860fd546123fe565b601f8111611f02575b50602090601f8311600114611e7857600092611e6d575b50508160011b916000199060031b1c19161760fd555b83516001600160401b038111610c2857611a1960fe546123fe565b601f8111611e1e575b506020601f8211600114611d97578192939495600092611d8c575b50508160011b916000199060031b1c19161760fe555b611a7660ff60005460081c16611a6881612d84565b611a7181612d84565b612d84565b6097611a8281546123fe565b601f8111611d55575b506000815583516001600160401b038111610c2857600080611d4b565b6020821014611d3557601f8111611cf9575b50602094601f8211600114611c8957948192939495600092611c7e575b50508160011b916000199060031b1c19161790555b6001600160a01b031660008181527f81fe90a866a48a634a12852c1be675b683a22307409932a7443b8029347be756602052604090205460ff1615611c19575b60008181527f51111423f5e835a1e334a686a7d9f998a65310f720d529827b76c12f396de48260205260409020547f9f2df0fed2c77648de5860a4cc508cd0818c85b8b8a1ab4ceeef8d981c8956a6919060ff1615611bc6575b5050611b8e57005b61ff0019600054166000557f7f26b83ff96e1f2b6a682f133852f6798a09c465da95921460cefb3847402498602060405160018152a1005b8160005260c96020526040600020816000526020526040600020600160ff1982541617905533917f2f8788117e7eff1d82e926ec794901d17c78024a50270940304540a733656f0d600080a48180611b86565b60008181527f81fe90a866a48a634a12852c1be675b683a22307409932a7443b8029347be75660205260408120805460ff19166001179055339082907f2f8788117e7eff1d82e926ec794901d17c78024a50270940304540a733656f0d8180a4611b2c565b015190508580611ad7565b601f1982169583600052600080516020612de58339815191529160005b888110611ce157508360019596979810611cc8575b505050811b019055611aec565b015160001960f88460031b161c19169055858080611cbb565b91926020600181928685015181550194019201611ca6565b611d2f9083600052600080516020612de5833981519152601f840160051c81019160208510610c1e57601f0160051c0190612d6d565b85611aba565b634e487b7160e01b600052602260045260246000fd5b90607f1690611aa8565b81600052601f600080516020612de5833981519152910160051c8101905b818110611d805750611a8b565b60008155600101611d73565b015190508580611a3d565b60fe6000527f54075df80ec1ae6ac9100e1fd0ebf3246c17f5c933137af392011f4c5f61513a9060005b601f1984168110611e06575060019394959683601f19811610611ded575b505050811b0160fe55611a53565b015160001960f88460031b161c19169055858080611ddf565b9091602060018192858b015181550193019101611dc1565b611e679060fe6000527f54075df80ec1ae6ac9100e1fd0ebf3246c17f5c933137af392011f4c5f61513a601f840160051c81019160208510610c1e57601f0160051c0190612d6d565b85611a22565b0151905086806119e8565b925060fd6000527f9346ac6dd7de6b96975fec380d4d994c4c12e6a8897544f22915316cc6cca280906000935b601f1984168510611ee7576001945083601f19811610611ece575b505050811b0160fd556119fe565b015160001960f88460031b161c19169055868080611ec0565b81810151835560209485019460019093019290910190611ea5565b611f4b9060fd6000527f9346ac6dd7de6b96975fec380d4d994c4c12e6a8897544f22915316cc6cca280601f850160051c81019160208610610c1e57601f0160051c0190612d6d565b876119d1565b015190508780611994565b60fc60009081527f371f36870d18f32a11fea0f144b021c8b407bb50f8e0267c711123f454b963c09350601f198516905b818110611fca5750908460019594939210611fb1575b505050811b0160fc556119aa565b015160001960f88460031b161c19169055878080611fa3565b92936020600181928786015181550195019301611f8d565b61202b9060fc6000527f371f36870d18f32a11fea0f144b021c8b407bb50f8e0267c711123f454b963c0601f850160051c81019160208610610c1e57601f0160051c0190612d6d565b8861197d565b61ffff19166101011760005586611955565b60405162461bcd60e51b815260206004820152602e60248201527f496e697469616c697a61626c653a20636f6e747261637420697320616c72656160448201526d191e481a5b9a5d1a585b1a5e995960921b6064820152608490fd5b50303b15801561193f5750600160ff82161461193f565b50600160ff821610611938565b346103ca5760003660031901126103ca5760206040517f3c11d16cbaffd01df69ce1c404f6340ee057498f5f00246190ea54220576a8488152f35b346103ca5760203660031901126103ca5760043560005260c96020526020600160406000200154604051908152f35b346103ca5760203660031901126103ca57610e10610811600435612a65565b346103ca5760203660031901126103ca5760043563ffffffff60e01b81168091036103ca57602090637965db0b60e01b8114908115612191575b506040519015158152f35b636cdb3d1360e11b8114915081156121c3575b81156121b2575b5082612186565b6301ffc9a760e01b149050826121ab565b6303a24d0760e21b811491506121a4565b346103ca5760403660031901126103ca5760206121fb6121f2612203565b60243590612777565b604051908152f35b600435906001600160a01b03821682036103ca57565b608435906001600160a01b03821682036103ca57565b602435906001600160a01b03821682036103ca57565b60005b8381106122585750506000910152565b8181015183820152602001612248565b9060209161228181518092818552858086019101612245565b601f01601f1916010190565b602081019081106001600160401b03821117610c2857604052565b604081019081106001600160401b03821117610c2857604052565b608081019081106001600160401b03821117610c2857604052565b90601f801991011681019081106001600160401b03821117610c2857604052565b81601f820112156103ca578035906001600160401b038211610c285760405192612333601f8401601f1916602001856122de565b828452602083830101116103ca57816000926020809301838601378301015290565b6001600160401b038111610c285760051b60200190565b81601f820112156103ca5780359161238383612355565b9261239160405194856122de565b808452602092838086019260051b8201019283116103ca578301905b8282106123bb575050505090565b813581529083019083016123ad565b90815180825260208080930193019160005b8281106123ea575050505090565b8351855293810193928101926001016123dc565b90600182811c92168015612418575b6020831014611d3557565b91607f169161240d565b60fc5460009291612432826123fe565b808252916001908181169081156124a9575060011461245057505050565b9192935060fc6000527f371f36870d18f32a11fea0f144b021c8b407bb50f8e0267c711123f454b963c0916000925b84841061249157505060209250010190565b8054602085850181019190915290930192810161247f565b915050602093945060ff929192191683830152151560051b010190565b60fd54600092916124d6826123fe565b808252916001908181169081156124a957506001146124f457505050565b9192935060fd6000527f9346ac6dd7de6b96975fec380d4d994c4c12e6a8897544f22915316cc6cca280916000925b84841061253557505060209250010190565b80546020858501810191909152909301928101612523565b60009080825260209060c98252604092838120338252835260ff8482205416156125775750505050565b61258033612ca3565b9184519061258d826122c3565b604282528482019260603685378251156126ed57603084538251906001918210156126ed5790607860218501536041915b81831161267f5750505061263d57604861030e93869361262193612612985198899376020b1b1b2b9b9a1b7b73a3937b61d1030b1b1b7bab73a1604d1b8a860152610cd9815180928c603789019101612245565b010360288101875201856122de565b5192839262461bcd60e51b845260048401526024830190612268565b60648486519062461bcd60e51b825280600483015260248201527f537472696e67733a20686578206c656e67746820696e73756666696369656e746044820152fd5b909192600f811660108110156126d9576f181899199a1a9b1b9c1cb0b131b232b360811b901a6126af8587612c92565b5360041c9280156126c5576000190191906125be565b634e487b7160e01b82526011600452602482fd5b634e487b7160e01b83526032600452602483fd5b634e487b7160e01b81526032600452602490fd5b9060009180835260c9602052604083209160018060a01b03169182845260205260ff60408420541661273257505050565b80835260c9602052604083208284526020526040832060ff1981541690557ff6391f5c32d9c69d2a47ea670b442974b53935d1edc7fd64eb21e047a839171b339380a4565b6001600160a01b03169081156127a457600052606560205260406000209060005260205260406000205490565b60405162461bcd60e51b815260206004820152602a60248201527f455243313135353a2061646472657373207a65726f206973206e6f742061207660448201526930b634b21037bbb732b960b11b6064820152608490fd5b6000198114610db95760010190565b8051821015610dcf5760209160051b010190565b1561282657565b60405162461bcd60e51b815260206004820152602e60248201527f455243313135353a2063616c6c6572206973206e6f7420746f6b656e206f776e60448201526d195c881bdc88185c1c1c9bdd995960921b6064820152608490fd5b1561288957565b60405162461bcd60e51b815260206004820152602560248201527f455243313135353a207472616e7366657220746f20746865207a65726f206164604482015264647265737360d81b6064820152608490fd5b156128e357565b60405162461bcd60e51b815260206004820152602a60248201527f455243313135353a20696e73756666696369656e742062616c616e636520666f60448201526939103a3930b739b332b960b11b6064820152608490fd5b91908201809211610db957565b908160209103126103ca57516001600160e01b0319811681036103ca5790565b60809060208152602860208201527f455243313135353a204552433131353552656365697665722072656a656374656040820152676420746f6b656e7360c01b60608201520190565b60009060033d116129be57565b905060046000803e60005160e01c90565b600060443d10612a2c57604051600319913d83016004833e81516001600160401b03918282113d602484011117612a2f57818401948551938411612a37573d85010160208487010111612a2f5750612a2c929101602001906122de565b90565b949350505050565b50949350505050565b60405190612a4d826122a8565b60018252602082016020368237825115610dcf575290565b600090815260209060988252604081209060405190809183549281612a89856123fe565b9182825287820196600196898882169182600014612c74575050600114612c36575b50612ab8925003826122de565b805115612b7b576040519485938360975491612ad3836123fe565b92818116908115612b5a5750600114612b0c575b50505050612afd612a2c94839251938491612245565b0103601f1981018352826122de565b90919296945060978252600080516020612de58339815191525b838310612b4457505050612a2c94612afd9185010192943880612ae7565b8054898401890152889650918701918101612b26565b60ff191688860152505050801515028401019150612afd612a2c3880612ae7565b5060405160675490949350849282612b92836123fe565b80865292828116908115612c145750600114612bb8575b505050612a2c925003826122de565b606781527f9787eeb91fe3101235e4a76063c7023ecb40f923f97916639c598592fa30d6ae95935091905b818310612bfc575050612a2c9350820101388080612ba9565b85548784018501529485019486945091830191612be3565b92505050612a2c94925060ff191682840152151560051b820101388080612ba9565b915050835281868085208686915b858310612c5b575050612ab8935082010138612aab565b8091929450548385880101520191018790868593612c44565b60ff19168a52612ab895151560051b8501019250389150612aab9050565b908151811015610dcf570160200190565b60405190606082018281106001600160401b03821117610c2857604052602a8252602082016040368237825115610dcf57603090538151600190811015610dcf57607860218401536029905b808211612cff575050610d315790565b9091600f81166010811015612d58576f181899199a1a9b1b9c1cb0b131b232b360811b901a612d2e8486612c92565b5360041c918015612d43576000190190612cef565b60246000634e487b7160e01b81526011600452fd5b60246000634e487b7160e01b81526032600452fd5b818110612d78575050565b60008155600101612d6d565b15612d8b57565b60405162461bcd60e51b815260206004820152602b60248201527f496e697469616c697a61626c653a20636f6e7472616374206973206e6f74206960448201526a6e697469616c697a696e6760a81b6064820152608490fdfe354a83ed9988f79f6038d4c7a7dadbad8af32f4ad6df893e0e5807a1b1944ff9a26469706673582212207e854a7a67955681fb240bbc5af8c956a2ad28b8febc5ce69fb4e5f3e8eb52eb64736f6c63430008120033",
  "linkReferences": {},
  "deployedLinkReferences": {}
}