{
  "_format": "hh-sol-artifact-1",
  "contractName": "LoanManager",
  "sourceName": "contracts/LoanManager.sol",
  "abi": [
    {
      "anonymous": false,
      "inputs": [
        {
          "indexed": false,
          "internalType": "uint8",
          "name": "version",
          "type": "uint8"
        }
      ],
      "name": "Initialized",
      "type": "event"
    },
    {
      "anonymous": false,
      "inputs": [
        {
          "indexed": true,
          "internalType": "uint256",
          "name": "id",
          "type": "uint256"
        },
        {
          "indexed": false,
          "internalType": "address",
          "name": "borrower",
          "type": "address"
        },
        {
          "indexed": false,
          "internalType": "address",
          "name": "originator",
          "type": "address"
        },
        {
          "indexed": false,
          "internalType": "address",
          "name": "fundPool",
          "type": "address"
        },
        {
          "indexed": false,
          "internalType": "uint256",
          "name": "interestRate",
          "type": "uint256"
        },
        {
          "indexed": false,
          "internalType": "uint256",
          "name": "principal",
          "type": "uint256"
        },
        {
          "indexed": false,
          "internalType": "uint256",
          "name": "startDate",
          "type": "uint256"
        },
        {
          "indexed": false,
          "internalType": "uint256",
          "name": "maturityDate",
          "type": "uint256"
        }
      ],
      "name": "LoanIssued",
      "type": "event"
    },
    {
      "anonymous": false,
      "inputs": [
        {
          "indexed": true,
          "internalType": "bytes32",
          "name": "role",
          "type": "bytes32"
        },
        {
          "indexed": true,
          "internalType": "bytes32",
          "name": "previousAdminRole",
          "type": "bytes32"
        },
        {
          "indexed": true,
          "internalType": "bytes32",
          "name": "newAdminRole",
          "type": "bytes32"
        }
      ],
      "name": "RoleAdminChanged",
      "type": "event"
    },
    {
      "anonymous": false,
      "inputs": [
        {
          "indexed": true,
          "internalType": "bytes32",
          "name": "role",
          "type": "bytes32"
        },
        {
          "indexed": true,
          "internalType": "address",
          "name": "account",
          "type": "address"
        },
        {
          "indexed": true,
          "internalType": "address",
          "name": "sender",
          "type": "address"
        }
      ],
      "name": "RoleGranted",
      "type": "event"
    },
    {
      "anonymous": false,
      "inputs": [
        {
          "indexed": true,
          "internalType": "bytes32",
          "name": "role",
          "type": "bytes32"
        },
        {
          "indexed": true,
          "internalType": "address",
          "name": "account",
          "type": "address"
        },
        {
          "indexed": true,
          "internalType": "address",
          "name": "sender",
          "type": "address"
        }
      ],
      "name": "RoleRevoked",
      "type": "event"
    },
    {
      "inputs": [],
      "name": "DEFAULT_ADMIN_ROLE",
      "outputs": [
        {
          "internalType": "bytes32",
          "name": "",
          "type": "bytes32"
        }
      ],
      "stateMutability": "view",
      "type": "function"
    },
    {
      "inputs": [],
      "name": "ORIGINATOR_ROLE",
      "outputs": [
        {
          "internalType": "bytes32",
          "name": "",
          "type": "bytes32"
        }
      ],
      "stateMutability": "view",
      "type": "function"
    },
    {
      "inputs": [],
      "name": "_loan",
      "outputs": [
        {
          "internalType": "contract ILoan",
          "name": "",
          "type": "address"
        }
      ],
      "stateMutability": "view",
      "type": "function"
    },
    {
      "inputs": [],
      "name": "_vault",
      "outputs": [
        {
          "internalType": "contract IVault",
          "name": "",
          "type": "address"
        }
      ],
      "stateMutability": "view",
      "type": "function"
    },
    {
      "inputs": [
        {
          "internalType": "bytes32",
          "name": "role",
          "type": "bytes32"
        }
      ],
      "name": "getRoleAdmin",
      "outputs": [
        {
          "internalType": "bytes32",
          "name": "",
          "type": "bytes32"
        }
      ],
      "stateMutability": "view",
      "type": "function"
    },
    {
      "inputs": [
        {
          "internalType": "bytes32",
          "name": "role",
          "type": "bytes32"
        },
        {
          "internalType": "address",
          "name": "account",
          "type": "address"
        }
      ],
      "name": "grantRole",
      "outputs": [],
      "stateMutability": "nonpayable",
      "type": "function"
    },
    {
      "inputs": [
        {
          "internalType": "bytes32",
          "name": "role",
          "type": "bytes32"
        },
        {
          "internalType": "address",
          "name": "account",
          "type": "address"
        }
      ],
      "name": "hasRole",
      "outputs": [
        {
          "internalType": "bool",
          "name": "",
          "type": "bool"
        }
      ],
      "stateMutability": "view",
      "type": "function"
    },
    {
      "inputs": [
        {
          "internalType": "address",
          "name": "loan",
          "type": "address"
        },
        {
          "internalType": "address",
          "name": "vault",
          "type": "address"
        },
        {
          "internalType": "address",
          "name": "originator",
          "type": "address"
        }
      ],
      "name": "initialize",
      "outputs": [],
      "stateMutability": "nonpayable",
      "type": "function"
    },
    {
      "inputs": [
        {
          "internalType": "address",
          "name": "borrower",
          "type": "address"
        },
        {
          "internalType": "uint256",
          "name": "amount",
          "type": "uint256"
        },
        {
          "internalType": "string",
          "name": "tokenUri",
          "type": "string"
        },
        {
          "internalType": "uint256",
          "name": "interestRate",
          "type": "uint256"
        },
        {
          "internalType": "uint256",
          "name": "principal",
          "type": "uint256"
        },
        {
          "internalType": "uint256",
          "name": "startDate",
          "type": "uint256"
        },
        {
          "internalType": "uint256",
          "name": "maturityDate",
          "type": "uint256"
        },
        {
          "internalType": "bytes",
          "name": "data",
          "type": "bytes"
        }
      ],
      "name": "issueLoan",
      "outputs": [],
      "stateMutability": "nonpayable",
      "type": "function"
    },
    {
      "inputs": [
        {
          "internalType": "bytes32",
          "name": "role",
          "type": "bytes32"
        },
        {
          "internalType": "address",
          "name": "account",
          "type": "address"
        }
      ],
      "name": "renounceRole",
      "outputs": [],
      "stateMutability": "nonpayable",
      "type": "function"
    },
    {
      "inputs": [
        {
          "internalType": "bytes32",
          "name": "role",
          "type": "bytes32"
        },
        {
          "internalType": "address",
          "name": "account",
          "type": "address"
        }
      ],
      "name": "revokeRole",
      "outputs": [],
      "stateMutability": "nonpayable",
      "type": "function"
    },
    {
      "inputs": [
        {
          "internalType": "bytes4",
          "name": "interfaceId",
          "type": "bytes4"
        }
      ],
      "name": "supportsInterface",
      "outputs": [
        {
          "internalType": "bool",
          "name": "",
          "type": "bool"
        }
      ],
      "stateMutability": "view",
      "type": "function"
    }
  ],
  "bytecode": "0x6080806040523461001657610f44908161001c8239f35b600080fdfe608080604052600436101561001357600080fd5b600090813560e01c90816301ffc9a714610aca57508063248a9ca314610a9d5780632f2ff15d146109ee57806336568abe1461095b57806363da700b1461093257806391d14854146108e9578063a125142b146108ae578063a217fddf14610892578063af83f6901461038c578063c0c53b8b14610111578063d547741f146100d05763fd243da3146100a557600080fd5b346100cd57806003193601126100cd576098546040516001600160a01b039091168152602090f35b80fd5b50346100cd5760403660031901126100cd5761010e6004356100f0610b1f565b9080845260656020526101096001604086200154610be6565b610da6565b80f35b50346100cd5760603660031901126100cd5761012b610b35565b610133610b1f565b6001600160a01b0360443581811693929084900361038757845460ff8160081c16159485809661037a575b8015610363575b156103075760ff19828116600117885591866102f6575b5060ff875460081c161561029d5760008181527fb7083803cffc03c2ae8c949d46b1b02b6f00d47151d0c571c81a9a651d871a2960205260409020547f59abfac6520ec36a6556b2a4dd949cc40007459bcd5cd2507f1e5cc77b6bc97e929060ff161561024b575b505050816bffffffffffffffffffffffff60a01b9316836097541617609755169060985416176098556102145780f35b61ff001981541681557f7f26b83ff96e1f2b6a682f133852f6798a09c465da95921460cefb3847402498602060405160018152a180f35b826000526065602052604060002082600052602052600160406000209182541617905533917f2f8788117e7eff1d82e926ec794901d17c78024a50270940304540a733656f0d600080a43880806101e4565b60405162461bcd60e51b815260206004820152602b60248201527f496e697469616c697a61626c653a20636f6e7472616374206973206e6f74206960448201526a6e697469616c697a696e6760a81b6064820152608490fd5b61ffff19166101011787553861017c565b60405162461bcd60e51b815260206004820152602e60248201527f496e697469616c697a61626c653a20636f6e747261637420697320616c72656160448201526d191e481a5b9a5d1a585b1a5e995960921b6064820152608490fd5b50303b1580156101655750600160ff831614610165565b50600160ff83161061015e565b600080fd5b50346100cd576101003660031901126100cd576103a7610b35565b60443567ffffffffffffffff811161069f573660238201121561069f576103d8903690602481600401359101610b9f565b60e43567ffffffffffffffff811161088e573660238201121561088e57610409903690602481600401359101610b9f565b7f59abfac6520ec36a6556b2a4dd949cc40007459bcd5cd2507f1e5cc77b6bc97e80855260656020526040852033865260205260ff604086205416156106ca57506040516040810181811067ffffffffffffffff8211176106b657856020939281926040526011815270125cdcdd5948131bd85b8810d85b1b1959607a1b858201526040516104c1816104b38882019463104c13eb60e21b86528960248401526044830190610d81565b03601f198101835282610b7d565b51906a636f6e736f6c652e6c6f675afa50609754609854604051638c05ba2160e01b8152336004820152600160248201526101606044820152956001600160a01b0391821695879493909216928492899284926105769261052790610164860190610d81565b9160018060a01b0316998a606486015233608486015260a485015260643560c485015260843560e485015260a43561010485015260c43561012485015260031984830301610144850152610d81565b03925af19182156106ab578392610673575b5060985483906001600160a01b0316803b1561066f57819060446040518094819363e920b1e160e01b835287600484015260243560248401525af1801561066457610633575b5060e07fc15226101528c2a2e09fa5645dde1cc952d581e632a004d098fc95fe337ecbb29160018060a01b036098541660405191825233602083015260408201526064356060820152608435608082015260a43560a082015260c43560c0820152a280f35b67ffffffffffffffff8194929411610650576040529160e06105ce565b634e487b7160e01b82526041600452602482fd5b6040513d86823e3d90fd5b5080fd5b9091506020813d6020116106a3575b8161068f60209383610b7d565b8101031261069f57519038610588565b8280fd5b3d9150610682565b6040513d85823e3d90fd5b634e487b7160e01b86526041600452602486fd5b84906106d533610e43565b9091604051926106e484610b4b565b604284526020840191606036843784511561087a576030835384519060019182101561087a5790607860218701536041915b81831161080c575050506107c8576048610795926107a4926107c49560405195869376020b1b1b2b9b9a1b7b73a3937b61d1030b1b1b7bab73a1604d1b602086015261076c815180926020603789019101610d5e565b8401917001034b99036b4b9b9b4b733903937b6329607d1b603784015251809386840190610d5e565b01036028810184520182610b7d565b60405162461bcd60e51b8152602060048201529182916024830190610d81565b0390fd5b606460405162461bcd60e51b815260206004820152602060248201527f537472696e67733a20686578206c656e67746820696e73756666696369656e746044820152fd5b909192600f81166010811015610866576f181899199a1a9b1b9c1cb0b131b232b360811b901a61083c8589610e1c565b5360041c92801561085257600019019190610716565b634e487b7160e01b82526011600452602482fd5b634e487b7160e01b83526032600452602483fd5b634e487b7160e01b81526032600452602490fd5b8380fd5b50346100cd57806003193601126100cd57602090604051908152f35b50346100cd57806003193601126100cd5760206040517f59abfac6520ec36a6556b2a4dd949cc40007459bcd5cd2507f1e5cc77b6bc97e8152f35b50346100cd5760403660031901126100cd5760ff604060209261090a610b1f565b6004358252606585528282206001600160a01b03909116825284522054604051911615158152f35b50346100cd57806003193601126100cd576097546040516001600160a01b039091168152602090f35b50346100cd5760403660031901126100cd57610975610b1f565b336001600160a01b038216036109915761010e90600435610da6565b60405162461bcd60e51b815260206004820152602f60248201527f416363657373436f6e74726f6c3a2063616e206f6e6c792072656e6f756e636560448201526e103937b632b9903337b91039b2b63360891b6064820152608490fd5b50346100cd5760403660031901126100cd57600435610a0b610b1f565b8183526065602052610a236001604085200154610be6565b8183526065602052604083209060018060a01b03169081845260205260ff60408420541615610a50578280f35b81835260656020526040832081845260205260408320600160ff1982541617905533917f2f8788117e7eff1d82e926ec794901d17c78024a50270940304540a733656f0d8480a438808280f35b50346100cd5760203660031901126100cd5760016040602092600435815260658452200154604051908152f35b90503461066f57602036600319011261066f5760043563ffffffff60e01b811680910361069f5760209250637965db0b60e01b8114908115610b0e575b5015158152f35b6301ffc9a760e01b14905038610b07565b602435906001600160a01b038216820361038757565b600435906001600160a01b038216820361038757565b6080810190811067ffffffffffffffff821117610b6757604052565b634e487b7160e01b600052604160045260246000fd5b90601f8019910116810190811067ffffffffffffffff821117610b6757604052565b92919267ffffffffffffffff8211610b675760405191610bc9601f8201601f191660200184610b7d565b829481845281830111610387578281602093846000960137010152565b60009080825260209060658252604092838120338252835260ff848220541615610c105750505050565b610c1933610e43565b91845190610c2682610b4b565b6042825284820192606036853782511561087a576030845382519060019182101561087a5790607860218501536041915b818311610d1857505050610cd65760486107c4938693610cba93610cab985198899376020b1b1b2b9b9a1b7b73a3937b61d1030b1b1b7bab73a1604d1b8a86015261076c815180928c603789019101610d5e565b01036028810187520185610b7d565b5192839262461bcd60e51b845260048401526024830190610d81565b60648486519062461bcd60e51b825280600483015260248201527f537472696e67733a20686578206c656e67746820696e73756666696369656e746044820152fd5b909192600f81166010811015610866576f181899199a1a9b1b9c1cb0b131b232b360811b901a610d488587610e1c565b5360041c92801561085257600019019190610c57565b60005b838110610d715750506000910152565b8181015183820152602001610d61565b90602091610d9a81518092818552858086019101610d5e565b601f01601f1916010190565b906000918083526065602052604083209160018060a01b03169182845260205260ff604084205416610dd757505050565b8083526065602052604083208284526020526040832060ff1981541690557ff6391f5c32d9c69d2a47ea670b442974b53935d1edc7fd64eb21e047a839171b339380a4565b908151811015610e2d570160200190565b634e487b7160e01b600052603260045260246000fd5b604051906060820182811067ffffffffffffffff821117610b6757604052602a8252602082016040368237825115610e2d57603090538151600190811015610e2d57607860218401536029905b808211610ea05750506107c85790565b9091600f81166010811015610ef9576f181899199a1a9b1b9c1cb0b131b232b360811b901a610ecf8486610e1c565b5360041c918015610ee4576000190190610e90565b60246000634e487b7160e01b81526011600452fd5b60246000634e487b7160e01b81526032600452fdfea2646970667358221220ea758a3f8fc45d3625959f63129cd746dd3b1c7e14cb93b00a5be610678c501164736f6c63430008120033",
  "linkReferences": {},
  "deployedLinkReferences": {}
}