{
  "_format": "hh-sol-artifact-1",
  "contractName": "LoanManager",
  "sourceName": "contracts/LoanManager.sol",
  "abi": [
    {
      "anonymous": false,
      "inputs": [
        {
          "indexed": true,
          "internalType": "uint256",
          "name": "id",
          "type": "uint256"
        },
        {
          "indexed": false,
          "internalType": "address",
          "name": "borrower",
          "type": "address"
        },
        {
          "indexed": false,
          "internalType": "address",
          "name": "originator",
          "type": "address"
        },
        {
          "indexed": false,
          "internalType": "address",
          "name": "fundPool",
          "type": "address"
        },
        {
          "indexed": false,
          "internalType": "uint256",
          "name": "amount",
          "type": "uint256"
        }
      ],
      "name": "DrawdownFunded",
      "type": "event"
    },
    {
      "anonymous": false,
      "inputs": [
        {
          "indexed": false,
          "internalType": "uint8",
          "name": "version",
          "type": "uint8"
        }
      ],
      "name": "Initialized",
      "type": "event"
    },
    {
      "anonymous": false,
      "inputs": [
        {
          "indexed": true,
          "internalType": "uint256",
          "name": "id",
          "type": "uint256"
        },
        {
          "indexed": false,
          "internalType": "address",
          "name": "borrower",
          "type": "address"
        },
        {
          "indexed": false,
          "internalType": "address",
          "name": "originator",
          "type": "address"
        },
        {
          "indexed": false,
          "internalType": "address",
          "name": "fundPool",
          "type": "address"
        },
        {
          "indexed": false,
          "internalType": "uint256",
          "name": "interestRate",
          "type": "uint256"
        },
        {
          "indexed": false,
          "internalType": "uint256",
          "name": "principal",
          "type": "uint256"
        },
        {
          "indexed": false,
          "internalType": "uint256",
          "name": "startDate",
          "type": "uint256"
        },
        {
          "indexed": false,
          "internalType": "uint256",
          "name": "maturityDate",
          "type": "uint256"
        }
      ],
      "name": "LoanIssued",
      "type": "event"
    },
    {
      "anonymous": false,
      "inputs": [
        {
          "indexed": true,
          "internalType": "bytes32",
          "name": "role",
          "type": "bytes32"
        },
        {
          "indexed": true,
          "internalType": "bytes32",
          "name": "previousAdminRole",
          "type": "bytes32"
        },
        {
          "indexed": true,
          "internalType": "bytes32",
          "name": "newAdminRole",
          "type": "bytes32"
        }
      ],
      "name": "RoleAdminChanged",
      "type": "event"
    },
    {
      "anonymous": false,
      "inputs": [
        {
          "indexed": true,
          "internalType": "bytes32",
          "name": "role",
          "type": "bytes32"
        },
        {
          "indexed": true,
          "internalType": "address",
          "name": "account",
          "type": "address"
        },
        {
          "indexed": true,
          "internalType": "address",
          "name": "sender",
          "type": "address"
        }
      ],
      "name": "RoleGranted",
      "type": "event"
    },
    {
      "anonymous": false,
      "inputs": [
        {
          "indexed": true,
          "internalType": "bytes32",
          "name": "role",
          "type": "bytes32"
        },
        {
          "indexed": true,
          "internalType": "address",
          "name": "account",
          "type": "address"
        },
        {
          "indexed": true,
          "internalType": "address",
          "name": "sender",
          "type": "address"
        }
      ],
      "name": "RoleRevoked",
      "type": "event"
    },
    {
      "inputs": [],
      "name": "DEFAULT_ADMIN_ROLE",
      "outputs": [
        {
          "internalType": "bytes32",
          "name": "",
          "type": "bytes32"
        }
      ],
      "stateMutability": "view",
      "type": "function"
    },
    {
      "inputs": [],
      "name": "ORIGINATOR_ROLE",
      "outputs": [
        {
          "internalType": "bytes32",
          "name": "",
          "type": "bytes32"
        }
      ],
      "stateMutability": "view",
      "type": "function"
    },
    {
      "inputs": [],
      "name": "_loan",
      "outputs": [
        {
          "internalType": "contract ILoan",
          "name": "",
          "type": "address"
        }
      ],
      "stateMutability": "view",
      "type": "function"
    },
    {
      "inputs": [],
      "name": "_vault",
      "outputs": [
        {
          "internalType": "contract IVault",
          "name": "",
          "type": "address"
        }
      ],
      "stateMutability": "view",
      "type": "function"
    },
    {
      "inputs": [
        {
          "internalType": "uint256",
          "name": "tokenId",
          "type": "uint256"
        },
        {
          "internalType": "address",
          "name": "borrower",
          "type": "address"
        },
        {
          "internalType": "uint256",
          "name": "amount",
          "type": "uint256"
        }
      ],
      "name": "fundDrawdown",
      "outputs": [],
      "stateMutability": "nonpayable",
      "type": "function"
    },
    {
      "inputs": [
        {
          "internalType": "bytes32",
          "name": "role",
          "type": "bytes32"
        }
      ],
      "name": "getRoleAdmin",
      "outputs": [
        {
          "internalType": "bytes32",
          "name": "",
          "type": "bytes32"
        }
      ],
      "stateMutability": "view",
      "type": "function"
    },
    {
      "inputs": [
        {
          "internalType": "bytes32",
          "name": "role",
          "type": "bytes32"
        },
        {
          "internalType": "address",
          "name": "account",
          "type": "address"
        }
      ],
      "name": "grantRole",
      "outputs": [],
      "stateMutability": "nonpayable",
      "type": "function"
    },
    {
      "inputs": [
        {
          "internalType": "bytes32",
          "name": "role",
          "type": "bytes32"
        },
        {
          "internalType": "address",
          "name": "account",
          "type": "address"
        }
      ],
      "name": "hasRole",
      "outputs": [
        {
          "internalType": "bool",
          "name": "",
          "type": "bool"
        }
      ],
      "stateMutability": "view",
      "type": "function"
    },
    {
      "inputs": [
        {
          "internalType": "address",
          "name": "loan",
          "type": "address"
        },
        {
          "internalType": "address",
          "name": "vault",
          "type": "address"
        },
        {
          "internalType": "address",
          "name": "originator",
          "type": "address"
        }
      ],
      "name": "initialize",
      "outputs": [],
      "stateMutability": "nonpayable",
      "type": "function"
    },
    {
      "inputs": [
        {
          "internalType": "address",
          "name": "borrower",
          "type": "address"
        },
        {
          "internalType": "string",
          "name": "tokenUri",
          "type": "string"
        },
        {
          "internalType": "uint256",
          "name": "interestRate",
          "type": "uint256"
        },
        {
          "internalType": "uint256",
          "name": "principal",
          "type": "uint256"
        },
        {
          "internalType": "uint256",
          "name": "startDate",
          "type": "uint256"
        },
        {
          "internalType": "uint256",
          "name": "maturityDate",
          "type": "uint256"
        },
        {
          "internalType": "bytes",
          "name": "data",
          "type": "bytes"
        }
      ],
      "name": "issueLoan",
      "outputs": [],
      "stateMutability": "nonpayable",
      "type": "function"
    },
    {
      "inputs": [
        {
          "internalType": "bytes32",
          "name": "role",
          "type": "bytes32"
        },
        {
          "internalType": "address",
          "name": "account",
          "type": "address"
        }
      ],
      "name": "renounceRole",
      "outputs": [],
      "stateMutability": "nonpayable",
      "type": "function"
    },
    {
      "inputs": [
        {
          "internalType": "bytes32",
          "name": "role",
          "type": "bytes32"
        },
        {
          "internalType": "address",
          "name": "account",
          "type": "address"
        }
      ],
      "name": "revokeRole",
      "outputs": [],
      "stateMutability": "nonpayable",
      "type": "function"
    },
    {
      "inputs": [
        {
          "internalType": "bytes4",
          "name": "interfaceId",
          "type": "bytes4"
        }
      ],
      "name": "supportsInterface",
      "outputs": [
        {
          "internalType": "bool",
          "name": "",
          "type": "bool"
        }
      ],
      "stateMutability": "view",
      "type": "function"
    }
  ],
  "bytecode": "0x6080806040523461001657610f54908161001c8239f35b600080fdfe608060408181526004918236101561001657600080fd5b600092833560e01c91826301ffc9a7146108d6575081630306b8cb146106f2578163248a9ca3146106c75781632f2ff15d1461061a57816336568abe1461058857816363da700b1461055f57816391d1485414610518578163a125142b146104dd578163a217fddf146104c2578163ba48015214610383578163c0c53b8b14610122578163d547741f146100df575063fd243da3146100b457600080fd5b346100db57816003193601126100db5760985490516001600160a01b039091168152602090f35b5080fd5b9190503461011e578060031936011261011e5761011b9135610116600161010461093f565b93838752606560205286200154610c1f565b610d72565b80f35b8280fd5b90503461011e57606036600319011261011e5761013d610929565b61014561093f565b6001600160a01b03906044358281169081900361037e5786549060ff8260081c161595868097610371575b801561035a575b156103005760ff198381166001178a5592876102ef575b5060ff895460081c161561029857507f59abfac6520ec36a6556b2a4dd949cc40007459bcd5cd2507f1e5cc77b6bc97e91826000526065602052876000208260005260205260ff88600020541615610248575b505050816bffffffffffffffffffffffff60a01b931683609754161760975516906098541617609855610212575080f35b60207f7f26b83ff96e1f2b6a682f133852f6798a09c465da95921460cefb38474024989161ff001984541684555160018152a180f35b82600052606560205287600020826000526020526001886000209182541617905533917f2f8788117e7eff1d82e926ec794901d17c78024a50270940304540a733656f0d600080a43880806101e1565b608490602089519162461bcd60e51b8352820152602b60248201527f496e697469616c697a61626c653a20636f6e7472616374206973206e6f74206960448201526a6e697469616c697a696e6760a81b6064820152fd5b61ffff19166101011789553861018e565b608490602089519162461bcd60e51b8352820152602e60248201527f496e697469616c697a61626c653a20636f6e747261637420697320616c72656160448201526d191e481a5b9a5d1a585b1a5e995960921b6064820152fd5b50303b1580156101775750600160ff841614610177565b50600160ff841610610170565b600080fd5b9190503461011e57606036600319011261011e578135916103a261093f565b604435906103ae610a04565b6097546001600160a01b03919087908316803b156100db5781906064885180948193631d24e23160e21b83528c8b8401528960248401523360448401525af180156104b8576104a5575b508690826098541690813b1561011e578360448492838a51958694859363e920b1e160e01b855216809b8401528960248401525af1801561049b5761047d575b5050907f8900ae5a3aff77be233189b02b65584801a4403acf2f7a1d8af1dd10efc8889f9360809392609854169080519384523360208501528301526060820152a280f35b61048a9094939294610955565b6104975790918538610438565b8580fd5b86513d84823e3d90fd5b6104b190979197610955565b95386103f8565b86513d8a823e3d90fd5b5050346100db57816003193601126100db5751908152602090f35b5050346100db57816003193601126100db57602090517f59abfac6520ec36a6556b2a4dd949cc40007459bcd5cd2507f1e5cc77b6bc97e8152f35b90503461011e578160031936011261011e578160209360ff9261053961093f565b90358252606586528282206001600160a01b039091168252855220549151911615158152f35b5050346100db57816003193601126100db5760975490516001600160a01b039091168152602090f35b839150346100db57826003193601126100db576105a361093f565b90336001600160a01b038316036105bf579061011b9135610d72565b608490602085519162461bcd60e51b8352820152602f60248201527f416363657373436f6e74726f6c3a2063616e206f6e6c792072656e6f756e636560448201526e103937b632b9903337b91039b2b63360891b6064820152fd5b90503461011e578160031936011261011e57359061063661093f565b90828452606560205261064e60018286200154610c1f565b828452606560209081528185206001600160a01b039093168086529290528084205460ff161561067c578380f35b82845260656020528084208285526020528320600160ff1982541617905533917f2f8788117e7eff1d82e926ec794901d17c78024a50270940304540a733656f0d8480a43880808380f35b90503461011e57602036600319011261011e5781602093600192358152606585522001549051908152f35b9190503461011e576003199060e0368301126108d257610710610929565b67ffffffffffffffff916024358381116108ce57366023820112156108ce5761074290369060248189013591016109bd565b9060443590606435926084359460a4359660c4359081116108ca57366023820112156108ca5736818b0135916024019161077b926109bd565b91610784610a04565b600160a01b60019003998a9384609754169385609854169b87519d8e958695638c05ba2160e01b875233908701528b602487015260448601610160905261016486016107cf91610d4d565b92169c8d606486015233608486015260a48501528860c48501528960e48501528a6101048501528b6101248501528382030161014484015261081091610d4d565b03818c5a94602095f19788156108c0578998610878575b50609854825197885233602089015216908601526060850152608084015260a083015260c08201527fc15226101528c2a2e09fa5645dde1cc952d581e632a004d098fc95fe337ecbb29060e090a280f35b9593919694929097506020863d82116108b8575b816108996020938361099b565b810103126108b45794519693959294919390929060e0610827565b8880fd5b3d915061088c565b82513d8b823e3d90fd5b8a80fd5b8680fd5b8380fd5b84913461011e57602036600319011261011e573563ffffffff60e01b811680910361011e5760209250637965db0b60e01b8114908115610918575b5015158152f35b6301ffc9a760e01b14905083610911565b600435906001600160a01b038216820361037e57565b602435906001600160a01b038216820361037e57565b67ffffffffffffffff811161096957604052565b634e487b7160e01b600052604160045260246000fd5b6080810190811067ffffffffffffffff82111761096957604052565b90601f8019910116810190811067ffffffffffffffff82111761096957604052565b92919267ffffffffffffffff821161096957604051916109e7601f8201601f19166020018461099b565b82948184528183011161037e578281602093846000960137010152565b3360009081527fb7083803cffc03c2ae8c949d46b1b02b6f00d47151d0c571c81a9a651d871a29602090815260408083205490927f59abfac6520ec36a6556b2a4dd949cc40007459bcd5cd2507f1e5cc77b6bc97e9160ff1615610a685750505050565b610a7133610e0f565b91845190610a7e8261097f565b60428252848201926060368537825115610c0b5760308453825190600191821015610c0b5790607860218501536041915b818311610b9d57505050610b5b576048610b57938693610b3b93610b2c985198899376020b1b1b2b9b9a1b7b73a3937b61d1030b1b1b7bab73a1604d1b8a860152610b03815180928c603789019101610d2a565b8401917001034b99036b4b9b9b4b733903937b6329607d1b603784015251809386840190610d2a565b0103602881018752018561099b565b5192839262461bcd60e51b845260048401526024830190610d4d565b0390fd5b60648486519062461bcd60e51b825280600483015260248201527f537472696e67733a20686578206c656e67746820696e73756666696369656e746044820152fd5b909192600f81166010811015610bf7576f181899199a1a9b1b9c1cb0b131b232b360811b901a610bcd8587610de8565b5360041c928015610be357600019019190610aaf565b634e487b7160e01b82526011600452602482fd5b634e487b7160e01b83526032600452602483fd5b634e487b7160e01b81526032600452602490fd5b60009080825260209060658252604092838120338252835260ff848220541615610c495750505050565b610c5233610e0f565b91845190610c5f8261097f565b60428252848201926060368537825115610c0b5760308453825190600191821015610c0b5790607860218501536041915b818311610ce457505050610b5b576048610b57938693610b3b93610b2c985198899376020b1b1b2b9b9a1b7b73a3937b61d1030b1b1b7bab73a1604d1b8a860152610b03815180928c603789019101610d2a565b909192600f81166010811015610bf7576f181899199a1a9b1b9c1cb0b131b232b360811b901a610d148587610de8565b5360041c928015610be357600019019190610c90565b60005b838110610d3d5750506000910152565b8181015183820152602001610d2d565b90602091610d6681518092818552858086019101610d2a565b601f01601f1916010190565b906000918083526065602052604083209160018060a01b03169182845260205260ff604084205416610da357505050565b8083526065602052604083208284526020526040832060ff1981541690557ff6391f5c32d9c69d2a47ea670b442974b53935d1edc7fd64eb21e047a839171b339380a4565b908151811015610df9570160200190565b634e487b7160e01b600052603260045260246000fd5b604051906060820182811067ffffffffffffffff82111761096957604052602a8252602082016040368237825115610df957603090538151600190811015610df957607860218401536029905b808211610eb0575050610e6c5790565b606460405162461bcd60e51b815260206004820152602060248201527f537472696e67733a20686578206c656e67746820696e73756666696369656e746044820152fd5b9091600f81166010811015610f09576f181899199a1a9b1b9c1cb0b131b232b360811b901a610edf8486610de8565b5360041c918015610ef4576000190190610e5c565b60246000634e487b7160e01b81526011600452fd5b60246000634e487b7160e01b81526032600452fdfea2646970667358221220a429c7aea07ddd48f8933419e5f94a588ba32241485fa1411e1e0ec66e91164a64736f6c63430008120033",
  "linkReferences": {},
  "deployedLinkReferences": {}
}