{
  "_format": "hh-sol-artifact-1",
  "contractName": "Loan",
  "sourceName": "contracts/Loan.sol",
  "abi": [
    {
      "inputs": [],
      "stateMutability": "nonpayable",
      "type": "constructor"
    },
    {
      "anonymous": false,
      "inputs": [
        {
          "indexed": true,
          "internalType": "address",
          "name": "account",
          "type": "address"
        },
        {
          "indexed": true,
          "internalType": "address",
          "name": "operator",
          "type": "address"
        },
        {
          "indexed": false,
          "internalType": "bool",
          "name": "approved",
          "type": "bool"
        }
      ],
      "name": "ApprovalForAll",
      "type": "event"
    },
    {
      "anonymous": false,
      "inputs": [
        {
          "indexed": true,
          "internalType": "address",
          "name": "from",
          "type": "address"
        },
        {
          "indexed": false,
          "internalType": "uint256",
          "name": "tokenId",
          "type": "uint256"
        },
        {
          "indexed": false,
          "internalType": "uint256",
          "name": "amount",
          "type": "uint256"
        }
      ],
      "name": "Burn",
      "type": "event"
    },
    {
      "anonymous": false,
      "inputs": [
        {
          "indexed": false,
          "internalType": "uint8",
          "name": "version",
          "type": "uint8"
        }
      ],
      "name": "Initialized",
      "type": "event"
    },
    {
      "anonymous": false,
      "inputs": [
        {
          "indexed": true,
          "internalType": "address",
          "name": "to",
          "type": "address"
        },
        {
          "indexed": false,
          "internalType": "string",
          "name": "tokenName",
          "type": "string"
        },
        {
          "indexed": false,
          "internalType": "string",
          "name": "tokenSymbol",
          "type": "string"
        },
        {
          "indexed": false,
          "internalType": "string",
          "name": "uri",
          "type": "string"
        },
        {
          "indexed": false,
          "internalType": "uint256",
          "name": "tokenId",
          "type": "uint256"
        },
        {
          "indexed": false,
          "internalType": "uint256",
          "name": "amount",
          "type": "uint256"
        }
      ],
      "name": "Mint",
      "type": "event"
    },
    {
      "anonymous": false,
      "inputs": [
        {
          "indexed": true,
          "internalType": "bytes32",
          "name": "role",
          "type": "bytes32"
        },
        {
          "indexed": true,
          "internalType": "bytes32",
          "name": "previousAdminRole",
          "type": "bytes32"
        },
        {
          "indexed": true,
          "internalType": "bytes32",
          "name": "newAdminRole",
          "type": "bytes32"
        }
      ],
      "name": "RoleAdminChanged",
      "type": "event"
    },
    {
      "anonymous": false,
      "inputs": [
        {
          "indexed": true,
          "internalType": "bytes32",
          "name": "role",
          "type": "bytes32"
        },
        {
          "indexed": true,
          "internalType": "address",
          "name": "account",
          "type": "address"
        },
        {
          "indexed": true,
          "internalType": "address",
          "name": "sender",
          "type": "address"
        }
      ],
      "name": "RoleGranted",
      "type": "event"
    },
    {
      "anonymous": false,
      "inputs": [
        {
          "indexed": true,
          "internalType": "bytes32",
          "name": "role",
          "type": "bytes32"
        },
        {
          "indexed": true,
          "internalType": "address",
          "name": "account",
          "type": "address"
        },
        {
          "indexed": true,
          "internalType": "address",
          "name": "sender",
          "type": "address"
        }
      ],
      "name": "RoleRevoked",
      "type": "event"
    },
    {
      "anonymous": false,
      "inputs": [
        {
          "indexed": true,
          "internalType": "address",
          "name": "operator",
          "type": "address"
        },
        {
          "indexed": true,
          "internalType": "address",
          "name": "from",
          "type": "address"
        },
        {
          "indexed": true,
          "internalType": "address",
          "name": "to",
          "type": "address"
        },
        {
          "indexed": false,
          "internalType": "uint256[]",
          "name": "ids",
          "type": "uint256[]"
        },
        {
          "indexed": false,
          "internalType": "uint256[]",
          "name": "values",
          "type": "uint256[]"
        }
      ],
      "name": "TransferBatch",
      "type": "event"
    },
    {
      "anonymous": false,
      "inputs": [
        {
          "indexed": true,
          "internalType": "address",
          "name": "operator",
          "type": "address"
        },
        {
          "indexed": true,
          "internalType": "address",
          "name": "from",
          "type": "address"
        },
        {
          "indexed": true,
          "internalType": "address",
          "name": "to",
          "type": "address"
        },
        {
          "indexed": false,
          "internalType": "uint256",
          "name": "id",
          "type": "uint256"
        },
        {
          "indexed": false,
          "internalType": "uint256",
          "name": "value",
          "type": "uint256"
        }
      ],
      "name": "TransferSingle",
      "type": "event"
    },
    {
      "anonymous": false,
      "inputs": [
        {
          "indexed": false,
          "internalType": "string",
          "name": "value",
          "type": "string"
        },
        {
          "indexed": true,
          "internalType": "uint256",
          "name": "id",
          "type": "uint256"
        }
      ],
      "name": "URI",
      "type": "event"
    },
    {
      "inputs": [],
      "name": "BURNER_ROLE",
      "outputs": [
        {
          "internalType": "bytes32",
          "name": "",
          "type": "bytes32"
        }
      ],
      "stateMutability": "view",
      "type": "function"
    },
    {
      "inputs": [],
      "name": "DEFAULT_ADMIN_ROLE",
      "outputs": [
        {
          "internalType": "bytes32",
          "name": "",
          "type": "bytes32"
        }
      ],
      "stateMutability": "view",
      "type": "function"
    },
    {
      "inputs": [],
      "name": "MINTER_ROLE",
      "outputs": [
        {
          "internalType": "bytes32",
          "name": "",
          "type": "bytes32"
        }
      ],
      "stateMutability": "view",
      "type": "function"
    },
    {
      "inputs": [
        {
          "internalType": "address",
          "name": "account",
          "type": "address"
        },
        {
          "internalType": "uint256",
          "name": "id",
          "type": "uint256"
        }
      ],
      "name": "balanceOf",
      "outputs": [
        {
          "internalType": "uint256",
          "name": "",
          "type": "uint256"
        }
      ],
      "stateMutability": "view",
      "type": "function"
    },
    {
      "inputs": [
        {
          "internalType": "address[]",
          "name": "accounts",
          "type": "address[]"
        },
        {
          "internalType": "uint256[]",
          "name": "ids",
          "type": "uint256[]"
        }
      ],
      "name": "balanceOfBatch",
      "outputs": [
        {
          "internalType": "uint256[]",
          "name": "",
          "type": "uint256[]"
        }
      ],
      "stateMutability": "view",
      "type": "function"
    },
    {
      "inputs": [
        {
          "internalType": "uint256",
          "name": "tokenId",
          "type": "uint256"
        },
        {
          "internalType": "uint256",
          "name": "amount",
          "type": "uint256"
        }
      ],
      "name": "burn",
      "outputs": [],
      "stateMutability": "nonpayable",
      "type": "function"
    },
    {
      "inputs": [
        {
          "internalType": "bytes32",
          "name": "role",
          "type": "bytes32"
        }
      ],
      "name": "getRoleAdmin",
      "outputs": [
        {
          "internalType": "bytes32",
          "name": "",
          "type": "bytes32"
        }
      ],
      "stateMutability": "view",
      "type": "function"
    },
    {
      "inputs": [
        {
          "internalType": "bytes32",
          "name": "role",
          "type": "bytes32"
        },
        {
          "internalType": "address",
          "name": "account",
          "type": "address"
        }
      ],
      "name": "grantRole",
      "outputs": [],
      "stateMutability": "nonpayable",
      "type": "function"
    },
    {
      "inputs": [
        {
          "internalType": "bytes32",
          "name": "role",
          "type": "bytes32"
        },
        {
          "internalType": "address",
          "name": "account",
          "type": "address"
        }
      ],
      "name": "hasRole",
      "outputs": [
        {
          "internalType": "bool",
          "name": "",
          "type": "bool"
        }
      ],
      "stateMutability": "view",
      "type": "function"
    },
    {
      "inputs": [
        {
          "internalType": "string",
          "name": "_name",
          "type": "string"
        },
        {
          "internalType": "string",
          "name": "_symbol",
          "type": "string"
        },
        {
          "internalType": "string",
          "name": "_baseUri",
          "type": "string"
        },
        {
          "internalType": "string",
          "name": "_metadataUri",
          "type": "string"
        }
      ],
      "name": "initialize",
      "outputs": [],
      "stateMutability": "nonpayable",
      "type": "function"
    },
    {
      "inputs": [
        {
          "internalType": "address",
          "name": "account",
          "type": "address"
        },
        {
          "internalType": "address",
          "name": "operator",
          "type": "address"
        }
      ],
      "name": "isApprovedForAll",
      "outputs": [
        {
          "internalType": "bool",
          "name": "",
          "type": "bool"
        }
      ],
      "stateMutability": "view",
      "type": "function"
    },
    {
      "inputs": [],
      "name": "metaDataUri",
      "outputs": [
        {
          "internalType": "string",
          "name": "",
          "type": "string"
        }
      ],
      "stateMutability": "view",
      "type": "function"
    },
    {
      "inputs": [
        {
          "internalType": "address",
          "name": "to",
          "type": "address"
        },
        {
          "internalType": "uint256",
          "name": "amount",
          "type": "uint256"
        },
        {
          "internalType": "string",
          "name": "tokenUri",
          "type": "string"
        },
        {
          "internalType": "bytes",
          "name": "data",
          "type": "bytes"
        }
      ],
      "name": "mint",
      "outputs": [],
      "stateMutability": "nonpayable",
      "type": "function"
    },
    {
      "inputs": [
        {
          "internalType": "bytes32",
          "name": "role",
          "type": "bytes32"
        },
        {
          "internalType": "address",
          "name": "account",
          "type": "address"
        }
      ],
      "name": "renounceRole",
      "outputs": [],
      "stateMutability": "nonpayable",
      "type": "function"
    },
    {
      "inputs": [
        {
          "internalType": "bytes32",
          "name": "role",
          "type": "bytes32"
        },
        {
          "internalType": "address",
          "name": "account",
          "type": "address"
        }
      ],
      "name": "revokeRole",
      "outputs": [],
      "stateMutability": "nonpayable",
      "type": "function"
    },
    {
      "inputs": [
        {
          "internalType": "address",
          "name": "from",
          "type": "address"
        },
        {
          "internalType": "address",
          "name": "to",
          "type": "address"
        },
        {
          "internalType": "uint256[]",
          "name": "ids",
          "type": "uint256[]"
        },
        {
          "internalType": "uint256[]",
          "name": "amounts",
          "type": "uint256[]"
        },
        {
          "internalType": "bytes",
          "name": "data",
          "type": "bytes"
        }
      ],
      "name": "safeBatchTransferFrom",
      "outputs": [],
      "stateMutability": "nonpayable",
      "type": "function"
    },
    {
      "inputs": [
        {
          "internalType": "address",
          "name": "from",
          "type": "address"
        },
        {
          "internalType": "address",
          "name": "to",
          "type": "address"
        },
        {
          "internalType": "uint256",
          "name": "id",
          "type": "uint256"
        },
        {
          "internalType": "uint256",
          "name": "amount",
          "type": "uint256"
        },
        {
          "internalType": "bytes",
          "name": "data",
          "type": "bytes"
        }
      ],
      "name": "safeTransferFrom",
      "outputs": [],
      "stateMutability": "nonpayable",
      "type": "function"
    },
    {
      "inputs": [
        {
          "internalType": "address",
          "name": "operator",
          "type": "address"
        },
        {
          "internalType": "bool",
          "name": "approved",
          "type": "bool"
        }
      ],
      "name": "setApprovalForAll",
      "outputs": [],
      "stateMutability": "nonpayable",
      "type": "function"
    },
    {
      "inputs": [
        {
          "internalType": "bytes4",
          "name": "interfaceId",
          "type": "bytes4"
        }
      ],
      "name": "supportsInterface",
      "outputs": [
        {
          "internalType": "bool",
          "name": "",
          "type": "bool"
        }
      ],
      "stateMutability": "view",
      "type": "function"
    },
    {
      "inputs": [],
      "name": "tokenName",
      "outputs": [
        {
          "internalType": "string",
          "name": "",
          "type": "string"
        }
      ],
      "stateMutability": "view",
      "type": "function"
    },
    {
      "inputs": [],
      "name": "tokenSymbol",
      "outputs": [
        {
          "internalType": "string",
          "name": "",
          "type": "string"
        }
      ],
      "stateMutability": "view",
      "type": "function"
    },
    {
      "inputs": [
        {
          "internalType": "uint256",
          "name": "tokenId",
          "type": "uint256"
        }
      ],
      "name": "uri",
      "outputs": [
        {
          "internalType": "string",
          "name": "",
          "type": "string"
        }
      ],
      "stateMutability": "view",
      "type": "function"
    }
  ],
  "bytecode": "0x60806040523480156200001157600080fd5b506200001c62000022565b620000e3565b600054610100900460ff16156200008f5760405162461bcd60e51b815260206004820152602760248201527f496e697469616c697a61626c653a20636f6e747261637420697320696e697469604482015266616c697a696e6760c81b606482015260840160405180910390fd5b60005460ff90811614620000e1576000805460ff191660ff9081179091556040519081527f7f26b83ff96e1f2b6a682f133852f6798a09c465da95921460cefb38474024989060200160405180910390a15b565b6125c080620000f36000396000f3fe608060405234801561001057600080fd5b50600436106101415760003560e01c80637b61c320116100b8578063b390c0ab1161007c578063b390c0ab146102ad578063d2b04fd6146102c0578063d5391393146102d3578063d547741f146102fa578063e985e9c51461030d578063f242432a1461034957600080fd5b80637b61c3201461026457806391d148541461026c578063a217fddf1461027f578063a22cb46514610287578063a523d35e1461029a57600080fd5b80632eb2c2d61161010a5780632eb2c2d6146101f95780632f2ff15d1461020e57806336568abe146102215780634e1273f41461023457806363ca7cef146102545780636c02a9311461025c57600080fd5b8062fdd58e1461014657806301ffc9a71461016c5780630e89341c1461018f578063248a9ca3146101af578063282c51f3146101d2575b600080fd5b610159610154366004611908565b61035c565b6040519081526020015b60405180910390f35b61017f61017a366004611948565b6103f7565b6040519015158152602001610163565b6101a261019d366004611965565b610402565b60405161016391906119ce565b6101596101bd366004611965565b600090815260c9602052604090206001015490565b6101597f3c11d16cbaffd01df69ce1c404f6340ee057498f5f00246190ea54220576a84881565b61020c610207366004611b2d565b6104e2565b005b61020c61021c366004611bd7565b61052e565b61020c61022f366004611bd7565b610558565b610247610242366004611c03565b6105d6565b6040516101639190611d09565b6101a2610700565b6101a261078e565b6101a261079b565b61017f61027a366004611bd7565b6107a8565b610159600081565b61020c610295366004611d1c565b6107d3565b61020c6102a8366004611d58565b6107de565b61020c6102bb366004611e05565b61095f565b61020c6102ce366004611e27565b6109d4565b6101597f9f2df0fed2c77648de5860a4cc508cd0818c85b8b8a1ab4ceeef8d981c8956a681565b61020c610308366004611bd7565b610a4b565b61017f61031b366004611e6a565b6001600160a01b03918216600090815260666020908152604080832093909416825291909152205460ff1690565b61020c610357366004611e94565b610a70565b60006001600160a01b0383166103cc5760405162461bcd60e51b815260206004820152602a60248201527f455243313135353a2061646472657373207a65726f206973206e6f742061207660448201526930b634b21037bbb732b960b11b60648201526084015b60405180910390fd5b5060008181526065602090815260408083206001600160a01b03861684529091529020545b92915050565b60006103f182610ab5565b60008181526098602052604081208054606092919061042090611ef9565b80601f016020809104026020016040519081016040528092919081815260200182805461044c90611ef9565b80156104995780601f1061046e57610100808354040283529160200191610499565b820191906000526020600020905b81548152906001019060200180831161047c57829003601f168201915b5050505050905060008151116104b7576104b283610ada565b6104db565b6097816040516020016104cb929190611f33565b6040516020818303038152906040525b9392505050565b6001600160a01b0385163314806104fe57506104fe853361031b565b61051a5760405162461bcd60e51b81526004016103c390611fba565b6105278585858585610b6e565b5050505050565b600082815260c9602052604090206001015461054981610d46565b6105538383610d53565b505050565b6001600160a01b03811633146105c85760405162461bcd60e51b815260206004820152602f60248201527f416363657373436f6e74726f6c3a2063616e206f6e6c792072656e6f756e636560448201526e103937b632b9903337b91039b2b63360891b60648201526084016103c3565b6105d28282610dd9565b5050565b6060815183511461063b5760405162461bcd60e51b815260206004820152602960248201527f455243313135353a206163636f756e747320616e6420696473206c656e677468604482015268040dad2e6dac2e8c6d60bb1b60648201526084016103c3565b6000835167ffffffffffffffff811115610657576106576119e1565b604051908082528060200260200182016040528015610680578160200160208202803683370190505b50905060005b84518110156106f8576106cb8582815181106106a4576106a4612008565b60200260200101518583815181106106be576106be612008565b602002602001015161035c565b8282815181106106dd576106dd612008565b60209081029190910101526106f181612034565b9050610686565b509392505050565b60fe805461070d90611ef9565b80601f016020809104026020016040519081016040528092919081815260200182805461073990611ef9565b80156107865780601f1061075b57610100808354040283529160200191610786565b820191906000526020600020905b81548152906001019060200180831161076957829003601f168201915b505050505081565b60fc805461070d90611ef9565b60fd805461070d90611ef9565b600091825260c9602090815260408084206001600160a01b0393909316845291905290205460ff1690565b6105d2338383610e40565b600054610100900460ff16158080156107fe5750600054600160ff909116105b806108185750303b158015610818575060005460ff166001145b61087b5760405162461bcd60e51b815260206004820152602e60248201527f496e697469616c697a61626c653a20636f6e747261637420697320616c72656160448201526d191e481a5b9a5d1a585b1a5e995960921b60648201526084016103c3565b6000805460ff19166001179055801561089e576000805461ff0019166101001790555b60fc6108aa8682612093565b5060fd6108b78582612093565b5060fe6108c48382612093565b506108cd610f20565b6108d5610f49565b6108de83610f78565b6108e9600033610d53565b6109137f9f2df0fed2c77648de5860a4cc508cd0818c85b8b8a1ab4ceeef8d981c8956a633610d53565b8015610527576000805461ff0019169055604051600181527f7f26b83ff96e1f2b6a682f133852f6798a09c465da95921460cefb38474024989060200160405180910390a15050505050565b7f3c11d16cbaffd01df69ce1c404f6340ee057498f5f00246190ea54220576a84861098981610d46565b610994338484610f84565b604080518481526020810184905233917f49995e5dd6158cf69ad3e9777c46755a1a826a446c6416992167462dad033b2a910160405180910390a2505050565b7f9f2df0fed2c77648de5860a4cc508cd0818c85b8b8a1ab4ceeef8d981c8956a66109fe81610d46565b6000610a0960fb5490565b9050610a1960fb80546001019055565b610a238185611108565b610a3786610a3083610402565b8388611165565b610a43868287866111b6565b505050505050565b600082815260c96020526040902060010154610a6681610d46565b6105538383610dd9565b6001600160a01b038516331480610a8c5750610a8c853361031b565b610aa85760405162461bcd60e51b81526004016103c390611fba565b61052785858585856112c3565b60006001600160e01b03198216637965db0b60e01b14806103f157506103f1826113f1565b606060678054610ae990611ef9565b80601f0160208091040260200160405190810160405280929190818152602001828054610b1590611ef9565b8015610b625780601f10610b3757610100808354040283529160200191610b62565b820191906000526020600020905b815481529060010190602001808311610b4557829003601f168201915b50505050509050919050565b8151835114610bd05760405162461bcd60e51b815260206004820152602860248201527f455243313135353a2069647320616e6420616d6f756e7473206c656e677468206044820152670dad2e6dac2e8c6d60c31b60648201526084016103c3565b6001600160a01b038416610bf65760405162461bcd60e51b81526004016103c390612153565b3360005b8451811015610ce0576000858281518110610c1757610c17612008565b602002602001015190506000858381518110610c3557610c35612008565b60209081029190910181015160008481526065835260408082206001600160a01b038e168352909352919091205490915081811015610c865760405162461bcd60e51b81526004016103c390612198565b60008381526065602090815260408083206001600160a01b038e8116855292528083208585039055908b16825281208054849290610cc59084906121e2565b9250508190555050505080610cd990612034565b9050610bfa565b50846001600160a01b0316866001600160a01b0316826001600160a01b03167f4a39dc06d4c0dbc64b70af90fd698a233a518aa5d07e595d983b8c0526c8f7fb8787604051610d309291906121f5565b60405180910390a4610a43818787878787611441565b610d50813361159c565b50565b610d5d82826107a8565b6105d257600082815260c9602090815260408083206001600160a01b03851684529091529020805460ff19166001179055610d953390565b6001600160a01b0316816001600160a01b0316837f2f8788117e7eff1d82e926ec794901d17c78024a50270940304540a733656f0d60405160405180910390a45050565b610de382826107a8565b156105d257600082815260c9602090815260408083206001600160a01b0385168085529252808320805460ff1916905551339285917ff6391f5c32d9c69d2a47ea670b442974b53935d1edc7fd64eb21e047a839171b9190a45050565b816001600160a01b0316836001600160a01b031603610eb35760405162461bcd60e51b815260206004820152602960248201527f455243313135353a2073657474696e6720617070726f76616c20737461747573604482015268103337b91039b2b63360b91b60648201526084016103c3565b6001600160a01b03838116600081815260666020908152604080832094871680845294825291829020805460ff191686151590811790915591519182527f17307eab39ab6107e8899845ad3d59bd9653f200f220920489ca2b5937696c31910160405180910390a3505050565b600054610100900460ff16610f475760405162461bcd60e51b81526004016103c390612223565b565b600054610100900460ff16610f705760405162461bcd60e51b81526004016103c390612223565b610f476115f5565b60976105d28282612093565b6001600160a01b038316610fe65760405162461bcd60e51b815260206004820152602360248201527f455243313135353a206275726e2066726f6d20746865207a65726f206164647260448201526265737360e81b60648201526084016103c3565b336000610ff284611638565b90506000610fff84611638565b6040805160208082018352600091829052888252606581528282206001600160a01b038b16835290522054909150848110156110895760405162461bcd60e51b8152602060048201526024808201527f455243313135353a206275726e20616d6f756e7420657863656564732062616c604482015263616e636560e01b60648201526084016103c3565b60008681526065602090815260408083206001600160a01b038b81168086529184528285208a8703905582518b81529384018a90529092908816917fc3d58168c5ae7397731d063d5bbf3d657854427343f4c083240f7aacaa2d0f62910160405180910390a46040805160208101909152600090525b50505050505050565b60008281526098602052604090206111208282612093565b50817f6bb7ff708619ba0610cba295a58592e0451dee2622938c8755667688daf3529b61114c84610402565b60405161115991906119ce565b60405180910390a25050565b836001600160a01b03167f114dad25cbfeaaaf3271eae94908324589f5e978c2ae29180df8476e4d56501060fc60fd8686866040516111a89594939291906122eb565b60405180910390a250505050565b6001600160a01b0384166112165760405162461bcd60e51b815260206004820152602160248201527f455243313135353a206d696e7420746f20746865207a65726f206164647265736044820152607360f81b60648201526084016103c3565b33600061122285611638565b9050600061122f85611638565b905060008681526065602090815260408083206001600160a01b038b168452909152812080548792906112639084906121e2565b909155505060408051878152602081018790526001600160a01b03808a1692600092918716917fc3d58168c5ae7397731d063d5bbf3d657854427343f4c083240f7aacaa2d0f62910160405180910390a46110ff83600089898989611683565b6001600160a01b0384166112e95760405162461bcd60e51b81526004016103c390612153565b3360006112f585611638565b9050600061130285611638565b905060008681526065602090815260408083206001600160a01b038c168452909152902054858110156113475760405162461bcd60e51b81526004016103c390612198565b60008781526065602090815260408083206001600160a01b038d8116855292528083208985039055908a168252812080548892906113869084906121e2565b909155505060408051888152602081018890526001600160a01b03808b16928c821692918816917fc3d58168c5ae7397731d063d5bbf3d657854427343f4c083240f7aacaa2d0f62910160405180910390a46113e6848a8a8a8a8a611683565b505050505050505050565b60006001600160e01b03198216636cdb3d1360e11b148061142257506001600160e01b031982166303a24d0760e21b145b806103f157506301ffc9a760e01b6001600160e01b03198316146103f1565b6001600160a01b0384163b15610a435760405163bc197c8160e01b81526001600160a01b0385169063bc197c81906114859089908990889088908890600401612339565b6020604051808303816000875af19250505080156114c0575060408051601f3d908101601f191682019092526114bd91810190612397565b60015b61156c576114cc6123b4565b806308c379a00361150557506114e06123d0565b806114eb5750611507565b8060405162461bcd60e51b81526004016103c391906119ce565b505b60405162461bcd60e51b815260206004820152603460248201527f455243313135353a207472616e7366657220746f206e6f6e2d455243313135356044820152732932b1b2b4bb32b91034b6b83632b6b2b73a32b960611b60648201526084016103c3565b6001600160e01b0319811663bc197c8160e01b146110ff5760405162461bcd60e51b81526004016103c39061245a565b6115a682826107a8565b6105d2576115b38161173e565b6115be836020611750565b6040516020016115cf9291906124a2565b60408051601f198184030181529082905262461bcd60e51b82526103c3916004016119ce565b600054610100900460ff1661161c5760405162461bcd60e51b81526004016103c390612223565b604080516020810190915260008152609790610d509082612093565b6040805160018082528183019092526060916000919060208083019080368337019050509050828160008151811061167257611672612008565b602090810291909101015292915050565b6001600160a01b0384163b15610a435760405163f23a6e6160e01b81526001600160a01b0385169063f23a6e61906116c79089908990889088908890600401612517565b6020604051808303816000875af1925050508015611702575060408051601f3d908101601f191682019092526116ff91810190612397565b60015b61170e576114cc6123b4565b6001600160e01b0319811663f23a6e6160e01b146110ff5760405162461bcd60e51b81526004016103c39061245a565b60606103f16001600160a01b03831660145b6060600061175f83600261255c565b61176a9060026121e2565b67ffffffffffffffff811115611782576117826119e1565b6040519080825280601f01601f1916602001820160405280156117ac576020820181803683370190505b509050600360fc1b816000815181106117c7576117c7612008565b60200101906001600160f81b031916908160001a905350600f60fb1b816001815181106117f6576117f6612008565b60200101906001600160f81b031916908160001a905350600061181a84600261255c565b6118259060016121e2565b90505b600181111561189d576f181899199a1a9b1b9c1cb0b131b232b360811b85600f166010811061185957611859612008565b1a60f81b82828151811061186f5761186f612008565b60200101906001600160f81b031916908160001a90535060049490941c9361189681612573565b9050611828565b5083156104db5760405162461bcd60e51b815260206004820181905260248201527f537472696e67733a20686578206c656e67746820696e73756666696369656e7460448201526064016103c3565b80356001600160a01b038116811461190357600080fd5b919050565b6000806040838503121561191b57600080fd5b611924836118ec565b946020939093013593505050565b6001600160e01b031981168114610d5057600080fd5b60006020828403121561195a57600080fd5b81356104db81611932565b60006020828403121561197757600080fd5b5035919050565b60005b83811015611999578181015183820152602001611981565b50506000910152565b600081518084526119ba81602086016020860161197e565b601f01601f19169290920160200192915050565b6020815260006104db60208301846119a2565b634e487b7160e01b600052604160045260246000fd5b601f8201601f1916810167ffffffffffffffff81118282101715611a1d57611a1d6119e1565b6040525050565b600067ffffffffffffffff821115611a3e57611a3e6119e1565b5060051b60200190565b600082601f830112611a5957600080fd5b81356020611a6682611a24565b604051611a7382826119f7565b83815260059390931b8501820192828101915086841115611a9357600080fd5b8286015b84811015611aae5780358352918301918301611a97565b509695505050505050565b600082601f830112611aca57600080fd5b813567ffffffffffffffff811115611ae457611ae46119e1565b604051611afb601f8301601f1916602001826119f7565b818152846020838601011115611b1057600080fd5b816020850160208301376000918101602001919091529392505050565b600080600080600060a08688031215611b4557600080fd5b611b4e866118ec565b9450611b5c602087016118ec565b9350604086013567ffffffffffffffff80821115611b7957600080fd5b611b8589838a01611a48565b94506060880135915080821115611b9b57600080fd5b611ba789838a01611a48565b93506080880135915080821115611bbd57600080fd5b50611bca88828901611ab9565b9150509295509295909350565b60008060408385031215611bea57600080fd5b82359150611bfa602084016118ec565b90509250929050565b60008060408385031215611c1657600080fd5b823567ffffffffffffffff80821115611c2e57600080fd5b818501915085601f830112611c4257600080fd5b81356020611c4f82611a24565b604051611c5c82826119f7565b83815260059390931b8501820192828101915089841115611c7c57600080fd5b948201945b83861015611ca157611c92866118ec565b82529482019490820190611c81565b96505086013592505080821115611cb757600080fd5b50611cc485828601611a48565b9150509250929050565b600081518084526020808501945080840160005b83811015611cfe57815187529582019590820190600101611ce2565b509495945050505050565b6020815260006104db6020830184611cce565b60008060408385031215611d2f57600080fd5b611d38836118ec565b915060208301358015158114611d4d57600080fd5b809150509250929050565b60008060008060808587031215611d6e57600080fd5b843567ffffffffffffffff80821115611d8657600080fd5b611d9288838901611ab9565b95506020870135915080821115611da857600080fd5b611db488838901611ab9565b94506040870135915080821115611dca57600080fd5b611dd688838901611ab9565b93506060870135915080821115611dec57600080fd5b50611df987828801611ab9565b91505092959194509250565b60008060408385031215611e1857600080fd5b50508035926020909101359150565b60008060008060808587031215611e3d57600080fd5b611e46856118ec565b935060208501359250604085013567ffffffffffffffff80821115611dca57600080fd5b60008060408385031215611e7d57600080fd5b611e86836118ec565b9150611bfa602084016118ec565b600080600080600060a08688031215611eac57600080fd5b611eb5866118ec565b9450611ec3602087016118ec565b93506040860135925060608601359150608086013567ffffffffffffffff811115611eed57600080fd5b611bca88828901611ab9565b600181811c90821680611f0d57607f821691505b602082108103611f2d57634e487b7160e01b600052602260045260246000fd5b50919050565b6000808454611f4181611ef9565b60018281168015611f595760018114611f6e57611f9d565b60ff1984168752821515830287019450611f9d565b8860005260208060002060005b85811015611f945781548a820152908401908201611f7b565b50505082870194505b505050508351611fb181836020880161197e565b01949350505050565b6020808252602e908201527f455243313135353a2063616c6c6572206973206e6f7420746f6b656e206f776e60408201526d195c881bdc88185c1c1c9bdd995960921b606082015260800190565b634e487b7160e01b600052603260045260246000fd5b634e487b7160e01b600052601160045260246000fd5b6000600182016120465761204661201e565b5060010190565b601f82111561055357600081815260208120601f850160051c810160208610156120745750805b601f850160051c820191505b81811015610a4357828155600101612080565b815167ffffffffffffffff8111156120ad576120ad6119e1565b6120c1816120bb8454611ef9565b8461204d565b602080601f8311600181146120f657600084156120de5750858301515b600019600386901b1c1916600185901b178555610a43565b600085815260208120601f198616915b8281101561212557888601518255948401946001909101908401612106565b50858210156121435787850151600019600388901b60f8161c191681555b5050505050600190811b01905550565b60208082526025908201527f455243313135353a207472616e7366657220746f20746865207a65726f206164604082015264647265737360d81b606082015260800190565b6020808252602a908201527f455243313135353a20696e73756666696369656e742062616c616e636520666f60408201526939103a3930b739b332b960b11b606082015260800190565b808201808211156103f1576103f161201e565b6040815260006122086040830185611cce565b828103602084015261221a8185611cce565b95945050505050565b6020808252602b908201527f496e697469616c697a61626c653a20636f6e7472616374206973206e6f74206960408201526a6e697469616c697a696e6760a81b606082015260800190565b6000815461227b81611ef9565b80855260206001838116801561229857600181146122b2576122e0565b60ff1985168884015283151560051b8801830195506122e0565b866000528260002060005b858110156122d85781548a82018601529083019084016122bd565b890184019650505b505050505092915050565b60a0815260006122fe60a083018861226e565b8281036020840152612310818861226e565b9050828103604084015261232481876119a2565b60608401959095525050608001529392505050565b6001600160a01b0386811682528516602082015260a06040820181905260009061236590830186611cce565b82810360608401526123778186611cce565b9050828103608084015261238b81856119a2565b98975050505050505050565b6000602082840312156123a957600080fd5b81516104db81611932565b600060033d11156123cd5760046000803e5060005160e01c5b90565b600060443d10156123de5790565b6040516003193d81016004833e81513d67ffffffffffffffff816024840111818411171561240e57505050505090565b82850191508151818111156124265750505050505090565b843d87010160208285010111156124405750505050505090565b61244f602082860101876119f7565b509095945050505050565b60208082526028908201527f455243313135353a204552433131353552656365697665722072656a656374656040820152676420746f6b656e7360c01b606082015260800190565b7f416363657373436f6e74726f6c3a206163636f756e74200000000000000000008152600083516124da81601785016020880161197e565b7001034b99036b4b9b9b4b733903937b6329607d1b601791840191820152835161250b81602884016020880161197e565b01602801949350505050565b6001600160a01b03868116825285166020820152604081018490526060810183905260a060808201819052600090612551908301846119a2565b979650505050505050565b80820281158282048414176103f1576103f161201e565b6000816125825761258261201e565b50600019019056fea26469706673582212209f2f8bcd9e105ce2ba98012eac166c6be7d0908296908f20fd1b3e7dfcf283f264736f6c63430008120033",
  "linkReferences": {},
  "deployedLinkReferences": {}
}