{
  "_format": "hh-sol-artifact-1",
  "contractName": "Vault",
  "sourceName": "contracts/Vault.sol",
  "abi": [
    {
      "anonymous": false,
      "inputs": [
        {
          "indexed": true,
          "internalType": "address",
          "name": "owner",
          "type": "address"
        },
        {
          "indexed": true,
          "internalType": "address",
          "name": "spender",
          "type": "address"
        },
        {
          "indexed": false,
          "internalType": "uint256",
          "name": "value",
          "type": "uint256"
        }
      ],
      "name": "Approval",
      "type": "event"
    },
    {
      "anonymous": false,
      "inputs": [
        {
          "indexed": true,
          "internalType": "address",
          "name": "sender",
          "type": "address"
        },
        {
          "indexed": true,
          "internalType": "address",
          "name": "owner",
          "type": "address"
        },
        {
          "indexed": false,
          "internalType": "uint256",
          "name": "assets",
          "type": "uint256"
        },
        {
          "indexed": false,
          "internalType": "uint256",
          "name": "shares",
          "type": "uint256"
        }
      ],
      "name": "Deposit",
      "type": "event"
    },
    {
      "anonymous": false,
      "inputs": [
        {
          "indexed": false,
          "internalType": "uint8",
          "name": "version",
          "type": "uint8"
        }
      ],
      "name": "Initialized",
      "type": "event"
    },
    {
      "anonymous": false,
      "inputs": [
        {
          "indexed": true,
          "internalType": "address",
          "name": "vault",
          "type": "address"
        },
        {
          "indexed": true,
          "internalType": "address",
          "name": "user",
          "type": "address"
        },
        {
          "indexed": false,
          "internalType": "uint256",
          "name": "timestamp",
          "type": "uint256"
        },
        {
          "indexed": false,
          "internalType": "string",
          "name": "message",
          "type": "string"
        }
      ],
      "name": "InvestorAdded",
      "type": "event"
    },
    {
      "anonymous": false,
      "inputs": [
        {
          "indexed": true,
          "internalType": "address",
          "name": "vault",
          "type": "address"
        },
        {
          "indexed": true,
          "internalType": "address",
          "name": "investor",
          "type": "address"
        },
        {
          "indexed": true,
          "internalType": "address",
          "name": "receiver",
          "type": "address"
        },
        {
          "indexed": false,
          "internalType": "uint256",
          "name": "assets",
          "type": "uint256"
        },
        {
          "indexed": false,
          "internalType": "uint256",
          "name": "shares",
          "type": "uint256"
        }
      ],
      "name": "InvestorDeposited",
      "type": "event"
    },
    {
      "anonymous": false,
      "inputs": [
        {
          "indexed": true,
          "internalType": "address",
          "name": "vault",
          "type": "address"
        },
        {
          "indexed": true,
          "internalType": "address",
          "name": "investor",
          "type": "address"
        },
        {
          "indexed": true,
          "internalType": "address",
          "name": "receiver",
          "type": "address"
        },
        {
          "indexed": false,
          "internalType": "uint256",
          "name": "assets",
          "type": "uint256"
        },
        {
          "indexed": false,
          "internalType": "uint256",
          "name": "shares",
          "type": "uint256"
        }
      ],
      "name": "InvestorRedeemed",
      "type": "event"
    },
    {
      "anonymous": false,
      "inputs": [
        {
          "indexed": true,
          "internalType": "address",
          "name": "vault",
          "type": "address"
        },
        {
          "indexed": true,
          "internalType": "address",
          "name": "investor",
          "type": "address"
        },
        {
          "indexed": true,
          "internalType": "address",
          "name": "receiver",
          "type": "address"
        },
        {
          "indexed": false,
          "internalType": "uint256",
          "name": "assets",
          "type": "uint256"
        },
        {
          "indexed": false,
          "internalType": "uint256",
          "name": "shares",
          "type": "uint256"
        }
      ],
      "name": "InvestorWithdrawn",
      "type": "event"
    },
    {
      "anonymous": false,
      "inputs": [
        {
          "indexed": true,
          "internalType": "address",
          "name": "vault",
          "type": "address"
        },
        {
          "indexed": true,
          "internalType": "address",
          "name": "originator",
          "type": "address"
        },
        {
          "indexed": true,
          "internalType": "address",
          "name": "borrower",
          "type": "address"
        },
        {
          "indexed": false,
          "internalType": "uint256",
          "name": "assets",
          "type": "uint256"
        }
      ],
      "name": "LoanFunded",
      "type": "event"
    },
    {
      "anonymous": false,
      "inputs": [
        {
          "indexed": true,
          "internalType": "address",
          "name": "vault",
          "type": "address"
        },
        {
          "indexed": true,
          "internalType": "address",
          "name": "originator",
          "type": "address"
        },
        {
          "indexed": true,
          "internalType": "address",
          "name": "borrower",
          "type": "address"
        },
        {
          "indexed": false,
          "internalType": "uint256",
          "name": "assets",
          "type": "uint256"
        }
      ],
      "name": "LoanRepaid",
      "type": "event"
    },
    {
      "anonymous": false,
      "inputs": [
        {
          "indexed": true,
          "internalType": "address",
          "name": "vault",
          "type": "address"
        },
        {
          "indexed": true,
          "internalType": "address",
          "name": "user",
          "type": "address"
        },
        {
          "indexed": false,
          "internalType": "uint256",
          "name": "timestamp",
          "type": "uint256"
        },
        {
          "indexed": false,
          "internalType": "string",
          "name": "message",
          "type": "string"
        }
      ],
      "name": "OriginatorAdded",
      "type": "event"
    },
    {
      "anonymous": false,
      "inputs": [
        {
          "indexed": true,
          "internalType": "bytes32",
          "name": "role",
          "type": "bytes32"
        },
        {
          "indexed": true,
          "internalType": "bytes32",
          "name": "previousAdminRole",
          "type": "bytes32"
        },
        {
          "indexed": true,
          "internalType": "bytes32",
          "name": "newAdminRole",
          "type": "bytes32"
        }
      ],
      "name": "RoleAdminChanged",
      "type": "event"
    },
    {
      "anonymous": false,
      "inputs": [
        {
          "indexed": true,
          "internalType": "bytes32",
          "name": "role",
          "type": "bytes32"
        },
        {
          "indexed": true,
          "internalType": "address",
          "name": "account",
          "type": "address"
        },
        {
          "indexed": true,
          "internalType": "address",
          "name": "sender",
          "type": "address"
        }
      ],
      "name": "RoleGranted",
      "type": "event"
    },
    {
      "anonymous": false,
      "inputs": [
        {
          "indexed": true,
          "internalType": "bytes32",
          "name": "role",
          "type": "bytes32"
        },
        {
          "indexed": true,
          "internalType": "address",
          "name": "account",
          "type": "address"
        },
        {
          "indexed": true,
          "internalType": "address",
          "name": "sender",
          "type": "address"
        }
      ],
      "name": "RoleRevoked",
      "type": "event"
    },
    {
      "anonymous": false,
      "inputs": [
        {
          "indexed": true,
          "internalType": "address",
          "name": "from",
          "type": "address"
        },
        {
          "indexed": true,
          "internalType": "address",
          "name": "to",
          "type": "address"
        },
        {
          "indexed": false,
          "internalType": "uint256",
          "name": "value",
          "type": "uint256"
        }
      ],
      "name": "Transfer",
      "type": "event"
    },
    {
      "anonymous": false,
      "inputs": [
        {
          "indexed": true,
          "internalType": "address",
          "name": "sender",
          "type": "address"
        },
        {
          "indexed": true,
          "internalType": "address",
          "name": "receiver",
          "type": "address"
        },
        {
          "indexed": true,
          "internalType": "address",
          "name": "owner",
          "type": "address"
        },
        {
          "indexed": false,
          "internalType": "uint256",
          "name": "assets",
          "type": "uint256"
        },
        {
          "indexed": false,
          "internalType": "uint256",
          "name": "shares",
          "type": "uint256"
        }
      ],
      "name": "Withdraw",
      "type": "event"
    },
    {
      "anonymous": false,
      "inputs": [
        {
          "indexed": true,
          "internalType": "address",
          "name": "vault",
          "type": "address"
        },
        {
          "indexed": true,
          "internalType": "address",
          "name": "originator",
          "type": "address"
        },
        {
          "indexed": true,
          "internalType": "address",
          "name": "fromAddress",
          "type": "address"
        },
        {
          "indexed": false,
          "internalType": "uint256",
          "name": "assets",
          "type": "uint256"
        }
      ],
      "name": "YeildDeposited",
      "type": "event"
    },
    {
      "inputs": [],
      "name": "DEFAULT_ADMIN_ROLE",
      "outputs": [
        {
          "internalType": "bytes32",
          "name": "",
          "type": "bytes32"
        }
      ],
      "stateMutability": "view",
      "type": "function"
    },
    {
      "inputs": [],
      "name": "INVESTOR_ROLE",
      "outputs": [
        {
          "internalType": "bytes32",
          "name": "",
          "type": "bytes32"
        }
      ],
      "stateMutability": "view",
      "type": "function"
    },
    {
      "inputs": [],
      "name": "LOAN_MANAGER_ROLE",
      "outputs": [
        {
          "internalType": "bytes32",
          "name": "",
          "type": "bytes32"
        }
      ],
      "stateMutability": "view",
      "type": "function"
    },
    {
      "inputs": [],
      "name": "ORIGINATOR_ROLE",
      "outputs": [
        {
          "internalType": "bytes32",
          "name": "",
          "type": "bytes32"
        }
      ],
      "stateMutability": "view",
      "type": "function"
    },
    {
      "inputs": [
        {
          "internalType": "address",
          "name": "investor",
          "type": "address"
        }
      ],
      "name": "addInvestor",
      "outputs": [],
      "stateMutability": "nonpayable",
      "type": "function"
    },
    {
      "inputs": [
        {
          "internalType": "address",
          "name": "originator",
          "type": "address"
        }
      ],
      "name": "addOriginator",
      "outputs": [],
      "stateMutability": "nonpayable",
      "type": "function"
    },
    {
      "inputs": [
        {
          "internalType": "address",
          "name": "owner",
          "type": "address"
        },
        {
          "internalType": "address",
          "name": "spender",
          "type": "address"
        }
      ],
      "name": "allowance",
      "outputs": [
        {
          "internalType": "uint256",
          "name": "",
          "type": "uint256"
        }
      ],
      "stateMutability": "view",
      "type": "function"
    },
    {
      "inputs": [
        {
          "internalType": "address",
          "name": "spender",
          "type": "address"
        },
        {
          "internalType": "uint256",
          "name": "amount",
          "type": "uint256"
        }
      ],
      "name": "approve",
      "outputs": [
        {
          "internalType": "bool",
          "name": "",
          "type": "bool"
        }
      ],
      "stateMutability": "nonpayable",
      "type": "function"
    },
    {
      "inputs": [],
      "name": "asset",
      "outputs": [
        {
          "internalType": "address",
          "name": "",
          "type": "address"
        }
      ],
      "stateMutability": "view",
      "type": "function"
    },
    {
      "inputs": [
        {
          "internalType": "address",
          "name": "account",
          "type": "address"
        }
      ],
      "name": "balanceOf",
      "outputs": [
        {
          "internalType": "uint256",
          "name": "",
          "type": "uint256"
        }
      ],
      "stateMutability": "view",
      "type": "function"
    },
    {
      "inputs": [
        {
          "internalType": "uint256",
          "name": "shares",
          "type": "uint256"
        }
      ],
      "name": "convertToAssets",
      "outputs": [
        {
          "internalType": "uint256",
          "name": "",
          "type": "uint256"
        }
      ],
      "stateMutability": "view",
      "type": "function"
    },
    {
      "inputs": [
        {
          "internalType": "uint256",
          "name": "assets",
          "type": "uint256"
        }
      ],
      "name": "convertToShares",
      "outputs": [
        {
          "internalType": "uint256",
          "name": "",
          "type": "uint256"
        }
      ],
      "stateMutability": "view",
      "type": "function"
    },
    {
      "inputs": [],
      "name": "decimals",
      "outputs": [
        {
          "internalType": "uint8",
          "name": "",
          "type": "uint8"
        }
      ],
      "stateMutability": "view",
      "type": "function"
    },
    {
      "inputs": [
        {
          "internalType": "address",
          "name": "spender",
          "type": "address"
        },
        {
          "internalType": "uint256",
          "name": "subtractedValue",
          "type": "uint256"
        }
      ],
      "name": "decreaseAllowance",
      "outputs": [
        {
          "internalType": "bool",
          "name": "",
          "type": "bool"
        }
      ],
      "stateMutability": "nonpayable",
      "type": "function"
    },
    {
      "inputs": [
        {
          "internalType": "uint256",
          "name": "assets",
          "type": "uint256"
        },
        {
          "internalType": "address",
          "name": "receiver",
          "type": "address"
        }
      ],
      "name": "deposit",
      "outputs": [
        {
          "internalType": "uint256",
          "name": "",
          "type": "uint256"
        }
      ],
      "stateMutability": "nonpayable",
      "type": "function"
    },
    {
      "inputs": [
        {
          "internalType": "address",
          "name": "caller",
          "type": "address"
        },
        {
          "internalType": "uint256",
          "name": "assets",
          "type": "uint256"
        }
      ],
      "name": "depositYield",
      "outputs": [],
      "stateMutability": "nonpayable",
      "type": "function"
    },
    {
      "inputs": [
        {
          "internalType": "address",
          "name": "caller",
          "type": "address"
        },
        {
          "internalType": "uint256",
          "name": "assets",
          "type": "uint256"
        }
      ],
      "name": "fundLoan",
      "outputs": [],
      "stateMutability": "nonpayable",
      "type": "function"
    },
    {
      "inputs": [],
      "name": "getExchangeRate",
      "outputs": [
        {
          "internalType": "uint256",
          "name": "",
          "type": "uint256"
        }
      ],
      "stateMutability": "view",
      "type": "function"
    },
    {
      "inputs": [
        {
          "internalType": "bytes32",
          "name": "role",
          "type": "bytes32"
        }
      ],
      "name": "getRoleAdmin",
      "outputs": [
        {
          "internalType": "bytes32",
          "name": "",
          "type": "bytes32"
        }
      ],
      "stateMutability": "view",
      "type": "function"
    },
    {
      "inputs": [
        {
          "internalType": "bytes32",
          "name": "role",
          "type": "bytes32"
        },
        {
          "internalType": "address",
          "name": "account",
          "type": "address"
        }
      ],
      "name": "grantRole",
      "outputs": [],
      "stateMutability": "nonpayable",
      "type": "function"
    },
    {
      "inputs": [
        {
          "internalType": "bytes32",
          "name": "role",
          "type": "bytes32"
        },
        {
          "internalType": "address",
          "name": "account",
          "type": "address"
        }
      ],
      "name": "hasRole",
      "outputs": [
        {
          "internalType": "bool",
          "name": "",
          "type": "bool"
        }
      ],
      "stateMutability": "view",
      "type": "function"
    },
    {
      "inputs": [
        {
          "internalType": "address",
          "name": "spender",
          "type": "address"
        },
        {
          "internalType": "uint256",
          "name": "addedValue",
          "type": "uint256"
        }
      ],
      "name": "increaseAllowance",
      "outputs": [
        {
          "internalType": "bool",
          "name": "",
          "type": "bool"
        }
      ],
      "stateMutability": "nonpayable",
      "type": "function"
    },
    {
      "inputs": [
        {
          "internalType": "contract IERC20Upgradeable",
          "name": "asset",
          "type": "address"
        },
        {
          "internalType": "string",
          "name": "_name",
          "type": "string"
        },
        {
          "internalType": "string",
          "name": "_symbol",
          "type": "string"
        },
        {
          "internalType": "address",
          "name": "admin",
          "type": "address"
        }
      ],
      "name": "initialize",
      "outputs": [],
      "stateMutability": "nonpayable",
      "type": "function"
    },
    {
      "inputs": [
        {
          "internalType": "address",
          "name": "",
          "type": "address"
        }
      ],
      "name": "maxDeposit",
      "outputs": [
        {
          "internalType": "uint256",
          "name": "",
          "type": "uint256"
        }
      ],
      "stateMutability": "view",
      "type": "function"
    },
    {
      "inputs": [
        {
          "internalType": "address",
          "name": "",
          "type": "address"
        }
      ],
      "name": "maxMint",
      "outputs": [
        {
          "internalType": "uint256",
          "name": "",
          "type": "uint256"
        }
      ],
      "stateMutability": "view",
      "type": "function"
    },
    {
      "inputs": [
        {
          "internalType": "address",
          "name": "owner",
          "type": "address"
        }
      ],
      "name": "maxRedeem",
      "outputs": [
        {
          "internalType": "uint256",
          "name": "",
          "type": "uint256"
        }
      ],
      "stateMutability": "view",
      "type": "function"
    },
    {
      "inputs": [
        {
          "internalType": "address",
          "name": "owner",
          "type": "address"
        }
      ],
      "name": "maxWithdraw",
      "outputs": [
        {
          "internalType": "uint256",
          "name": "",
          "type": "uint256"
        }
      ],
      "stateMutability": "view",
      "type": "function"
    },
    {
      "inputs": [
        {
          "internalType": "uint256",
          "name": "shares",
          "type": "uint256"
        },
        {
          "internalType": "address",
          "name": "receiver",
          "type": "address"
        }
      ],
      "name": "mint",
      "outputs": [
        {
          "internalType": "uint256",
          "name": "",
          "type": "uint256"
        }
      ],
      "stateMutability": "nonpayable",
      "type": "function"
    },
    {
      "inputs": [],
      "name": "name",
      "outputs": [
        {
          "internalType": "string",
          "name": "",
          "type": "string"
        }
      ],
      "stateMutability": "view",
      "type": "function"
    },
    {
      "inputs": [
        {
          "internalType": "uint256",
          "name": "assets",
          "type": "uint256"
        }
      ],
      "name": "previewDeposit",
      "outputs": [
        {
          "internalType": "uint256",
          "name": "",
          "type": "uint256"
        }
      ],
      "stateMutability": "view",
      "type": "function"
    },
    {
      "inputs": [
        {
          "internalType": "uint256",
          "name": "shares",
          "type": "uint256"
        }
      ],
      "name": "previewMint",
      "outputs": [
        {
          "internalType": "uint256",
          "name": "",
          "type": "uint256"
        }
      ],
      "stateMutability": "view",
      "type": "function"
    },
    {
      "inputs": [
        {
          "internalType": "uint256",
          "name": "shares",
          "type": "uint256"
        }
      ],
      "name": "previewRedeem",
      "outputs": [
        {
          "internalType": "uint256",
          "name": "",
          "type": "uint256"
        }
      ],
      "stateMutability": "view",
      "type": "function"
    },
    {
      "inputs": [
        {
          "internalType": "uint256",
          "name": "assets",
          "type": "uint256"
        }
      ],
      "name": "previewWithdraw",
      "outputs": [
        {
          "internalType": "uint256",
          "name": "",
          "type": "uint256"
        }
      ],
      "stateMutability": "view",
      "type": "function"
    },
    {
      "inputs": [
        {
          "internalType": "uint256",
          "name": "shares",
          "type": "uint256"
        },
        {
          "internalType": "address",
          "name": "receiver",
          "type": "address"
        },
        {
          "internalType": "address",
          "name": "owner",
          "type": "address"
        }
      ],
      "name": "redeem",
      "outputs": [
        {
          "internalType": "uint256",
          "name": "",
          "type": "uint256"
        }
      ],
      "stateMutability": "nonpayable",
      "type": "function"
    },
    {
      "inputs": [
        {
          "internalType": "bytes32",
          "name": "role",
          "type": "bytes32"
        },
        {
          "internalType": "address",
          "name": "account",
          "type": "address"
        }
      ],
      "name": "renounceRole",
      "outputs": [],
      "stateMutability": "nonpayable",
      "type": "function"
    },
    {
      "inputs": [
        {
          "internalType": "address",
          "name": "caller",
          "type": "address"
        },
        {
          "internalType": "uint256",
          "name": "assets",
          "type": "uint256"
        }
      ],
      "name": "repayLoan",
      "outputs": [],
      "stateMutability": "nonpayable",
      "type": "function"
    },
    {
      "inputs": [
        {
          "internalType": "bytes32",
          "name": "role",
          "type": "bytes32"
        },
        {
          "internalType": "address",
          "name": "account",
          "type": "address"
        }
      ],
      "name": "revokeRole",
      "outputs": [],
      "stateMutability": "nonpayable",
      "type": "function"
    },
    {
      "inputs": [
        {
          "internalType": "bytes4",
          "name": "interfaceId",
          "type": "bytes4"
        }
      ],
      "name": "supportsInterface",
      "outputs": [
        {
          "internalType": "bool",
          "name": "",
          "type": "bool"
        }
      ],
      "stateMutability": "view",
      "type": "function"
    },
    {
      "inputs": [],
      "name": "symbol",
      "outputs": [
        {
          "internalType": "string",
          "name": "",
          "type": "string"
        }
      ],
      "stateMutability": "view",
      "type": "function"
    },
    {
      "inputs": [],
      "name": "totalAssets",
      "outputs": [
        {
          "internalType": "uint256",
          "name": "",
          "type": "uint256"
        }
      ],
      "stateMutability": "view",
      "type": "function"
    },
    {
      "inputs": [],
      "name": "totalSupply",
      "outputs": [
        {
          "internalType": "uint256",
          "name": "",
          "type": "uint256"
        }
      ],
      "stateMutability": "view",
      "type": "function"
    },
    {
      "inputs": [
        {
          "internalType": "address",
          "name": "to",
          "type": "address"
        },
        {
          "internalType": "uint256",
          "name": "amount",
          "type": "uint256"
        }
      ],
      "name": "transfer",
      "outputs": [
        {
          "internalType": "bool",
          "name": "",
          "type": "bool"
        }
      ],
      "stateMutability": "nonpayable",
      "type": "function"
    },
    {
      "inputs": [
        {
          "internalType": "address",
          "name": "from",
          "type": "address"
        },
        {
          "internalType": "address",
          "name": "to",
          "type": "address"
        },
        {
          "internalType": "uint256",
          "name": "amount",
          "type": "uint256"
        }
      ],
      "name": "transferFrom",
      "outputs": [
        {
          "internalType": "bool",
          "name": "",
          "type": "bool"
        }
      ],
      "stateMutability": "nonpayable",
      "type": "function"
    },
    {
      "inputs": [
        {
          "internalType": "uint256",
          "name": "assets",
          "type": "uint256"
        },
        {
          "internalType": "address",
          "name": "receiver",
          "type": "address"
        },
        {
          "internalType": "address",
          "name": "owner",
          "type": "address"
        }
      ],
      "name": "withdraw",
      "outputs": [
        {
          "internalType": "uint256",
          "name": "",
          "type": "uint256"
        }
      ],
      "stateMutability": "nonpayable",
      "type": "function"
    }
  ],
  "bytecode": "0x608060405234801561001057600080fd5b5061293e806100206000396000f3fe608060405234801561001057600080fd5b50600436106102745760003560e01c806391d1485411610151578063c63d75b6116100c3578063d905777e11610087578063d905777e1461056f578063dd62ed3e14610582578063e641bde114610595578063e6aa216c146105a8578063e920b1e1146105b0578063ef8b30f71461052357600080fd5b8063c63d75b6146103c6578063c6e6f59214610523578063ce96cb7714610536578063d547741f14610549578063d69961851461055c57600080fd5b8063a217fddf11610115578063a217fddf146104bc578063a457c2d7146104c4578063a9059cbb146104d7578063b3d7f6b9146104ea578063b460af94146104fd578063ba0876521461051057600080fd5b806391d148541461046657806393a595f51461047957806394bf804d1461048c57806395d89b411461049f578063a125142b146104a757600080fd5b8063313ce567116101ea5780634cdad506116101ae5780634cdad506146102cc578063525b9fde146103db578063613d25bb146104025780636e553f651461041557806370a082311461042857806376082a5e1461045157600080fd5b8063313ce5671461036b57806336568abe1461038557806338d52e0f1461039857806339509351146103b3578063402d267d146103c657600080fd5b80630a28a4771161023c5780630a28a477146102f257806318160ddd1461030557806319d349e11461030d57806323b872dd14610322578063248a9ca3146103355780632f2ff15d1461035857600080fd5b806301e1d1141461027957806301ffc9a71461029457806306fdde03146102b757806307a2d13a146102cc578063095ea7b3146102df575b600080fd5b6102816105c3565b6040519081526020015b60405180910390f35b6102a76102a236600461218a565b610635565b604051901515815260200161028b565b6102bf61066c565b60405161028b91906121d8565b6102816102da36600461220b565b6106fe565b6102a76102ed366004612239565b61070b565b61028161030036600461220b565b610723565b603554610281565b61032061031b366004612265565b610730565b005b6102a7610330366004612282565b6107cc565b61028161034336600461220b565b600090815260c9602052604090206001015490565b6103206103663660046122c3565b6107f2565b61037361081c565b60405160ff909116815260200161028b565b6103206103933660046122c3565b610836565b6065546040516001600160a01b03909116815260200161028b565b6102a76103c1366004612239565b6108b9565b6102816103d4366004612265565b5060001990565b6102817fa03a3445a42c88c4c71fab3b69391367d1386136663ed015f42f4322182d454781565b610320610410366004612396565b6108db565b6102816104233660046122c3565b610a0e565b610281610436366004612265565b6001600160a01b031660009081526033602052604090205490565b6102816000805160206128c983398151915281565b6102a76104743660046122c3565b610ac1565b610320610487366004612239565b610aec565b61028161049a3660046122c3565b610b6f565b6102bf610b89565b6102816000805160206128e983398151915281565b610281600081565b6102a76104d2366004612239565b610b98565b6102a76104e5366004612239565b610c1e565b6102816104f836600461220b565b610c2c565b61028161050b36600461241f565b610c39565b61028161051e36600461241f565b610d47565b61028161053136600461220b565b610e48565b610281610544366004612265565b610e55565b6103206105573660046122c3565b610e79565b61032061056a366004612239565b610e9e565b61028161057d366004612265565b610f24565b610281610590366004612461565b610f42565b6103206105a3366004612265565b610f6d565b610281610ffb565b6103206105be366004612239565b611020565b6065546040516370a0823160e01b81523060048201526000916001600160a01b0316906370a0823190602401602060405180830381865afa15801561060c573d6000803e3d6000fd5b505050506040513d601f19601f82011682018060405250810190610630919061248f565b905090565b60006001600160e01b03198216637965db0b60e01b148061066657506301ffc9a760e01b6001600160e01b03198316145b92915050565b60606036805461067b906124a8565b80601f01602080910402602001604051908101604052809291908181526020018280546106a7906124a8565b80156106f45780601f106106c9576101008083540402835291602001916106f4565b820191906000526020600020905b8154815290600101906020018083116106d757829003601f168201915b5050505050905090565b60006106668260006110a4565b6000336107198185856110da565b5060019392505050565b60006106668260016111fe565b600061073b81611229565b6107536000805160206128e983398151915283611236565b816001600160a01b0316306001600160a01b03167f957fb90b0e4d3404d5f3c67da77f0b6c10b78c4e162ae787aab6e0a9801c58f5426040516107c09181526040602082018190526010908201526f13dc9a59da5b985d1bdc88185919195960821b606082015260800190565b60405180910390a35050565b6000336107da8582856112bc565b6107e5858585611336565b60019150505b9392505050565b600082815260c9602052604090206001015461080d81611229565b6108178383611236565b505050565b6000806065546106309190600160a01b900460ff166124f8565b6001600160a01b03811633146108ab5760405162461bcd60e51b815260206004820152602f60248201527f416363657373436f6e74726f6c3a2063616e206f6e6c792072656e6f756e636560448201526e103937b632b9903337b91039b2b63360891b60648201526084015b60405180910390fd5b6108b582826114e1565b5050565b6000336107198185856108cc8383610f42565b6108d69190612511565b6110da565b600054610100900460ff16158080156108fb5750600054600160ff909116105b806109155750303b158015610915575060005460ff166001145b6109785760405162461bcd60e51b815260206004820152602e60248201527f496e697469616c697a61626c653a20636f6e747261637420697320616c72656160448201526d191e481a5b9a5d1a585b1a5e995960921b60648201526084016108a2565b6000805460ff19166001179055801561099b576000805461ff0019166101001790555b6109a3611548565b6109ad8484611571565b6109b6856115a2565b6109c1600083611236565b8015610a07576000805461ff0019169055604051600181527f7f26b83ff96e1f2b6a682f133852f6798a09c465da95921460cefb38474024989060200160405180910390a15b5050505050565b60006000805160206128c9833981519152610a2881611229565b6000610a3385610e48565b9050610a41338587846115d2565b8460fb6000828254610a539190612511565b925050819055508060fc6000828254610a6c9190612511565b909155505060408051868152602081018390526001600160a01b03861691339130917f0a662db3db99928cf1f3b00d839635b303e9a70a9afd276b8ccc58abf7b788a9910160405180910390a4949350505050565b600091825260c9602090815260408084206001600160a01b0393909316845291905290205460ff1690565b6000805160206128e9833981519152610b0481611229565b6000610b186065546001600160a01b031690565b9050610b2681853086611650565b6040518381526001600160a01b03851690339030907fa9aceea8f247392faeeb5841b0a1d25fc7beb1a4802973846acf749e0ccaa4bb906020015b60405180910390a450505050565b600080610b7b84610c2c565b90506107eb338483876115d2565b60606037805461067b906124a8565b60003381610ba68286610f42565b905083811015610c065760405162461bcd60e51b815260206004820152602560248201527f45524332303a2064656372656173656420616c6c6f77616e63652062656c6f77604482015264207a65726f60d81b60648201526084016108a2565b610c1382868684036110da565b506001949350505050565b600033610719818585611336565b60006106668260016110a4565b60006000805160206128c9833981519152610c5381611229565b610c5c83610e55565b851115610cab5760405162461bcd60e51b815260206004820152601f60248201527f455243343632363a207769746864726177206d6f7265207468616e206d61780060448201526064016108a2565b6000610cb686610723565b9050610cc533868689856116bb565b8560fb6000828254610cd79190612524565b925050819055508060fc6000828254610cf09190612524565b909155505060408051878152602081018390526001600160a01b03871691339130917f3745d31426aa507688b23bf76b4a545f0710948be217c5aeb7cf7f2641a2b6f791015b60405180910390a495945050505050565b60006000805160206128c9833981519152610d6181611229565b610d6a83610f24565b851115610db95760405162461bcd60e51b815260206004820152601d60248201527f455243343632363a2072656465656d206d6f7265207468616e206d617800000060448201526064016108a2565b6000610dc4866106fe565b9050610dd3338686848a6116bb565b8060fb6000828254610de59190612524565b925050819055508560fc6000828254610dfe9190612524565b909155505060408051828152602081018890526001600160a01b03871691339130917ffd92f6be22bd377a653f95b01c61d68b48bcfdc347abf3d5e2655452d2ef979d9101610d36565b60006106668260006111fe565b6001600160a01b0381166000908152603360205260408120546106669060006110a4565b600082815260c96020526040902060010154610e9481611229565b61081783836114e1565b6000805160206128e9833981519152610eb681611229565b8160fb6000828254610ec89190612511565b90915550506065546001600160a01b0316610ee581853086611650565b6040518381526001600160a01b03851690339030907f2a723df228a8e6817b689137c5f4207c6bdd17e5af43ce5e48441dee3ae7e30c90602001610b61565b6001600160a01b038116600090815260336020526040812054610666565b6001600160a01b03918216600090815260346020908152604080832093909416825291909152205490565b6000610f7881611229565b610f906000805160206128c983398151915283611236565b816001600160a01b0316306001600160a01b03167fd70c75e3d1d01d1027f8789f17cf758dbb650cc768e5bd59c013086c26c571fa426040516107c0918152604060208201819052600e908201526d125b9d995cdd1bdc88185919195960921b606082015260800190565b600060fc5460fb54670de0b6b3a76400006110169190612537565b6106309190612564565b6000805160206128e983398151915261103881611229565b600061104c6065546001600160a01b031690565b9050611059813085611767565b61106581308686611650565b6040518381526001600160a01b03851690339030907fd4af8ae7d7eed6b128545c6721ddb25e688f18fd0871bfebbe7ac8b2f767d9d690602001610b61565b60006107eb60fb5460016110b89190612511565b6110c46000600a61266a565b60fc546110d19190612511565b8591908561187c565b6001600160a01b03831661113c5760405162461bcd60e51b8152602060048201526024808201527f45524332303a20617070726f76652066726f6d20746865207a65726f206164646044820152637265737360e01b60648201526084016108a2565b6001600160a01b03821661119d5760405162461bcd60e51b815260206004820152602260248201527f45524332303a20617070726f766520746f20746865207a65726f206164647265604482015261737360f01b60648201526084016108a2565b6001600160a01b0383811660008181526034602090815260408083209487168084529482529182902085905590518481527f8c5be1e5ebec7d5bd14f71427d1e84f3dd0314c0f7b2291e5b200ac8c7c3b925910160405180910390a3505050565b60006107eb61120e82600a61266a565b60fc5461121b9190612511565b60fb546110d1906001612511565b61123381336118db565b50565b6112408282610ac1565b6108b557600082815260c9602090815260408083206001600160a01b03851684529091529020805460ff191660011790556112783390565b6001600160a01b0316816001600160a01b0316837f2f8788117e7eff1d82e926ec794901d17c78024a50270940304540a733656f0d60405160405180910390a45050565b60006112c88484610f42565b9050600019811461133057818110156113235760405162461bcd60e51b815260206004820152601d60248201527f45524332303a20696e73756666696369656e7420616c6c6f77616e636500000060448201526064016108a2565b61133084848484036110da565b50505050565b6001600160a01b03831661139a5760405162461bcd60e51b815260206004820152602560248201527f45524332303a207472616e736665722066726f6d20746865207a65726f206164604482015264647265737360d81b60648201526084016108a2565b6001600160a01b0382166113fc5760405162461bcd60e51b815260206004820152602360248201527f45524332303a207472616e7366657220746f20746865207a65726f206164647260448201526265737360e81b60648201526084016108a2565b6001600160a01b038316600090815260336020526040902054818110156114745760405162461bcd60e51b815260206004820152602660248201527f45524332303a207472616e7366657220616d6f756e7420657863656564732062604482015265616c616e636560d01b60648201526084016108a2565b6001600160a01b0380851660008181526033602052604080822086860390559286168082529083902080548601905591517fddf252ad1be2c89b69c2b068fc378daa952ba7f163c4a11628f55a4df523b3ef906114d49086815260200190565b60405180910390a3611330565b6114eb8282610ac1565b156108b557600082815260c9602090815260408083206001600160a01b0385168085529252808320805460ff1916905551339285917ff6391f5c32d9c69d2a47ea670b442974b53935d1edc7fd64eb21e047a839171b9190a45050565b600054610100900460ff1661156f5760405162461bcd60e51b81526004016108a290612679565b565b600054610100900460ff166115985760405162461bcd60e51b81526004016108a290612679565b6108b58282611934565b600054610100900460ff166115c95760405162461bcd60e51b81526004016108a290612679565b61123381611974565b6065546115ea906001600160a01b0316853085611650565b6115f483826119f9565b826001600160a01b0316846001600160a01b03167fdcbc1c05240f31ff3ad067ef1ee35ce4997762752e3a095284754544f4c709d78484604051611642929190918252602082015260400190565b60405180910390a350505050565b6040516001600160a01b03808516602483015283166044820152606481018290526113309085906323b872dd60e01b906084015b60408051601f198184030181529190526020810180516001600160e01b03166001600160e01b031990931692909217909152611aba565b826001600160a01b0316856001600160a01b0316146116df576116df8386836112bc565b6116e98382611b8f565b606554611700906001600160a01b03168584611cc3565b826001600160a01b0316846001600160a01b0316866001600160a01b03167ffbde797d201c681b91056529119e0b02407c7bb96a4a2c75c01fc9667232c8db8585604051611758929190918252602082015260400190565b60405180910390a45050505050565b8015806117e15750604051636eb1769f60e11b81523060048201526001600160a01b03838116602483015284169063dd62ed3e90604401602060405180830381865afa1580156117bb573d6000803e3d6000fd5b505050506040513d601f19601f820116820180604052508101906117df919061248f565b155b61184c5760405162461bcd60e51b815260206004820152603660248201527f5361666545524332303a20617070726f76652066726f6d206e6f6e2d7a65726f60448201527520746f206e6f6e2d7a65726f20616c6c6f77616e636560501b60648201526084016108a2565b6040516001600160a01b03831660248201526044810182905261081790849063095ea7b360e01b90606401611684565b60008061188a868686611cf3565b905060018360028111156118a0576118a06126c4565b1480156118bd5750600084806118b8576118b861254e565b868809115b156118d0576118cd600182612511565b90505b90505b949350505050565b6118e58282610ac1565b6108b5576118f281611ddd565b6118fd836020611def565b60405160200161190e9291906126da565b60408051601f198184030181529082905262461bcd60e51b82526108a2916004016121d8565b600054610100900460ff1661195b5760405162461bcd60e51b81526004016108a290612679565b6036611967838261279d565b506037610817828261279d565b600054610100900460ff1661199b5760405162461bcd60e51b81526004016108a290612679565b6000806119a783611f8b565b91509150816119b75760126119b9565b805b606580546001600160a01b039095166001600160a01b031960ff93909316600160a01b02929092166001600160a81b031990951694909417179092555050565b6001600160a01b038216611a4f5760405162461bcd60e51b815260206004820152601f60248201527f45524332303a206d696e7420746f20746865207a65726f20616464726573730060448201526064016108a2565b8060356000828254611a619190612511565b90915550506001600160a01b0382166000818152603360209081526040808320805486019055518481527fddf252ad1be2c89b69c2b068fc378daa952ba7f163c4a11628f55a4df523b3ef910160405180910390a35050565b6000611b0f826040518060400160405280602081526020017f5361666545524332303a206c6f772d6c6576656c2063616c6c206661696c6564815250856001600160a01b03166120679092919063ffffffff16565b9050805160001480611b30575080806020019051810190611b30919061285d565b6108175760405162461bcd60e51b815260206004820152602a60248201527f5361666545524332303a204552433230206f7065726174696f6e20646964206e6044820152691bdd081cdd58d8d9595960b21b60648201526084016108a2565b6001600160a01b038216611bef5760405162461bcd60e51b815260206004820152602160248201527f45524332303a206275726e2066726f6d20746865207a65726f206164647265736044820152607360f81b60648201526084016108a2565b6001600160a01b03821660009081526033602052604090205481811015611c635760405162461bcd60e51b815260206004820152602260248201527f45524332303a206275726e20616d6f756e7420657863656564732062616c616e604482015261636560f01b60648201526084016108a2565b6001600160a01b03831660008181526033602090815260408083208686039055603580548790039055518581529192917fddf252ad1be2c89b69c2b068fc378daa952ba7f163c4a11628f55a4df523b3ef910160405180910390a3505050565b6040516001600160a01b03831660248201526044810182905261081790849063a9059cbb60e01b90606401611684565b6000808060001985870985870292508281108382030391505080600003611d2d57838281611d2357611d2361254e565b04925050506107eb565b808411611d745760405162461bcd60e51b81526020600482015260156024820152744d6174683a206d756c446976206f766572666c6f7760581b60448201526064016108a2565b60008486880960026001871981018816978890046003810283188082028403028082028403028082028403028082028403028082028403029081029092039091026000889003889004909101858311909403939093029303949094049190911702949350505050565b60606106666001600160a01b03831660145b60606000611dfe836002612537565b611e09906002612511565b67ffffffffffffffff811115611e2157611e216122f3565b6040519080825280601f01601f191660200182016040528015611e4b576020820181803683370190505b509050600360fc1b81600081518110611e6657611e6661287f565b60200101906001600160f81b031916908160001a905350600f60fb1b81600181518110611e9557611e9561287f565b60200101906001600160f81b031916908160001a9053506000611eb9846002612537565b611ec4906001612511565b90505b6001811115611f3c576f181899199a1a9b1b9c1cb0b131b232b360811b85600f1660108110611ef857611ef861287f565b1a60f81b828281518110611f0e57611f0e61287f565b60200101906001600160f81b031916908160001a90535060049490941c93611f3581612895565b9050611ec7565b5083156107eb5760405162461bcd60e51b815260206004820181905260248201527f537472696e67733a20686578206c656e67746820696e73756666696369656e7460448201526064016108a2565b60408051600481526024810182526020810180516001600160e01b031663313ce56760e01b17905290516000918291829182916001600160a01b03871691611fd2916128ac565b600060405180830381855afa9150503d806000811461200d576040519150601f19603f3d011682016040523d82523d6000602084013e612012565b606091505b509150915081801561202657506020815110155b1561205a57600081806020019051810190612041919061248f565b905060ff8111612058576001969095509350505050565b505b5060009485945092505050565b60606118d3848460008585600080866001600160a01b0316858760405161208e91906128ac565b60006040518083038185875af1925050503d80600081146120cb576040519150601f19603f3d011682016040523d82523d6000602084013e6120d0565b606091505b50915091506120e1878383876120ec565b979650505050505050565b6060831561215b578251600003612154576001600160a01b0385163b6121545760405162461bcd60e51b815260206004820152601d60248201527f416464726573733a2063616c6c20746f206e6f6e2d636f6e747261637400000060448201526064016108a2565b50816118d3565b6118d383838151156121705781518083602001fd5b8060405162461bcd60e51b81526004016108a291906121d8565b60006020828403121561219c57600080fd5b81356001600160e01b0319811681146107eb57600080fd5b60005b838110156121cf5781810151838201526020016121b7565b50506000910152565b60208152600082518060208401526121f78160408501602087016121b4565b601f01601f19169190910160400192915050565b60006020828403121561221d57600080fd5b5035919050565b6001600160a01b038116811461123357600080fd5b6000806040838503121561224c57600080fd5b823561225781612224565b946020939093013593505050565b60006020828403121561227757600080fd5b81356107eb81612224565b60008060006060848603121561229757600080fd5b83356122a281612224565b925060208401356122b281612224565b929592945050506040919091013590565b600080604083850312156122d657600080fd5b8235915060208301356122e881612224565b809150509250929050565b634e487b7160e01b600052604160045260246000fd5b600082601f83011261231a57600080fd5b813567ffffffffffffffff80821115612335576123356122f3565b604051601f8301601f19908116603f0116810190828211818310171561235d5761235d6122f3565b8160405283815286602085880101111561237657600080fd5b836020870160208301376000602085830101528094505050505092915050565b600080600080608085870312156123ac57600080fd5b84356123b781612224565b9350602085013567ffffffffffffffff808211156123d457600080fd5b6123e088838901612309565b945060408701359150808211156123f657600080fd5b5061240387828801612309565b925050606085013561241481612224565b939692955090935050565b60008060006060848603121561243457600080fd5b83359250602084013561244681612224565b9150604084013561245681612224565b809150509250925092565b6000806040838503121561247457600080fd5b823561247f81612224565b915060208301356122e881612224565b6000602082840312156124a157600080fd5b5051919050565b600181811c908216806124bc57607f821691505b6020821081036124dc57634e487b7160e01b600052602260045260246000fd5b50919050565b634e487b7160e01b600052601160045260246000fd5b60ff8181168382160190811115610666576106666124e2565b80820180821115610666576106666124e2565b81810381811115610666576106666124e2565b8082028115828204841417610666576106666124e2565b634e487b7160e01b600052601260045260246000fd5b60008261258157634e487b7160e01b600052601260045260246000fd5b500490565b600181815b808511156125c15781600019048211156125a7576125a76124e2565b808516156125b457918102915b93841c939080029061258b565b509250929050565b6000826125d857506001610666565b816125e557506000610666565b81600181146125fb576002811461260557612621565b6001915050610666565b60ff841115612616576126166124e2565b50506001821b610666565b5060208310610133831016604e8410600b8410161715612644575081810a610666565b61264e8383612586565b8060001904821115612662576126626124e2565b029392505050565b60006107eb60ff8416836125c9565b6020808252602b908201527f496e697469616c697a61626c653a20636f6e7472616374206973206e6f74206960408201526a6e697469616c697a696e6760a81b606082015260800190565b634e487b7160e01b600052602160045260246000fd5b7f416363657373436f6e74726f6c3a206163636f756e74200000000000000000008152600083516127128160178501602088016121b4565b7001034b99036b4b9b9b4b733903937b6329607d1b60179184019182015283516127438160288401602088016121b4565b01602801949350505050565b601f82111561081757600081815260208120601f850160051c810160208610156127765750805b601f850160051c820191505b8181101561279557828155600101612782565b505050505050565b815167ffffffffffffffff8111156127b7576127b76122f3565b6127cb816127c584546124a8565b8461274f565b602080601f83116001811461280057600084156127e85750858301515b600019600386901b1c1916600185901b178555612795565b600085815260208120601f198616915b8281101561282f57888601518255948401946001909101908401612810565b508582101561284d5787850151600019600388901b60f8161c191681555b5050505050600190811b01905550565b60006020828403121561286f57600080fd5b815180151581146107eb57600080fd5b634e487b7160e01b600052603260045260246000fd5b6000816128a4576128a46124e2565b506000190190565b600082516128be8184602087016121b4565b919091019291505056feb165298935924f540e4181c03493a5d686c54a0aaeb3f6216de85b7ffbba773859abfac6520ec36a6556b2a4dd949cc40007459bcd5cd2507f1e5cc77b6bc97ea264697066735822122062cff3036063f5dbd23bb50f849e668d12b9afb02fb4fa41e200d3e0bbb819d864736f6c63430008120033",
  "linkReferences": {},
  "deployedLinkReferences": {}
}