{
  "_format": "hh-sol-artifact-1",
  "contractName": "Vault",
  "sourceName": "contracts/Vault.sol",
  "abi": [
    {
      "anonymous": false,
      "inputs": [
        {
          "indexed": true,
          "internalType": "address",
          "name": "owner",
          "type": "address"
        },
        {
          "indexed": true,
          "internalType": "address",
          "name": "spender",
          "type": "address"
        },
        {
          "indexed": false,
          "internalType": "uint256",
          "name": "value",
          "type": "uint256"
        }
      ],
      "name": "Approval",
      "type": "event"
    },
    {
      "anonymous": false,
      "inputs": [
        {
          "indexed": true,
          "internalType": "address",
          "name": "sender",
          "type": "address"
        },
        {
          "indexed": true,
          "internalType": "address",
          "name": "owner",
          "type": "address"
        },
        {
          "indexed": false,
          "internalType": "uint256",
          "name": "assets",
          "type": "uint256"
        },
        {
          "indexed": false,
          "internalType": "uint256",
          "name": "shares",
          "type": "uint256"
        }
      ],
      "name": "Deposit",
      "type": "event"
    },
    {
      "anonymous": false,
      "inputs": [
        {
          "indexed": false,
          "internalType": "uint8",
          "name": "version",
          "type": "uint8"
        }
      ],
      "name": "Initialized",
      "type": "event"
    },
    {
      "anonymous": false,
      "inputs": [
        {
          "indexed": true,
          "internalType": "address",
          "name": "user",
          "type": "address"
        },
        {
          "indexed": false,
          "internalType": "uint256",
          "name": "timestamp",
          "type": "uint256"
        },
        {
          "indexed": false,
          "internalType": "string",
          "name": "message",
          "type": "string"
        }
      ],
      "name": "InvestorAdded",
      "type": "event"
    },
    {
      "anonymous": false,
      "inputs": [
        {
          "indexed": true,
          "internalType": "address",
          "name": "user",
          "type": "address"
        },
        {
          "indexed": false,
          "internalType": "uint256",
          "name": "timestamp",
          "type": "uint256"
        },
        {
          "indexed": false,
          "internalType": "string",
          "name": "message",
          "type": "string"
        }
      ],
      "name": "OriginatorAdded",
      "type": "event"
    },
    {
      "anonymous": false,
      "inputs": [
        {
          "indexed": true,
          "internalType": "bytes32",
          "name": "role",
          "type": "bytes32"
        },
        {
          "indexed": true,
          "internalType": "bytes32",
          "name": "previousAdminRole",
          "type": "bytes32"
        },
        {
          "indexed": true,
          "internalType": "bytes32",
          "name": "newAdminRole",
          "type": "bytes32"
        }
      ],
      "name": "RoleAdminChanged",
      "type": "event"
    },
    {
      "anonymous": false,
      "inputs": [
        {
          "indexed": true,
          "internalType": "bytes32",
          "name": "role",
          "type": "bytes32"
        },
        {
          "indexed": true,
          "internalType": "address",
          "name": "account",
          "type": "address"
        },
        {
          "indexed": true,
          "internalType": "address",
          "name": "sender",
          "type": "address"
        }
      ],
      "name": "RoleGranted",
      "type": "event"
    },
    {
      "anonymous": false,
      "inputs": [
        {
          "indexed": true,
          "internalType": "bytes32",
          "name": "role",
          "type": "bytes32"
        },
        {
          "indexed": true,
          "internalType": "address",
          "name": "account",
          "type": "address"
        },
        {
          "indexed": true,
          "internalType": "address",
          "name": "sender",
          "type": "address"
        }
      ],
      "name": "RoleRevoked",
      "type": "event"
    },
    {
      "anonymous": false,
      "inputs": [
        {
          "indexed": true,
          "internalType": "address",
          "name": "from",
          "type": "address"
        },
        {
          "indexed": true,
          "internalType": "address",
          "name": "to",
          "type": "address"
        },
        {
          "indexed": false,
          "internalType": "uint256",
          "name": "value",
          "type": "uint256"
        }
      ],
      "name": "Transfer",
      "type": "event"
    },
    {
      "anonymous": false,
      "inputs": [
        {
          "indexed": true,
          "internalType": "address",
          "name": "sender",
          "type": "address"
        },
        {
          "indexed": true,
          "internalType": "address",
          "name": "receiver",
          "type": "address"
        },
        {
          "indexed": true,
          "internalType": "address",
          "name": "owner",
          "type": "address"
        },
        {
          "indexed": false,
          "internalType": "uint256",
          "name": "assets",
          "type": "uint256"
        },
        {
          "indexed": false,
          "internalType": "uint256",
          "name": "shares",
          "type": "uint256"
        }
      ],
      "name": "Withdraw",
      "type": "event"
    },
    {
      "inputs": [],
      "name": "DEFAULT_ADMIN_ROLE",
      "outputs": [
        {
          "internalType": "bytes32",
          "name": "",
          "type": "bytes32"
        }
      ],
      "stateMutability": "view",
      "type": "function"
    },
    {
      "inputs": [],
      "name": "INVESTOR_ROLE",
      "outputs": [
        {
          "internalType": "bytes32",
          "name": "",
          "type": "bytes32"
        }
      ],
      "stateMutability": "view",
      "type": "function"
    },
    {
      "inputs": [],
      "name": "LOAN_MANAGER_ROLE",
      "outputs": [
        {
          "internalType": "bytes32",
          "name": "",
          "type": "bytes32"
        }
      ],
      "stateMutability": "view",
      "type": "function"
    },
    {
      "inputs": [],
      "name": "ORIGINATOR_ROLE",
      "outputs": [
        {
          "internalType": "bytes32",
          "name": "",
          "type": "bytes32"
        }
      ],
      "stateMutability": "view",
      "type": "function"
    },
    {
      "inputs": [
        {
          "internalType": "address",
          "name": "investor",
          "type": "address"
        }
      ],
      "name": "addInvestor",
      "outputs": [],
      "stateMutability": "nonpayable",
      "type": "function"
    },
    {
      "inputs": [
        {
          "internalType": "address",
          "name": "originator",
          "type": "address"
        }
      ],
      "name": "addOriginator",
      "outputs": [],
      "stateMutability": "nonpayable",
      "type": "function"
    },
    {
      "inputs": [
        {
          "internalType": "address",
          "name": "owner",
          "type": "address"
        },
        {
          "internalType": "address",
          "name": "spender",
          "type": "address"
        }
      ],
      "name": "allowance",
      "outputs": [
        {
          "internalType": "uint256",
          "name": "",
          "type": "uint256"
        }
      ],
      "stateMutability": "view",
      "type": "function"
    },
    {
      "inputs": [
        {
          "internalType": "address",
          "name": "spender",
          "type": "address"
        },
        {
          "internalType": "uint256",
          "name": "amount",
          "type": "uint256"
        }
      ],
      "name": "approve",
      "outputs": [
        {
          "internalType": "bool",
          "name": "",
          "type": "bool"
        }
      ],
      "stateMutability": "nonpayable",
      "type": "function"
    },
    {
      "inputs": [],
      "name": "asset",
      "outputs": [
        {
          "internalType": "address",
          "name": "",
          "type": "address"
        }
      ],
      "stateMutability": "view",
      "type": "function"
    },
    {
      "inputs": [
        {
          "internalType": "address",
          "name": "account",
          "type": "address"
        }
      ],
      "name": "balanceOf",
      "outputs": [
        {
          "internalType": "uint256",
          "name": "",
          "type": "uint256"
        }
      ],
      "stateMutability": "view",
      "type": "function"
    },
    {
      "inputs": [
        {
          "internalType": "uint256",
          "name": "shares",
          "type": "uint256"
        }
      ],
      "name": "convertToAssets",
      "outputs": [
        {
          "internalType": "uint256",
          "name": "",
          "type": "uint256"
        }
      ],
      "stateMutability": "view",
      "type": "function"
    },
    {
      "inputs": [
        {
          "internalType": "uint256",
          "name": "assets",
          "type": "uint256"
        }
      ],
      "name": "convertToShares",
      "outputs": [
        {
          "internalType": "uint256",
          "name": "",
          "type": "uint256"
        }
      ],
      "stateMutability": "view",
      "type": "function"
    },
    {
      "inputs": [],
      "name": "decimals",
      "outputs": [
        {
          "internalType": "uint8",
          "name": "",
          "type": "uint8"
        }
      ],
      "stateMutability": "view",
      "type": "function"
    },
    {
      "inputs": [
        {
          "internalType": "address",
          "name": "spender",
          "type": "address"
        },
        {
          "internalType": "uint256",
          "name": "subtractedValue",
          "type": "uint256"
        }
      ],
      "name": "decreaseAllowance",
      "outputs": [
        {
          "internalType": "bool",
          "name": "",
          "type": "bool"
        }
      ],
      "stateMutability": "nonpayable",
      "type": "function"
    },
    {
      "inputs": [
        {
          "internalType": "uint256",
          "name": "assets",
          "type": "uint256"
        },
        {
          "internalType": "address",
          "name": "receiver",
          "type": "address"
        }
      ],
      "name": "deposit",
      "outputs": [
        {
          "internalType": "uint256",
          "name": "",
          "type": "uint256"
        }
      ],
      "stateMutability": "nonpayable",
      "type": "function"
    },
    {
      "inputs": [
        {
          "internalType": "address",
          "name": "caller",
          "type": "address"
        },
        {
          "internalType": "uint256",
          "name": "assets",
          "type": "uint256"
        }
      ],
      "name": "depositYield",
      "outputs": [],
      "stateMutability": "nonpayable",
      "type": "function"
    },
    {
      "inputs": [
        {
          "internalType": "address",
          "name": "caller",
          "type": "address"
        },
        {
          "internalType": "uint256",
          "name": "assets",
          "type": "uint256"
        }
      ],
      "name": "fundLoan",
      "outputs": [],
      "stateMutability": "nonpayable",
      "type": "function"
    },
    {
      "inputs": [],
      "name": "getExchangeRate",
      "outputs": [
        {
          "internalType": "uint256",
          "name": "",
          "type": "uint256"
        }
      ],
      "stateMutability": "view",
      "type": "function"
    },
    {
      "inputs": [
        {
          "internalType": "bytes32",
          "name": "role",
          "type": "bytes32"
        }
      ],
      "name": "getRoleAdmin",
      "outputs": [
        {
          "internalType": "bytes32",
          "name": "",
          "type": "bytes32"
        }
      ],
      "stateMutability": "view",
      "type": "function"
    },
    {
      "inputs": [
        {
          "internalType": "bytes32",
          "name": "role",
          "type": "bytes32"
        },
        {
          "internalType": "address",
          "name": "account",
          "type": "address"
        }
      ],
      "name": "grantRole",
      "outputs": [],
      "stateMutability": "nonpayable",
      "type": "function"
    },
    {
      "inputs": [
        {
          "internalType": "bytes32",
          "name": "role",
          "type": "bytes32"
        },
        {
          "internalType": "address",
          "name": "account",
          "type": "address"
        }
      ],
      "name": "hasRole",
      "outputs": [
        {
          "internalType": "bool",
          "name": "",
          "type": "bool"
        }
      ],
      "stateMutability": "view",
      "type": "function"
    },
    {
      "inputs": [
        {
          "internalType": "address",
          "name": "spender",
          "type": "address"
        },
        {
          "internalType": "uint256",
          "name": "addedValue",
          "type": "uint256"
        }
      ],
      "name": "increaseAllowance",
      "outputs": [
        {
          "internalType": "bool",
          "name": "",
          "type": "bool"
        }
      ],
      "stateMutability": "nonpayable",
      "type": "function"
    },
    {
      "inputs": [
        {
          "internalType": "contract IERC20Upgradeable",
          "name": "asset",
          "type": "address"
        },
        {
          "internalType": "string",
          "name": "_name",
          "type": "string"
        },
        {
          "internalType": "string",
          "name": "_symbol",
          "type": "string"
        },
        {
          "internalType": "address",
          "name": "admin",
          "type": "address"
        }
      ],
      "name": "initialize",
      "outputs": [],
      "stateMutability": "nonpayable",
      "type": "function"
    },
    {
      "inputs": [
        {
          "internalType": "address",
          "name": "",
          "type": "address"
        }
      ],
      "name": "maxDeposit",
      "outputs": [
        {
          "internalType": "uint256",
          "name": "",
          "type": "uint256"
        }
      ],
      "stateMutability": "view",
      "type": "function"
    },
    {
      "inputs": [
        {
          "internalType": "address",
          "name": "",
          "type": "address"
        }
      ],
      "name": "maxMint",
      "outputs": [
        {
          "internalType": "uint256",
          "name": "",
          "type": "uint256"
        }
      ],
      "stateMutability": "view",
      "type": "function"
    },
    {
      "inputs": [
        {
          "internalType": "address",
          "name": "owner",
          "type": "address"
        }
      ],
      "name": "maxRedeem",
      "outputs": [
        {
          "internalType": "uint256",
          "name": "",
          "type": "uint256"
        }
      ],
      "stateMutability": "view",
      "type": "function"
    },
    {
      "inputs": [
        {
          "internalType": "address",
          "name": "owner",
          "type": "address"
        }
      ],
      "name": "maxWithdraw",
      "outputs": [
        {
          "internalType": "uint256",
          "name": "",
          "type": "uint256"
        }
      ],
      "stateMutability": "view",
      "type": "function"
    },
    {
      "inputs": [
        {
          "internalType": "uint256",
          "name": "shares",
          "type": "uint256"
        },
        {
          "internalType": "address",
          "name": "receiver",
          "type": "address"
        }
      ],
      "name": "mint",
      "outputs": [
        {
          "internalType": "uint256",
          "name": "",
          "type": "uint256"
        }
      ],
      "stateMutability": "nonpayable",
      "type": "function"
    },
    {
      "inputs": [],
      "name": "name",
      "outputs": [
        {
          "internalType": "string",
          "name": "",
          "type": "string"
        }
      ],
      "stateMutability": "view",
      "type": "function"
    },
    {
      "inputs": [
        {
          "internalType": "uint256",
          "name": "assets",
          "type": "uint256"
        }
      ],
      "name": "previewDeposit",
      "outputs": [
        {
          "internalType": "uint256",
          "name": "",
          "type": "uint256"
        }
      ],
      "stateMutability": "view",
      "type": "function"
    },
    {
      "inputs": [
        {
          "internalType": "uint256",
          "name": "shares",
          "type": "uint256"
        }
      ],
      "name": "previewMint",
      "outputs": [
        {
          "internalType": "uint256",
          "name": "",
          "type": "uint256"
        }
      ],
      "stateMutability": "view",
      "type": "function"
    },
    {
      "inputs": [
        {
          "internalType": "uint256",
          "name": "shares",
          "type": "uint256"
        }
      ],
      "name": "previewRedeem",
      "outputs": [
        {
          "internalType": "uint256",
          "name": "",
          "type": "uint256"
        }
      ],
      "stateMutability": "view",
      "type": "function"
    },
    {
      "inputs": [
        {
          "internalType": "uint256",
          "name": "assets",
          "type": "uint256"
        }
      ],
      "name": "previewWithdraw",
      "outputs": [
        {
          "internalType": "uint256",
          "name": "",
          "type": "uint256"
        }
      ],
      "stateMutability": "view",
      "type": "function"
    },
    {
      "inputs": [
        {
          "internalType": "uint256",
          "name": "shares",
          "type": "uint256"
        },
        {
          "internalType": "address",
          "name": "receiver",
          "type": "address"
        },
        {
          "internalType": "address",
          "name": "owner",
          "type": "address"
        }
      ],
      "name": "redeem",
      "outputs": [
        {
          "internalType": "uint256",
          "name": "",
          "type": "uint256"
        }
      ],
      "stateMutability": "nonpayable",
      "type": "function"
    },
    {
      "inputs": [
        {
          "internalType": "bytes32",
          "name": "role",
          "type": "bytes32"
        },
        {
          "internalType": "address",
          "name": "account",
          "type": "address"
        }
      ],
      "name": "renounceRole",
      "outputs": [],
      "stateMutability": "nonpayable",
      "type": "function"
    },
    {
      "inputs": [
        {
          "internalType": "address",
          "name": "caller",
          "type": "address"
        },
        {
          "internalType": "uint256",
          "name": "assets",
          "type": "uint256"
        }
      ],
      "name": "repayLoan",
      "outputs": [],
      "stateMutability": "nonpayable",
      "type": "function"
    },
    {
      "inputs": [
        {
          "internalType": "bytes32",
          "name": "role",
          "type": "bytes32"
        },
        {
          "internalType": "address",
          "name": "account",
          "type": "address"
        }
      ],
      "name": "revokeRole",
      "outputs": [],
      "stateMutability": "nonpayable",
      "type": "function"
    },
    {
      "inputs": [
        {
          "internalType": "bytes4",
          "name": "interfaceId",
          "type": "bytes4"
        }
      ],
      "name": "supportsInterface",
      "outputs": [
        {
          "internalType": "bool",
          "name": "",
          "type": "bool"
        }
      ],
      "stateMutability": "view",
      "type": "function"
    },
    {
      "inputs": [],
      "name": "symbol",
      "outputs": [
        {
          "internalType": "string",
          "name": "",
          "type": "string"
        }
      ],
      "stateMutability": "view",
      "type": "function"
    },
    {
      "inputs": [],
      "name": "totalAssets",
      "outputs": [
        {
          "internalType": "uint256",
          "name": "",
          "type": "uint256"
        }
      ],
      "stateMutability": "view",
      "type": "function"
    },
    {
      "inputs": [],
      "name": "totalSupply",
      "outputs": [
        {
          "internalType": "uint256",
          "name": "",
          "type": "uint256"
        }
      ],
      "stateMutability": "view",
      "type": "function"
    },
    {
      "inputs": [
        {
          "internalType": "address",
          "name": "to",
          "type": "address"
        },
        {
          "internalType": "uint256",
          "name": "amount",
          "type": "uint256"
        }
      ],
      "name": "transfer",
      "outputs": [
        {
          "internalType": "bool",
          "name": "",
          "type": "bool"
        }
      ],
      "stateMutability": "nonpayable",
      "type": "function"
    },
    {
      "inputs": [
        {
          "internalType": "address",
          "name": "from",
          "type": "address"
        },
        {
          "internalType": "address",
          "name": "to",
          "type": "address"
        },
        {
          "internalType": "uint256",
          "name": "amount",
          "type": "uint256"
        }
      ],
      "name": "transferFrom",
      "outputs": [
        {
          "internalType": "bool",
          "name": "",
          "type": "bool"
        }
      ],
      "stateMutability": "nonpayable",
      "type": "function"
    },
    {
      "inputs": [
        {
          "internalType": "uint256",
          "name": "assets",
          "type": "uint256"
        },
        {
          "internalType": "address",
          "name": "receiver",
          "type": "address"
        },
        {
          "internalType": "address",
          "name": "owner",
          "type": "address"
        }
      ],
      "name": "withdraw",
      "outputs": [
        {
          "internalType": "uint256",
          "name": "",
          "type": "uint256"
        }
      ],
      "stateMutability": "nonpayable",
      "type": "function"
    }
  ],
  "bytecode": "0x608060405234801561001057600080fd5b50612786806100206000396000f3fe608060405234801561001057600080fd5b50600436106102745760003560e01c806391d1485411610151578063c63d75b6116100c3578063d905777e11610087578063d905777e1461056f578063dd62ed3e14610582578063e641bde114610595578063e6aa216c146105a8578063e920b1e1146105b0578063ef8b30f71461052357600080fd5b8063c63d75b6146103c6578063c6e6f59214610523578063ce96cb7714610536578063d547741f14610549578063d69961851461055c57600080fd5b8063a217fddf11610115578063a217fddf146104bc578063a457c2d7146104c4578063a9059cbb146104d7578063b3d7f6b9146104ea578063b460af94146104fd578063ba0876521461051057600080fd5b806391d148541461046657806393a595f51461047957806394bf804d1461048c57806395d89b411461049f578063a125142b146104a757600080fd5b8063313ce567116101ea5780634cdad506116101ae5780634cdad506146102cc578063525b9fde146103db578063613d25bb146104025780636e553f651461041557806370a082311461042857806376082a5e1461045157600080fd5b8063313ce5671461036b57806336568abe1461038557806338d52e0f1461039857806339509351146103b3578063402d267d146103c657600080fd5b80630a28a4771161023c5780630a28a477146102f257806318160ddd1461030557806319d349e11461030d57806323b872dd14610322578063248a9ca3146103355780632f2ff15d1461035857600080fd5b806301e1d1141461027957806301ffc9a71461029457806306fdde03146102b757806307a2d13a146102cc578063095ea7b3146102df575b600080fd5b6102816105c3565b6040519081526020015b60405180910390f35b6102a76102a2366004611fd2565b610635565b604051901515815260200161028b565b6102bf61066c565b60405161028b9190612020565b6102816102da366004612053565b6106fe565b6102a76102ed366004612081565b61070b565b610281610300366004612053565b610723565b603554610281565b61032061031b3660046120ad565b610730565b005b6102a76103303660046120ca565b6107c2565b610281610343366004612053565b600090815260c9602052604090206001015490565b61032061036636600461210b565b6107e8565b610373610812565b60405160ff909116815260200161028b565b61032061039336600461210b565b61082c565b6065546040516001600160a01b03909116815260200161028b565b6102a76103c1366004612081565b6108af565b6102816103d43660046120ad565b5060001990565b6102817fa03a3445a42c88c4c71fab3b69391367d1386136663ed015f42f4322182d454781565b6103206104103660046121de565b6108d1565b61028161042336600461210b565b610a04565b6102816104363660046120ad565b6001600160a01b031660009081526033602052604090205490565b61028160008051602061271183398151915281565b6102a761047436600461210b565b610a70565b610320610487366004612081565b610a9b565b61028161049a36600461210b565b610adb565b6102bf610af5565b61028160008051602061273183398151915281565b610281600081565b6102a76104d2366004612081565b610b04565b6102a76104e5366004612081565b610b8a565b6102816104f8366004612053565b610b98565b61028161050b366004612267565b610ba5565b61028161051e366004612267565b610c6b565b610281610531366004612053565b610d22565b6102816105443660046120ad565b610d2f565b61032061055736600461210b565b610d53565b61032061056a366004612081565b610d78565b61028161057d3660046120ad565b610dbb565b6102816105903660046122a9565b610dd9565b6103206105a33660046120ad565b610e04565b610281610e88565b6103206105be366004612081565b610ead565b6065546040516370a0823160e01b81523060048201526000916001600160a01b0316906370a0823190602401602060405180830381865afa15801561060c573d6000803e3d6000fd5b505050506040513d601f19601f8201168201806040525081019061063091906122d7565b905090565b60006001600160e01b03198216637965db0b60e01b148061066657506301ffc9a760e01b6001600160e01b03198316145b92915050565b60606036805461067b906122f0565b80601f01602080910402602001604051908101604052809291908181526020018280546106a7906122f0565b80156106f45780601f106106c9576101008083540402835291602001916106f4565b820191906000526020600020905b8154815290600101906020018083116106d757829003601f168201915b5050505050905090565b6000610666826000610ef2565b600033610719818585610f28565b5060019392505050565b600061066682600161104c565b600061073b81611077565b61075360008051602061273183398151915283611084565b816001600160a01b03167f84caf48d4368dc5b56de4d150b3ffe0854be1f7dfbc918b5f68cefd4867c326d426040516107b69181526040602082018190526010908201526f13dc9a59da5b985d1bdc88185919195960821b606082015260800190565b60405180910390a25050565b6000336107d085828561110a565b6107db85858561117e565b60019150505b9392505050565b600082815260c9602052604090206001015461080381611077565b61080d8383611084565b505050565b6000806065546106309190600160a01b900460ff16612340565b6001600160a01b03811633146108a15760405162461bcd60e51b815260206004820152602f60248201527f416363657373436f6e74726f6c3a2063616e206f6e6c792072656e6f756e636560448201526e103937b632b9903337b91039b2b63360891b60648201526084015b60405180910390fd5b6108ab8282611329565b5050565b6000336107198185856108c28383610dd9565b6108cc9190612359565b610f28565b600054610100900460ff16158080156108f15750600054600160ff909116105b8061090b5750303b15801561090b575060005460ff166001145b61096e5760405162461bcd60e51b815260206004820152602e60248201527f496e697469616c697a61626c653a20636f6e747261637420697320616c72656160448201526d191e481a5b9a5d1a585b1a5e995960921b6064820152608401610898565b6000805460ff191660011790558015610991576000805461ff0019166101001790555b610999611390565b6109a384846113b9565b6109ac856113ea565b6109b7600083611084565b80156109fd576000805461ff0019169055604051600181527f7f26b83ff96e1f2b6a682f133852f6798a09c465da95921460cefb38474024989060200160405180910390a15b5050505050565b6000600080516020612711833981519152610a1e81611077565b6000610a2985610d22565b9050610a373385878461141a565b8460fb6000828254610a499190612359565b925050819055508060fc6000828254610a629190612359565b909155509095945050505050565b600091825260c9602090815260408084206001600160a01b0393909316845291905290205460ff1690565b600080516020612731833981519152610ab381611077565b6000610ac76065546001600160a01b031690565b9050610ad581853086611498565b50505050565b600080610ae784610b98565b90506107e13384838761141a565b60606037805461067b906122f0565b60003381610b128286610dd9565b905083811015610b725760405162461bcd60e51b815260206004820152602560248201527f45524332303a2064656372656173656420616c6c6f77616e63652062656c6f77604482015264207a65726f60d81b6064820152608401610898565b610b7f8286868403610f28565b506001949350505050565b60003361071981858561117e565b6000610666826001610ef2565b6000600080516020612711833981519152610bbf81611077565b610bc883610d2f565b851115610c175760405162461bcd60e51b815260206004820152601f60248201527f455243343632363a207769746864726177206d6f7265207468616e206d6178006044820152606401610898565b6000610c2286610723565b9050610c313386868985611503565b8560fb6000828254610c43919061236c565b925050819055508060fc6000828254610c5c919061236c565b90915550909695505050505050565b6000600080516020612711833981519152610c8581611077565b610c8e83610dbb565b851115610cdd5760405162461bcd60e51b815260206004820152601d60248201527f455243343632363a2072656465656d206d6f7265207468616e206d61780000006044820152606401610898565b6000610ce8866106fe565b9050610cf7338686848a611503565b8060fb6000828254610d09919061236c565b925050819055508560fc6000828254610c5c919061236c565b600061066682600061104c565b6001600160a01b038116600090815260336020526040812054610666906000610ef2565b600082815260c96020526040902060010154610d6e81611077565b61080d8383611329565b600080516020612731833981519152610d9081611077565b8160fb6000828254610da29190612359565b90915550506065546000906001600160a01b0316610ac7565b6001600160a01b038116600090815260336020526040812054610666565b6001600160a01b03918216600090815260346020908152604080832093909416825291909152205490565b6000610e0f81611077565b610e2760008051602061271183398151915283611084565b816001600160a01b03167fac7ff9e4a38bec2164d6a1f8ce6002a6abd727321a2bea11825d566713243ce9426040516107b6918152604060208201819052600e908201526d125b9d995cdd1bdc88185919195960921b606082015260800190565b600060fc5460fb54670de0b6b3a7640000610ea3919061237f565b61063091906123ac565b600080516020612731833981519152610ec581611077565b6000610ed96065546001600160a01b031690565b9050610ee68130856115af565b610ad581308686611498565b60006107e160fb546001610f069190612359565b610f126000600a6124b2565b60fc54610f1f9190612359565b859190856116c4565b6001600160a01b038316610f8a5760405162461bcd60e51b8152602060048201526024808201527f45524332303a20617070726f76652066726f6d20746865207a65726f206164646044820152637265737360e01b6064820152608401610898565b6001600160a01b038216610feb5760405162461bcd60e51b815260206004820152602260248201527f45524332303a20617070726f766520746f20746865207a65726f206164647265604482015261737360f01b6064820152608401610898565b6001600160a01b0383811660008181526034602090815260408083209487168084529482529182902085905590518481527f8c5be1e5ebec7d5bd14f71427d1e84f3dd0314c0f7b2291e5b200ac8c7c3b925910160405180910390a3505050565b60006107e161105c82600a6124b2565b60fc546110699190612359565b60fb54610f1f906001612359565b6110818133611723565b50565b61108e8282610a70565b6108ab57600082815260c9602090815260408083206001600160a01b03851684529091529020805460ff191660011790556110c63390565b6001600160a01b0316816001600160a01b0316837f2f8788117e7eff1d82e926ec794901d17c78024a50270940304540a733656f0d60405160405180910390a45050565b60006111168484610dd9565b90506000198114610ad557818110156111715760405162461bcd60e51b815260206004820152601d60248201527f45524332303a20696e73756666696369656e7420616c6c6f77616e63650000006044820152606401610898565b610ad58484848403610f28565b6001600160a01b0383166111e25760405162461bcd60e51b815260206004820152602560248201527f45524332303a207472616e736665722066726f6d20746865207a65726f206164604482015264647265737360d81b6064820152608401610898565b6001600160a01b0382166112445760405162461bcd60e51b815260206004820152602360248201527f45524332303a207472616e7366657220746f20746865207a65726f206164647260448201526265737360e81b6064820152608401610898565b6001600160a01b038316600090815260336020526040902054818110156112bc5760405162461bcd60e51b815260206004820152602660248201527f45524332303a207472616e7366657220616d6f756e7420657863656564732062604482015265616c616e636560d01b6064820152608401610898565b6001600160a01b0380851660008181526033602052604080822086860390559286168082529083902080548601905591517fddf252ad1be2c89b69c2b068fc378daa952ba7f163c4a11628f55a4df523b3ef9061131c9086815260200190565b60405180910390a3610ad5565b6113338282610a70565b156108ab57600082815260c9602090815260408083206001600160a01b0385168085529252808320805460ff1916905551339285917ff6391f5c32d9c69d2a47ea670b442974b53935d1edc7fd64eb21e047a839171b9190a45050565b600054610100900460ff166113b75760405162461bcd60e51b8152600401610898906124c1565b565b600054610100900460ff166113e05760405162461bcd60e51b8152600401610898906124c1565b6108ab828261177c565b600054610100900460ff166114115760405162461bcd60e51b8152600401610898906124c1565b611081816117bc565b606554611432906001600160a01b0316853085611498565b61143c8382611841565b826001600160a01b0316846001600160a01b03167fdcbc1c05240f31ff3ad067ef1ee35ce4997762752e3a095284754544f4c709d7848460405161148a929190918252602082015260400190565b60405180910390a350505050565b6040516001600160a01b0380851660248301528316604482015260648101829052610ad59085906323b872dd60e01b906084015b60408051601f198184030181529190526020810180516001600160e01b03166001600160e01b031990931692909217909152611902565b826001600160a01b0316856001600160a01b0316146115275761152783868361110a565b61153183826119d7565b606554611548906001600160a01b03168584611b0b565b826001600160a01b0316846001600160a01b0316866001600160a01b03167ffbde797d201c681b91056529119e0b02407c7bb96a4a2c75c01fc9667232c8db85856040516115a0929190918252602082015260400190565b60405180910390a45050505050565b8015806116295750604051636eb1769f60e11b81523060048201526001600160a01b03838116602483015284169063dd62ed3e90604401602060405180830381865afa158015611603573d6000803e3d6000fd5b505050506040513d601f19601f8201168201806040525081019061162791906122d7565b155b6116945760405162461bcd60e51b815260206004820152603660248201527f5361666545524332303a20617070726f76652066726f6d206e6f6e2d7a65726f60448201527520746f206e6f6e2d7a65726f20616c6c6f77616e636560501b6064820152608401610898565b6040516001600160a01b03831660248201526044810182905261080d90849063095ea7b360e01b906064016114cc565b6000806116d2868686611b3b565b905060018360028111156116e8576116e861250c565b14801561170557506000848061170057611700612396565b868809115b1561171857611715600182612359565b90505b90505b949350505050565b61172d8282610a70565b6108ab5761173a81611c25565b611745836020611c37565b604051602001611756929190612522565b60408051601f198184030181529082905262461bcd60e51b825261089891600401612020565b600054610100900460ff166117a35760405162461bcd60e51b8152600401610898906124c1565b60366117af83826125e5565b50603761080d82826125e5565b600054610100900460ff166117e35760405162461bcd60e51b8152600401610898906124c1565b6000806117ef83611dd3565b91509150816117ff576012611801565b805b606580546001600160a01b039095166001600160a01b031960ff93909316600160a01b02929092166001600160a81b031990951694909417179092555050565b6001600160a01b0382166118975760405162461bcd60e51b815260206004820152601f60248201527f45524332303a206d696e7420746f20746865207a65726f2061646472657373006044820152606401610898565b80603560008282546118a99190612359565b90915550506001600160a01b0382166000818152603360209081526040808320805486019055518481527fddf252ad1be2c89b69c2b068fc378daa952ba7f163c4a11628f55a4df523b3ef910160405180910390a35050565b6000611957826040518060400160405280602081526020017f5361666545524332303a206c6f772d6c6576656c2063616c6c206661696c6564815250856001600160a01b0316611eaf9092919063ffffffff16565b905080516000148061197857508080602001905181019061197891906126a5565b61080d5760405162461bcd60e51b815260206004820152602a60248201527f5361666545524332303a204552433230206f7065726174696f6e20646964206e6044820152691bdd081cdd58d8d9595960b21b6064820152608401610898565b6001600160a01b038216611a375760405162461bcd60e51b815260206004820152602160248201527f45524332303a206275726e2066726f6d20746865207a65726f206164647265736044820152607360f81b6064820152608401610898565b6001600160a01b03821660009081526033602052604090205481811015611aab5760405162461bcd60e51b815260206004820152602260248201527f45524332303a206275726e20616d6f756e7420657863656564732062616c616e604482015261636560f01b6064820152608401610898565b6001600160a01b03831660008181526033602090815260408083208686039055603580548790039055518581529192917fddf252ad1be2c89b69c2b068fc378daa952ba7f163c4a11628f55a4df523b3ef910160405180910390a3505050565b6040516001600160a01b03831660248201526044810182905261080d90849063a9059cbb60e01b906064016114cc565b6000808060001985870985870292508281108382030391505080600003611b7557838281611b6b57611b6b612396565b04925050506107e1565b808411611bbc5760405162461bcd60e51b81526020600482015260156024820152744d6174683a206d756c446976206f766572666c6f7760581b6044820152606401610898565b60008486880960026001871981018816978890046003810283188082028403028082028403028082028403028082028403028082028403029081029092039091026000889003889004909101858311909403939093029303949094049190911702949350505050565b60606106666001600160a01b03831660145b60606000611c4683600261237f565b611c51906002612359565b67ffffffffffffffff811115611c6957611c6961213b565b6040519080825280601f01601f191660200182016040528015611c93576020820181803683370190505b509050600360fc1b81600081518110611cae57611cae6126c7565b60200101906001600160f81b031916908160001a905350600f60fb1b81600181518110611cdd57611cdd6126c7565b60200101906001600160f81b031916908160001a9053506000611d0184600261237f565b611d0c906001612359565b90505b6001811115611d84576f181899199a1a9b1b9c1cb0b131b232b360811b85600f1660108110611d4057611d406126c7565b1a60f81b828281518110611d5657611d566126c7565b60200101906001600160f81b031916908160001a90535060049490941c93611d7d816126dd565b9050611d0f565b5083156107e15760405162461bcd60e51b815260206004820181905260248201527f537472696e67733a20686578206c656e67746820696e73756666696369656e746044820152606401610898565b60408051600481526024810182526020810180516001600160e01b031663313ce56760e01b17905290516000918291829182916001600160a01b03871691611e1a916126f4565b600060405180830381855afa9150503d8060008114611e55576040519150601f19603f3d011682016040523d82523d6000602084013e611e5a565b606091505b5091509150818015611e6e57506020815110155b15611ea257600081806020019051810190611e8991906122d7565b905060ff8111611ea0576001969095509350505050565b505b5060009485945092505050565b606061171b848460008585600080866001600160a01b03168587604051611ed691906126f4565b60006040518083038185875af1925050503d8060008114611f13576040519150601f19603f3d011682016040523d82523d6000602084013e611f18565b606091505b5091509150611f2987838387611f34565b979650505050505050565b60608315611fa3578251600003611f9c576001600160a01b0385163b611f9c5760405162461bcd60e51b815260206004820152601d60248201527f416464726573733a2063616c6c20746f206e6f6e2d636f6e74726163740000006044820152606401610898565b508161171b565b61171b8383815115611fb85781518083602001fd5b8060405162461bcd60e51b81526004016108989190612020565b600060208284031215611fe457600080fd5b81356001600160e01b0319811681146107e157600080fd5b60005b83811015612017578181015183820152602001611fff565b50506000910152565b602081526000825180602084015261203f816040850160208701611ffc565b601f01601f19169190910160400192915050565b60006020828403121561206557600080fd5b5035919050565b6001600160a01b038116811461108157600080fd5b6000806040838503121561209457600080fd5b823561209f8161206c565b946020939093013593505050565b6000602082840312156120bf57600080fd5b81356107e18161206c565b6000806000606084860312156120df57600080fd5b83356120ea8161206c565b925060208401356120fa8161206c565b929592945050506040919091013590565b6000806040838503121561211e57600080fd5b8235915060208301356121308161206c565b809150509250929050565b634e487b7160e01b600052604160045260246000fd5b600082601f83011261216257600080fd5b813567ffffffffffffffff8082111561217d5761217d61213b565b604051601f8301601f19908116603f011681019082821181831017156121a5576121a561213b565b816040528381528660208588010111156121be57600080fd5b836020870160208301376000602085830101528094505050505092915050565b600080600080608085870312156121f457600080fd5b84356121ff8161206c565b9350602085013567ffffffffffffffff8082111561221c57600080fd5b61222888838901612151565b9450604087013591508082111561223e57600080fd5b5061224b87828801612151565b925050606085013561225c8161206c565b939692955090935050565b60008060006060848603121561227c57600080fd5b83359250602084013561228e8161206c565b9150604084013561229e8161206c565b809150509250925092565b600080604083850312156122bc57600080fd5b82356122c78161206c565b915060208301356121308161206c565b6000602082840312156122e957600080fd5b5051919050565b600181811c9082168061230457607f821691505b60208210810361232457634e487b7160e01b600052602260045260246000fd5b50919050565b634e487b7160e01b600052601160045260246000fd5b60ff81811683821601908111156106665761066661232a565b808201808211156106665761066661232a565b818103818111156106665761066661232a565b80820281158282048414176106665761066661232a565b634e487b7160e01b600052601260045260246000fd5b6000826123c957634e487b7160e01b600052601260045260246000fd5b500490565b600181815b808511156124095781600019048211156123ef576123ef61232a565b808516156123fc57918102915b93841c93908002906123d3565b509250929050565b60008261242057506001610666565b8161242d57506000610666565b8160018114612443576002811461244d57612469565b6001915050610666565b60ff84111561245e5761245e61232a565b50506001821b610666565b5060208310610133831016604e8410600b841016171561248c575081810a610666565b61249683836123ce565b80600019048211156124aa576124aa61232a565b029392505050565b60006107e160ff841683612411565b6020808252602b908201527f496e697469616c697a61626c653a20636f6e7472616374206973206e6f74206960408201526a6e697469616c697a696e6760a81b606082015260800190565b634e487b7160e01b600052602160045260246000fd5b7f416363657373436f6e74726f6c3a206163636f756e742000000000000000000081526000835161255a816017850160208801611ffc565b7001034b99036b4b9b9b4b733903937b6329607d1b601791840191820152835161258b816028840160208801611ffc565b01602801949350505050565b601f82111561080d57600081815260208120601f850160051c810160208610156125be5750805b601f850160051c820191505b818110156125dd578281556001016125ca565b505050505050565b815167ffffffffffffffff8111156125ff576125ff61213b565b6126138161260d84546122f0565b84612597565b602080601f83116001811461264857600084156126305750858301515b600019600386901b1c1916600185901b1785556125dd565b600085815260208120601f198616915b8281101561267757888601518255948401946001909101908401612658565b50858210156126955787850151600019600388901b60f8161c191681555b5050505050600190811b01905550565b6000602082840312156126b757600080fd5b815180151581146107e157600080fd5b634e487b7160e01b600052603260045260246000fd5b6000816126ec576126ec61232a565b506000190190565b60008251612706818460208701611ffc565b919091019291505056feb165298935924f540e4181c03493a5d686c54a0aaeb3f6216de85b7ffbba773859abfac6520ec36a6556b2a4dd949cc40007459bcd5cd2507f1e5cc77b6bc97ea2646970667358221220220de74f3b2ffd20db2f56f0af68e776e96508f9ba1c8a3a216ef103f6089af864736f6c63430008120033",
  "linkReferences": {},
  "deployedLinkReferences": {}
}